{
  "_format": "hh-sol-artifact-1",
  "contractName": "TestCoinFlip",
  "sourceName": "contracts/TestCoinflip.sol",
  "abi": [
    {
      "inputs": [
        {
          "internalType": "uint64",
          "name": "subscriptionID",
          "type": "uint64"
        },
        {
          "internalType": "address",
          "name": "_vrf",
          "type": "address"
        },
        {
          "internalType": "bytes32",
          "name": "_keyHash",
          "type": "bytes32"
        },
        {
          "internalType": "address",
          "name": "link_eth_feed",
          "type": "address"
        },
        {
          "internalType": "address",
          "name": "tokenAllowed",
          "type": "address"
        },
        {
          "internalType": "address",
          "name": "wrappedToken",
          "type": "address"
        }
      ],
      "stateMutability": "nonpayable",
      "type": "constructor"
    },
    {
      "inputs": [
        {
          "internalType": "uint256",
          "name": "requestID",
          "type": "uint256"
        }
      ],
      "name": "AwaitingVRF",
      "type": "error"
    },
    {
      "inputs": [
        {
          "internalType": "uint256",
          "name": "have",
          "type": "uint256"
        },
        {
          "internalType": "uint256",
          "name": "want",
          "type": "uint256"
        }
      ],
      "name": "BlockNumberTooLow",
      "type": "error"
    },
    {
      "inputs": [
        {
          "internalType": "uint256",
          "name": "maxNumBets",
          "type": "uint256"
        }
      ],
      "name": "InvalidNumBets",
      "type": "error"
    },
    {
      "inputs": [],
      "name": "InvalidToken",
      "type": "error"
    },
    {
      "inputs": [
        {
          "internalType": "uint256",
          "name": "required",
          "type": "uint256"
        },
        {
          "internalType": "uint256",
          "name": "sent",
          "type": "uint256"
        }
      ],
      "name": "InvalidValue",
      "type": "error"
    },
    {
      "inputs": [],
      "name": "NotAwaitingVRF",
      "type": "error"
    },
    {
      "inputs": [
        {
          "internalType": "address",
          "name": "want",
          "type": "address"
        },
        {
          "internalType": "address",
          "name": "have",
          "type": "address"
        }
      ],
      "name": "NotOwner",
      "type": "error"
    },
    {
      "inputs": [
        {
          "internalType": "address",
          "name": "have",
          "type": "address"
        },
        {
          "internalType": "address",
          "name": "want",
          "type": "address"
        }
      ],
      "name": "OnlyCoordinatorCanFulfill",
      "type": "error"
    },
    {
      "inputs": [],
      "name": "RefundFailed",
      "type": "error"
    },
    {
      "inputs": [],
      "name": "TransferFailed",
      "type": "error"
    },
    {
      "inputs": [
        {
          "internalType": "uint256",
          "name": "wager",
          "type": "uint256"
        },
        {
          "internalType": "uint256",
          "name": "maxWager",
          "type": "uint256"
        }
      ],
      "name": "WagerAboveLimit",
      "type": "error"
    },
    {
      "inputs": [],
      "name": "ZeroWager",
      "type": "error"
    },
    {
      "anonymous": false,
      "inputs": [
        {
          "indexed": true,
          "internalType": "address",
          "name": "playerAddress",
          "type": "address"
        },
        {
          "indexed": false,
          "internalType": "uint256",
          "name": "wager",
          "type": "uint256"
        },
        {
          "indexed": false,
          "internalType": "uint256",
          "name": "payout",
          "type": "uint256"
        },
        {
          "indexed": false,
          "internalType": "address",
          "name": "tokenAddress",
          "type": "address"
        },
        {
          "indexed": false,
          "internalType": "uint8[]",
          "name": "coinOutcomes",
          "type": "uint8[]"
        },
        {
          "indexed": false,
          "internalType": "uint256[]",
          "name": "payouts",
          "type": "uint256[]"
        },
        {
          "indexed": false,
          "internalType": "uint32",
          "name": "numGames",
          "type": "uint32"
        }
      ],
      "name": "CoinFlip_Outcome_Event",
      "type": "event"
    },
    {
      "anonymous": false,
      "inputs": [
        {
          "indexed": true,
          "internalType": "address",
          "name": "playerAddress",
          "type": "address"
        },
        {
          "indexed": false,
          "internalType": "uint256",
          "name": "wager",
          "type": "uint256"
        },
        {
          "indexed": false,
          "internalType": "address",
          "name": "tokenAddress",
          "type": "address"
        },
        {
          "indexed": false,
          "internalType": "bool",
          "name": "isHeads",
          "type": "bool"
        },
        {
          "indexed": false,
          "internalType": "uint32",
          "name": "numBets",
          "type": "uint32"
        },
        {
          "indexed": false,
          "internalType": "uint256",
          "name": "stopGain",
          "type": "uint256"
        },
        {
          "indexed": false,
          "internalType": "uint256",
          "name": "stopLoss",
          "type": "uint256"
        },
        {
          "indexed": false,
          "internalType": "uint256",
          "name": "VRFFee",
          "type": "uint256"
        }
      ],
      "name": "CoinFlip_Play_Event",
      "type": "event"
    },
    {
      "anonymous": false,
      "inputs": [
        {
          "indexed": true,
          "internalType": "address",
          "name": "player",
          "type": "address"
        },
        {
          "indexed": false,
          "internalType": "uint256",
          "name": "wager",
          "type": "uint256"
        },
        {
          "indexed": false,
          "internalType": "address",
          "name": "tokenAddress",
          "type": "address"
        }
      ],
      "name": "CoinFlip_Refund_Event",
      "type": "event"
    },
    {
      "anonymous": false,
      "inputs": [
        {
          "indexed": false,
          "internalType": "address",
          "name": "sender",
          "type": "address"
        },
        {
          "indexed": false,
          "internalType": "uint256",
          "name": "amount",
          "type": "uint256"
        }
      ],
      "name": "Received",
      "type": "event"
    },
    {
      "anonymous": false,
      "inputs": [
        {
          "indexed": false,
          "internalType": "uint64",
          "name": "subID",
          "type": "uint64"
        },
        {
          "indexed": false,
          "internalType": "uint64",
          "name": "newSubID",
          "type": "uint64"
        }
      ],
      "name": "Subscrition_Change_Event",
      "type": "event"
    },
    {
      "anonymous": false,
      "inputs": [
        {
          "indexed": false,
          "internalType": "address",
          "name": "token",
          "type": "address"
        },
        {
          "indexed": false,
          "internalType": "bool",
          "name": "status",
          "type": "bool"
        }
      ],
      "name": "Token_Set_Event",
      "type": "event"
    },
    {
      "anonymous": false,
      "inputs": [
        {
          "indexed": false,
          "internalType": "address",
          "name": "prevOwner",
          "type": "address"
        },
        {
          "indexed": false,
          "internalType": "address",
          "name": "newOwner",
          "type": "address"
        }
      ],
      "name": "Transfer_Ownership_Event",
      "type": "event"
    },
    {
      "anonymous": false,
      "inputs": [
        {
          "indexed": false,
          "internalType": "address",
          "name": "to",
          "type": "address"
        },
        {
          "indexed": false,
          "internalType": "uint256",
          "name": "amount",
          "type": "uint256"
        },
        {
          "indexed": false,
          "internalType": "address",
          "name": "tokenAddress",
          "type": "address"
        }
      ],
      "name": "Withdraw_HouseEdge_Event",
      "type": "event"
    },
    {
      "inputs": [],
      "name": "COORDINATOR",
      "outputs": [
        {
          "internalType": "contract IVRFCoordinatorV2",
          "name": "",
          "type": "address"
        }
      ],
      "stateMutability": "view",
      "type": "function"
    },
    {
      "inputs": [
        {
          "internalType": "address",
          "name": "player",
          "type": "address"
        }
      ],
      "name": "CoinFlip_GetState",
      "outputs": [
        {
          "components": [
            {
              "internalType": "uint256",
              "name": "wager",
              "type": "uint256"
            },
            {
              "internalType": "uint256",
              "name": "stopGain",
              "type": "uint256"
            },
            {
              "internalType": "uint256",
              "name": "stopLoss",
              "type": "uint256"
            },
            {
              "internalType": "uint256",
              "name": "requestID",
              "type": "uint256"
            },
            {
              "internalType": "address",
              "name": "tokenAddress",
              "type": "address"
            },
            {
              "internalType": "uint64",
              "name": "blockNumber",
              "type": "uint64"
            },
            {
              "internalType": "uint32",
              "name": "numBets",
              "type": "uint32"
            },
            {
              "internalType": "bool",
              "name": "isHeads",
              "type": "bool"
            }
          ],
          "internalType": "struct TestCoinFlip.CoinFlipGame",
          "name": "",
          "type": "tuple"
        }
      ],
      "stateMutability": "view",
      "type": "function"
    },
    {
      "inputs": [
        {
          "internalType": "uint256",
          "name": "wager",
          "type": "uint256"
        },
        {
          "internalType": "address",
          "name": "tokenAddress",
          "type": "address"
        },
        {
          "internalType": "bool",
          "name": "isHeads",
          "type": "bool"
        },
        {
          "internalType": "uint32",
          "name": "numBets",
          "type": "uint32"
        },
        {
          "internalType": "uint256",
          "name": "stopGain",
          "type": "uint256"
        },
        {
          "internalType": "uint256",
          "name": "stopLoss",
          "type": "uint256"
        }
      ],
      "name": "CoinFlip_Play",
      "outputs": [],
      "stateMutability": "payable",
      "type": "function"
    },
    {
      "inputs": [],
      "name": "CoinFlip_Refund",
      "outputs": [],
      "stateMutability": "nonpayable",
      "type": "function"
    },
    {
      "inputs": [],
      "name": "LINK_ETH_FEED",
      "outputs": [
        {
          "internalType": "contract AggregatorV3Interface",
          "name": "",
          "type": "address"
        }
      ],
      "stateMutability": "view",
      "type": "function"
    },
    {
      "inputs": [],
      "name": "VRFFees",
      "outputs": [
        {
          "internalType": "uint256",
          "name": "",
          "type": "uint256"
        }
      ],
      "stateMutability": "view",
      "type": "function"
    },
    {
      "inputs": [
        {
          "internalType": "uint64",
          "name": "_subscriptionId",
          "type": "uint64"
        }
      ],
      "name": "changeSubscription",
      "outputs": [],
      "stateMutability": "nonpayable",
      "type": "function"
    },
    {
      "inputs": [
        {
          "internalType": "uint256",
          "name": "gasAmount",
          "type": "uint256"
        }
      ],
      "name": "getVRFFee",
      "outputs": [
        {
          "internalType": "uint256",
          "name": "fee",
          "type": "uint256"
        }
      ],
      "stateMutability": "view",
      "type": "function"
    },
    {
      "inputs": [
        {
          "internalType": "address",
          "name": "",
          "type": "address"
        }
      ],
      "name": "isTokenAllowed",
      "outputs": [
        {
          "internalType": "bool",
          "name": "",
          "type": "bool"
        }
      ],
      "stateMutability": "view",
      "type": "function"
    },
    {
      "inputs": [],
      "name": "owner",
      "outputs": [
        {
          "internalType": "address",
          "name": "",
          "type": "address"
        }
      ],
      "stateMutability": "view",
      "type": "function"
    },
    {
      "inputs": [
        {
          "internalType": "uint256",
          "name": "requestId",
          "type": "uint256"
        },
        {
          "internalType": "uint256[]",
          "name": "randomWords",
          "type": "uint256[]"
        }
      ],
      "name": "rawFulfillRandomWords",
      "outputs": [],
      "stateMutability": "nonpayable",
      "type": "function"
    },
    {
      "inputs": [],
      "name": "s_subscriptionId",
      "outputs": [
        {
          "internalType": "uint64",
          "name": "",
          "type": "uint64"
        }
      ],
      "stateMutability": "view",
      "type": "function"
    },
    {
      "inputs": [
        {
          "internalType": "address",
          "name": "token",
          "type": "address"
        },
        {
          "internalType": "bool",
          "name": "status",
          "type": "bool"
        }
      ],
      "name": "setToken",
      "outputs": [],
      "stateMutability": "nonpayable",
      "type": "function"
    },
    {
      "inputs": [
        {
          "internalType": "address",
          "name": "to",
          "type": "address"
        }
      ],
      "name": "transferFees",
      "outputs": [],
      "stateMutability": "nonpayable",
      "type": "function"
    },
    {
      "inputs": [
        {
          "internalType": "address",
          "name": "newOwner",
          "type": "address"
        }
      ],
      "name": "transferOwnership",
      "outputs": [],
      "stateMutability": "nonpayable",
      "type": "function"
    },
    {
      "inputs": [
        {
          "internalType": "address",
          "name": "to",
          "type": "address"
        },
        {
          "internalType": "uint256",
          "name": "amount",
          "type": "uint256"
        },
        {
          "internalType": "address",
          "name": "tokenAddress",
          "type": "address"
        }
      ],
      "name": "withdrawHouseEdge",
      "outputs": [],
      "stateMutability": "nonpayable",
      "type": "function"
    },
    {
      "inputs": [],
      "name": "wrappedToken",
      "outputs": [
        {
          "internalType": "address",
          "name": "",
          "type": "address"
        }
      ],
      "stateMutability": "view",
      "type": "function"
    },
    {
      "stateMutability": "payable",
      "type": "receive"
    }
  ],
  "bytecode": "0x60e06040523480156200001157600080fd5b50604051620041db380380620041db833981810160405281019062000037919062000213565b858386868460016000819055508273ffffffffffffffffffffffffffffffffffffffff1660a08173ffffffffffffffffffffffffffffffffffffffff1660601b815250508373ffffffffffffffffffffffffffffffffffffffff1660808173ffffffffffffffffffffffffffffffffffffffff1660601b8152505084600260006101000a81548167ffffffffffffffff021916908367ffffffffffffffff16021790555033600260086101000a81548173ffffffffffffffffffffffffffffffffffffffff021916908373ffffffffffffffffffffffffffffffffffffffff1602179055508160c0818152505080600360006101000a81548173ffffffffffffffffffffffffffffffffffffffff021916908373ffffffffffffffffffffffffffffffffffffffff16021790555050505050506001600660008473ffffffffffffffffffffffffffffffffffffffff1673ffffffffffffffffffffffffffffffffffffffff16815260200190815260200160002060006101000a81548160ff02191690831515021790555050505050505062000354565b600081519050620001df8162000306565b92915050565b600081519050620001f68162000320565b92915050565b6000815190506200020d816200033a565b92915050565b60008060008060008060c0878903121562000233576200023262000301565b5b60006200024389828a01620001fc565b96505060206200025689828a01620001ce565b95505060406200026989828a01620001e5565b94505060606200027c89828a01620001ce565b93505060806200028f89828a01620001ce565b92505060a0620002a289828a01620001ce565b9150509295509295509295565b6000620002bc82620002cd565b9050919050565b6000819050919050565b600073ffffffffffffffffffffffffffffffffffffffff82169050919050565b600067ffffffffffffffff82169050919050565b600080fd5b6200031181620002af565b81146200031d57600080fd5b50565b6200032b81620002c3565b81146200033757600080fd5b50565b6200034581620002ed565b81146200035157600080fd5b50565b60805160601c60a05160601c60c051613e2e620003ad6000396000611f7301526000818161042b0152818161047f015281816105d90152818161116d0152611f370152600081816110c701526112d40152613e2e6000f3fe6080604052600436106101025760003560e01c80638ac0002111610095578063996c6cc311610064578063996c6cc314610344578063ad1783611461036f578063b400c2311461039a578063f2fde38b146103c3578063f9eaee0d146103ec57610142565b80638ac00021146102865780638bd16114146102b15780638d7c16d2146102ee5780638da5cb5b1461031957610142565b806363dc4ef5116100d157806363dc4ef5146101db5780636d974773146102045780637ab77648146102205780637df312841461024957610142565b80631fe543e3146101475780633816a292146101705780633b2bcbf114610199578063522d2c24146101c457610142565b36610142577f88a5966d370b9919b20f3e2c13ff65706f196a4e32cc2c12bf57088f8852587433346040516101389291906131fc565b60405180910390a1005b600080fd5b34801561015357600080fd5b5061016e60048036038101906101699190612bb8565b610429565b005b34801561017c57600080fd5b5061019760048036038101906101929190612a11565b6104e9565b005b3480156101a557600080fd5b506101ae6105d7565b6040516101bb91906132e5565b60405180910390f35b3480156101d057600080fd5b506101d96105fb565b005b3480156101e757600080fd5b5061020260048036038101906101fd91906129e4565b6109e5565b005b61021e60048036038101906102199190612b2b565b610b06565b005b34801561022c57600080fd5b5061024760048036038101906102429190612a51565b610eb8565b005b34801561025557600080fd5b50610270600480360381019061026b91906129e4565b610f5d565b60405161027d91906133bd565b60405180910390f35b34801561029257600080fd5b5061029b6110a8565b6040516102a8919061354d565b60405180910390f35b3480156102bd57600080fd5b506102d860048036038101906102d39190612ad1565b6110c2565b6040516102e591906133d9565b60405180910390f35b3480156102fa57600080fd5b50610303611280565b60405161031091906133d9565b60405180910390f35b34801561032557600080fd5b5061032e611286565b60405161033b9190613158565b60405180910390f35b34801561035057600080fd5b506103596112ac565b6040516103669190613158565b60405180910390f35b34801561037b57600080fd5b506103846112d2565b60405161039191906132ca565b60405180910390f35b3480156103a657600080fd5b506103c160048036038101906103bc9190612cde565b6112f6565b005b3480156103cf57600080fd5b506103ea60048036038101906103e591906129e4565b6113ab565b005b3480156103f857600080fd5b50610413600480360381019061040e91906129e4565b61146c565b604051610420919061325c565b60405180910390f35b7f000000000000000000000000000000000000000000000000000000000000000073ffffffffffffffffffffffffffffffffffffffff163373ffffffffffffffffffffffffffffffffffffffff16146104db57337f00000000000000000000000000000000000000000000000000000000000000006040517f1cf993f40000000000000000000000000000000000000000000000000000000081526004016104d2929190613173565b60405180910390fd5b6104e5828261148c565b5050565b600260089054906101000a900473ffffffffffffffffffffffffffffffffffffffff1673ffffffffffffffffffffffffffffffffffffffff163373ffffffffffffffffffffffffffffffffffffffff161461054357600080fd5b7faea999d0abc245b3ea43d19c7d13fca5b53dee3adfdc8cca1d48b4a6a48437c882826040516105749291906131d3565b60405180910390a180600660008473ffffffffffffffffffffffffffffffffffffffff1673ffffffffffffffffffffffffffffffffffffffff16815260200190815260200160002060006101000a81548160ff0219169083151502179055505050565b7f000000000000000000000000000000000000000000000000000000000000000081565b610603611aec565b6000600460003373ffffffffffffffffffffffffffffffffffffffff1673ffffffffffffffffffffffffffffffffffffffff1681526020019081526020016000209050600081600301541415610685576040517f49050b3000000000000000000000000000000000000000000000000000000000815260040160405180910390fd5b4360648260040160149054906101000a900467ffffffffffffffff166106ab9190613770565b67ffffffffffffffff16111561071e574360648260040160149054906101000a900467ffffffffffffffff166106e19190613770565b6040517fb4ae675a000000000000000000000000000000000000000000000000000000008152600401610715929190613524565b60405180910390fd5b600081600401601c9054906101000a900463ffffffff1663ffffffff16826000015461074a91906137df565b905060008260040160009054906101000a900473ffffffffffffffffffffffffffffffffffffffff169050600560008460030154815260200190815260200160002060006101000a81549073ffffffffffffffffffffffffffffffffffffffff0219169055600460003373ffffffffffffffffffffffffffffffffffffffff1673ffffffffffffffffffffffffffffffffffffffff1681526020019081526020016000206000808201600090556001820160009055600282016000905560038201600090556004820160006101000a81549073ffffffffffffffffffffffffffffffffffffffff02191690556004820160146101000a81549067ffffffffffffffff021916905560048201601c6101000a81549063ffffffff02191690556005820160006101000a81549060ff02191690555050600073ffffffffffffffffffffffffffffffffffffffff168173ffffffffffffffffffffffffffffffffffffffff16141561095c5760003373ffffffffffffffffffffffffffffffffffffffff16836040516108d990613143565b60006040518083038185875af1925050503d8060008114610916576040519150601f19603f3d011682016040523d82523d6000602084013e61091b565b606091505b5050905080610956576040517f90b8ec1800000000000000000000000000000000000000000000000000000000815260040160405180910390fd5b50610988565b61098733838373ffffffffffffffffffffffffffffffffffffffff16611b3c9092919063ffffffff16565b5b3373ffffffffffffffffffffffffffffffffffffffff167f60f5ec2f86c0cf8ae72815b61b05473a9382c1c34a74749680302b342c04138a83836040516109d09291906133f4565b60405180910390a25050506109e3611bc2565b565b6109ed611aec565b600260089054906101000a900473ffffffffffffffffffffffffffffffffffffffff1673ffffffffffffffffffffffffffffffffffffffff163373ffffffffffffffffffffffffffffffffffffffff1614610a4757600080fd5b60006001549050600060018190555060008273ffffffffffffffffffffffffffffffffffffffff1682604051610a7c90613143565b60006040518083038185875af1925050503d8060008114610ab9576040519150601f19603f3d011682016040523d82523d6000602084013e610abe565b606091505b5050905080610af9576040517f90b8ec1800000000000000000000000000000000000000000000000000000000815260040160405180910390fd5b5050610b03611bc2565b50565b610b0e611aec565b6000600460003373ffffffffffffffffffffffffffffffffffffffff1673ffffffffffffffffffffffffffffffffffffffff1681526020019081526020016000206003015414610bd757600460003373ffffffffffffffffffffffffffffffffffffffff1673ffffffffffffffffffffffffffffffffffffffff168152602001908152602001600020600301546040517f440db96e000000000000000000000000000000000000000000000000000000008152600401610bce91906133d9565b60405180910390fd5b60008363ffffffff16118015610bf4575060648363ffffffff1611155b610c365760646040517f93107491000000000000000000000000000000000000000000000000000000008152600401610c2d9190613300565b60405180910390fd5b610c408686611bcc565b6000610c62868563ffffffff1689610c5891906137df565b620aae6033611d8c565b90506000610c6f85611f33565b90506040518061010001604052808981526020018581526020018481526020018281526020018873ffffffffffffffffffffffffffffffffffffffff1681526020014367ffffffffffffffff1681526020018663ffffffff168152602001871515815250600460003373ffffffffffffffffffffffffffffffffffffffff1673ffffffffffffffffffffffffffffffffffffffff1681526020019081526020016000206000820151816000015560208201518160010155604082015181600201556060820151816003015560808201518160040160006101000a81548173ffffffffffffffffffffffffffffffffffffffff021916908373ffffffffffffffffffffffffffffffffffffffff16021790555060a08201518160040160146101000a81548167ffffffffffffffff021916908367ffffffffffffffff16021790555060c082015181600401601c6101000a81548163ffffffff021916908363ffffffff16021790555060e08201518160050160006101000a81548160ff021916908315150217905550905050336005600083815260200190815260200160002060006101000a81548173ffffffffffffffffffffffffffffffffffffffff021916908373ffffffffffffffffffffffffffffffffffffffff1602179055503373ffffffffffffffffffffffffffffffffffffffff167f9802308245dc39ec39c453355c93a84c961f728db54b5adeaad1cd29aa6f3f7389898989898989604051610e9e979695949392919061341d565b60405180910390a25050610eb0611bc2565b505050505050565b600260089054906101000a900473ffffffffffffffffffffffffffffffffffffffff1673ffffffffffffffffffffffffffffffffffffffff163373ffffffffffffffffffffffffffffffffffffffff1614610f1257600080fd5b7f593d716566b4464bf0b779610f37202e3aa235093cc97c461d3c64a7f8e95b9e838383604051610f4593929190613225565b60405180910390a1610f58838383612029565b505050565b610f656127f2565b600460008373ffffffffffffffffffffffffffffffffffffffff1673ffffffffffffffffffffffffffffffffffffffff16815260200190815260200160002060405180610100016040529081600082015481526020016001820154815260200160028201548152602001600382015481526020016004820160009054906101000a900473ffffffffffffffffffffffffffffffffffffffff1673ffffffffffffffffffffffffffffffffffffffff1673ffffffffffffffffffffffffffffffffffffffff1681526020016004820160149054906101000a900467ffffffffffffffff1667ffffffffffffffff1667ffffffffffffffff16815260200160048201601c9054906101000a900463ffffffff1663ffffffff1663ffffffff1681526020016005820160009054906101000a900460ff1615151515815250509050919050565b600260009054906101000a900467ffffffffffffffff1681565b6000807f000000000000000000000000000000000000000000000000000000000000000073ffffffffffffffffffffffffffffffffffffffff1663feaf968c6040518163ffffffff1660e01b815260040160a06040518083038186803b15801561112b57600080fd5b505afa15801561113f573d6000803e3d6000fd5b505050506040513d601f19601f820116820180604052508101906111639190612d0b565b50505091505060007f000000000000000000000000000000000000000000000000000000000000000073ffffffffffffffffffffffffffffffffffffffff16635fbbc0d26040518163ffffffff1660e01b81526004016101206040518083038186803b1580156111d257600080fd5b505afa1580156111e6573d6000803e3d6000fd5b505050506040513d601f19601f8201168201806040525081019061120a9190612c14565b50505050505050509050670de0b6b3a7640000828263ffffffff1664e8d4a5100061123591906137df565b61123f91906137df565b61124991906137ae565b600a8560123a61125991906137df565b61126391906137df565b61126d91906137ae565b611277919061371a565b92505050919050565b60015481565b600260089054906101000a900473ffffffffffffffffffffffffffffffffffffffff1681565b600360009054906101000a900473ffffffffffffffffffffffffffffffffffffffff1681565b7f000000000000000000000000000000000000000000000000000000000000000081565b600260089054906101000a900473ffffffffffffffffffffffffffffffffffffffff1673ffffffffffffffffffffffffffffffffffffffff163373ffffffffffffffffffffffffffffffffffffffff161461135057600080fd5b7f904a74bcf05e44be0348db4faed2b4ebb5e2f9e67c64335f1f9a907a391ab965600260009054906101000a900467ffffffffffffffff1682604051611397929190613568565b60405180910390a16113a881612138565b50565b600260089054906101000a900473ffffffffffffffffffffffffffffffffffffffff1673ffffffffffffffffffffffffffffffffffffffff163373ffffffffffffffffffffffffffffffffffffffff161461140557600080fd5b7f6bddf22c81e64d89aa75eb3a9fd9e0169b0c681f933203ffd7bf8ab50e4c9094600260089054906101000a900473ffffffffffffffffffffffffffffffffffffffff1682604051611458929190613173565b60405180910390a161146981612164565b50565b60066020528060005260406000206000915054906101000a900460ff1681565b60006005600084815260200190815260200160002060009054906101000a900473ffffffffffffffffffffffffffffffffffffffff169050600073ffffffffffffffffffffffffffffffffffffffff168173ffffffffffffffffffffffffffffffffffffffff1614156114fe57600080fd5b6000600460008373ffffffffffffffffffffffffffffffffffffffff1673ffffffffffffffffffffffffffffffffffffffff168152602001908152602001600020905060648160040160149054906101000a900467ffffffffffffffff166115669190613770565b67ffffffffffffffff1643111561157c57600080fd5b60008060008084600401601c9054906101000a900463ffffffff1663ffffffff1667ffffffffffffffff8111156115b6576115b5613bf9565b5b6040519080825280602002602001820160405280156115e45781602001602082028036833780820191505090505b509050600085600401601c9054906101000a900463ffffffff1663ffffffff1667ffffffffffffffff81111561161d5761161c613bf9565b5b60405190808252806020026020018201604052801561164b5781602001602082028036833780820191505090505b50905060008660040160009054906101000a900473ffffffffffffffffffffffffffffffffffffffff169050600093505b86600401601c9054906101000a900463ffffffff1663ffffffff168463ffffffff16101561192957866001015486126116b457611929565b86600201546116c290613b23565b86136116cd57611929565b6002898563ffffffff16815181106116e8576116e7613bca565b5b60200260200101516116fa9190613af2565b838563ffffffff168151811061171357611712613bca565b5b602002602001019060ff16908160ff16815250506001838563ffffffff168151811061174257611741613bca565b5b602002602001015160ff1614801561176f5750600115158760050160009054906101000a900460ff161515145b1561181557612710612648886000015461178991906137df565b61179391906137ae565b8661179e9190613686565b9550612710614d5888600001546117b591906137df565b6117bf91906137ae565b856117ca919061371a565b9450612710614d5888600001546117e191906137df565b6117eb91906137ae565b828563ffffffff168151811061180457611803613bca565b5b602002602001018181525050611916565b6000838563ffffffff16815181106118305761182f613bca565b5b602002602001015160ff1614801561185d5750600015158760050160009054906101000a900460ff161515145b1561190357612710612648886000015461187791906137df565b61188191906137ae565b8661188c9190613686565b9550612710614d5888600001546118a391906137df565b6118ad91906137ae565b856118b8919061371a565b9450612710614d5888600001546118cf91906137df565b6118d991906137ae565b828563ffffffff16815181106118f2576118f1613bca565b5b602002602001018181525050611916565b8660000154866119139190613839565b95505b838061192190613ac5565b94505061167c565b86600001548488600401601c9054906101000a900463ffffffff1661194e9190613901565b63ffffffff1661195e91906137df565b85611969919061371a565b94508773ffffffffffffffffffffffffffffffffffffffff167f063ba2c91a70f945b84c24531b0de813d66f430987169cb7d878431c04cb00048860000154878487878a6040516119bf969594939291906134b5565b60405180910390a2600560008b815260200190815260200160002060006101000a81549073ffffffffffffffffffffffffffffffffffffffff0219169055600460008973ffffffffffffffffffffffffffffffffffffffff1673ffffffffffffffffffffffffffffffffffffffff1681526020019081526020016000206000808201600090556001820160009055600282016000905560038201600090556004820160006101000a81549073ffffffffffffffffffffffffffffffffffffffff02191690556004820160146101000a81549067ffffffffffffffff021916905560048201601c6101000a81549063ffffffff02191690556005820160006101000a81549060ff0219169055505060008514611ae057611adf8886836121a8565b5b50505050505050505050565b60026000541415611b32576040517f08c379a0000000000000000000000000000000000000000000000000000000008152600401611b299061339d565b60405180910390fd5b6002600081905550565b611bbd8363a9059cbb60e01b8484604051602401611b5b9291906131fc565b604051602081830303815290604052907bffffffffffffffffffffffffffffffffffffffffffffffffffffffff19166020820180517bffffffffffffffffffffffffffffffffffffffffffffffffffffffff838183161783525050505061241d565b505050565b6001600081905550565b60008073ffffffffffffffffffffffffffffffffffffffff168273ffffffffffffffffffffffffffffffffffffffff161415611c0a57479050611d21565b60001515600660008473ffffffffffffffffffffffffffffffffffffffff1673ffffffffffffffffffffffffffffffffffffffff16815260200190815260200160002060009054906101000a900460ff1615151415611c95576040517fc1ab6dc100000000000000000000000000000000000000000000000000000000815260040160405180910390fd5b8173ffffffffffffffffffffffffffffffffffffffff166370a08231306040518263ffffffff1660e01b8152600401611cce9190613158565b60206040518083038186803b158015611ce657600080fd5b505afa158015611cfa573d6000803e3d6000fd5b505050506040513d601f19601f82011682018060405250810190611d1e9190612afe565b90505b60006103e8600b83611d3391906137df565b611d3d91906137ae565b905080841115611d865783816040517fd53662aa000000000000000000000000000000000000000000000000000000008152600401611d7d92919061348c565b60405180910390fd5b50505050565b600080841415611dc8576040517f07375c8400000000000000000000000000000000000000000000000000000000815260040160405180910390fd5b611dd1836110c2565b9050600073ffffffffffffffffffffffffffffffffffffffff168573ffffffffffffffffffffffffffffffffffffffff161415611e89578084611e14919061371a565b341015611e65578084611e27919061371a565b346040517fde9b74a1000000000000000000000000000000000000000000000000000000008152600401611e5c92919061348c565b60405180910390fd5b611e848482611e74919061371a565b34611e7f91906138cd565b6124e5565b611f12565b80341015611ed05780346040517fde9b74a1000000000000000000000000000000000000000000000000000000008152600401611ec792919061348c565b60405180910390fd5b611efd8230868873ffffffffffffffffffffffffffffffffffffffff1661259b909392919063ffffffff16565b611f118134611f0c91906138cd565b6124e5565b5b8060016000828254611f24919061371a565b92505081905550949350505050565b60007f000000000000000000000000000000000000000000000000000000000000000073ffffffffffffffffffffffffffffffffffffffff16635d3b1d307f0000000000000000000000000000000000000000000000000000000000000000600260009054906101000a900467ffffffffffffffff166003622625a0876040518663ffffffff1660e01b8152600401611fd0959493929190613277565b602060405180830381600087803b158015611fea57600080fd5b505af1158015611ffe573d6000803e3d6000fd5b505050506040513d601f19601f820116820180604052508101906120229190612afe565b9050919050565b600073ffffffffffffffffffffffffffffffffffffffff168173ffffffffffffffffffffffffffffffffffffffff1614156121075760008373ffffffffffffffffffffffffffffffffffffffff168360405161208490613143565b60006040518083038185875af1925050503d80600081146120c1576040519150601f19603f3d011682016040523d82523d6000602084013e6120c6565b606091505b5050905080612101576040517f90b8ec1800000000000000000000000000000000000000000000000000000000815260040160405180910390fd5b50612133565b61213283838373ffffffffffffffffffffffffffffffffffffffff16611b3c9092919063ffffffff16565b5b505050565b80600260006101000a81548167ffffffffffffffff021916908367ffffffffffffffff16021790555050565b80600260086101000a81548173ffffffffffffffffffffffffffffffffffffffff021916908373ffffffffffffffffffffffffffffffffffffffff16021790555050565b600073ffffffffffffffffffffffffffffffffffffffff168173ffffffffffffffffffffffffffffffffffffffff1614156123ec5760008373ffffffffffffffffffffffffffffffffffffffff168360405161220390613143565b60006040518083038185875af1925050503d8060008114612240576040519150601f19603f3d011682016040523d82523d6000602084013e612245565b606091505b50509050806123e6576000600360009054906101000a900473ffffffffffffffffffffffffffffffffffffffff1673ffffffffffffffffffffffffffffffffffffffff16846040516024016040516020818303038152906040527fd0e30db0000000000000000000000000000000000000000000000000000000007bffffffffffffffffffffffffffffffffffffffffffffffffffffffff19166020820180517bffffffffffffffffffffffffffffffffffffffffffffffffffffffff838183161783525050505060405161231a919061312c565b60006040518083038185875af1925050503d8060008114612357576040519150601f19603f3d011682016040523d82523d6000602084013e61235c565b606091505b5050905080612397576040517f90b8ec1800000000000000000000000000000000000000000000000000000000815260040160405180910390fd5b6123e48585600360009054906101000a900473ffffffffffffffffffffffffffffffffffffffff1673ffffffffffffffffffffffffffffffffffffffff16611b3c9092919063ffffffff16565b505b50612418565b61241783838373ffffffffffffffffffffffffffffffffffffffff16611b3c9092919063ffffffff16565b5b505050565b600061247f826040518060400160405280602081526020017f5361666545524332303a206c6f772d6c6576656c2063616c6c206661696c65648152508573ffffffffffffffffffffffffffffffffffffffff166126249092919063ffffffff16565b90506000815114806124a15750808060200190518101906124a09190612aa4565b5b6124e0576040517f08c379a00000000000000000000000000000000000000000000000000000000081526004016124d79061337d565b60405180910390fd5b505050565b60008114156124f357612598565b60003373ffffffffffffffffffffffffffffffffffffffff168260405161251990613143565b60006040518083038185875af1925050503d8060008114612556576040519150601f19603f3d011682016040523d82523d6000602084013e61255b565b606091505b5050905080612596576040517ff0c49d4400000000000000000000000000000000000000000000000000000000815260040160405180910390fd5b505b50565b61261e846323b872dd60e01b8585856040516024016125bc9392919061319c565b604051602081830303815290604052907bffffffffffffffffffffffffffffffffffffffffffffffffffffffff19166020820180517bffffffffffffffffffffffffffffffffffffffffffffffffffffffff838183161783525050505061241d565b50505050565b6060612633848460008561263c565b90509392505050565b606082471015612681576040517f08c379a00000000000000000000000000000000000000000000000000000000081526004016126789061333d565b60405180910390fd5b6000808673ffffffffffffffffffffffffffffffffffffffff1685876040516126aa919061312c565b60006040518083038185875af1925050503d80600081146126e7576040519150601f19603f3d011682016040523d82523d6000602084013e6126ec565b606091505b50915091506126fd87838387612709565b92505050949350505050565b6060831561276c57600083511415612764576127248561277f565b612763576040517f08c379a000000000000000000000000000000000000000000000000000000000815260040161275a9061335d565b60405180910390fd5b5b829050612777565b61277683836127a2565b5b949350505050565b6000808273ffffffffffffffffffffffffffffffffffffffff163b119050919050565b6000825111156127b55781518083602001fd5b806040517f08c379a00000000000000000000000000000000000000000000000000000000081526004016127e9919061331b565b60405180910390fd5b60405180610100016040528060008152602001600081526020016000815260200160008152602001600073ffffffffffffffffffffffffffffffffffffffff168152602001600067ffffffffffffffff168152602001600063ffffffff1681526020016000151581525090565b600061287261286d846135b6565b613591565b9050808382526020820190508285602086028201111561289557612894613c2d565b5b60005b858110156128c557816128ab8882612966565b845260208401935060208301925050600181019050612898565b5050509392505050565b6000813590506128de81613d40565b92915050565b600082601f8301126128f9576128f8613c28565b5b813561290984826020860161285f565b91505092915050565b60008135905061292181613d57565b92915050565b60008151905061293681613d57565b92915050565b60008151905061294b81613d6e565b92915050565b60008151905061296081613d85565b92915050565b60008135905061297581613d9c565b92915050565b60008151905061298a81613d9c565b92915050565b60008135905061299f81613db3565b92915050565b6000815190506129b481613db3565b92915050565b6000813590506129c981613dca565b92915050565b6000815190506129de81613de1565b92915050565b6000602082840312156129fa576129f9613c37565b5b6000612a08848285016128cf565b91505092915050565b60008060408385031215612a2857612a27613c37565b5b6000612a36858286016128cf565b9250506020612a4785828601612912565b9150509250929050565b600080600060608486031215612a6a57612a69613c37565b5b6000612a78868287016128cf565b9350506020612a8986828701612966565b9250506040612a9a868287016128cf565b9150509250925092565b600060208284031215612aba57612ab9613c37565b5b6000612ac884828501612927565b91505092915050565b600060208284031215612ae757612ae6613c37565b5b6000612af584828501612966565b91505092915050565b600060208284031215612b1457612b13613c37565b5b6000612b228482850161297b565b91505092915050565b60008060008060008060c08789031215612b4857612b47613c37565b5b6000612b5689828a01612966565b9650506020612b6789828a016128cf565b9550506040612b7889828a01612912565b9450506060612b8989828a01612990565b9350506080612b9a89828a01612966565b92505060a0612bab89828a01612966565b9150509295509295509295565b60008060408385031215612bcf57612bce613c37565b5b6000612bdd85828601612966565b925050602083013567ffffffffffffffff811115612bfe57612bfd613c32565b5b612c0a858286016128e4565b9150509250929050565b60008060008060008060008060006101208a8c031215612c3757612c36613c37565b5b6000612c458c828d016129a5565b9950506020612c568c828d016129a5565b9850506040612c678c828d016129a5565b9750506060612c788c828d016129a5565b9650506080612c898c828d016129a5565b95505060a0612c9a8c828d01612951565b94505060c0612cab8c828d01612951565b93505060e0612cbc8c828d01612951565b925050610100612cce8c828d01612951565b9150509295985092959850929598565b600060208284031215612cf457612cf3613c37565b5b6000612d02848285016129ba565b91505092915050565b600080600080600060a08688031215612d2757612d26613c37565b5b6000612d35888289016129cf565b9550506020612d468882890161293c565b9450506040612d578882890161297b565b9350506060612d688882890161297b565b9250506080612d79888289016129cf565b9150509295509295909350565b6000612d9283836130b4565b60208301905092915050565b6000612daa838361311d565b60208301905092915050565b612dbf81613935565b82525050565b612dce81613935565b82525050565b6000612ddf82613602565b612de98185613648565b9350612df4836135e2565b8060005b83811015612e25578151612e0c8882612d86565b9750612e178361362e565b925050600181019050612df8565b5085935050505092915050565b6000612e3d8261360d565b612e478185613659565b9350612e52836135f2565b8060005b83811015612e83578151612e6a8882612d9e565b9750612e758361363b565b925050600181019050612e56565b5085935050505092915050565b612e9981613947565b82525050565b612ea881613947565b82525050565b612eb781613953565b82525050565b6000612ec882613618565b612ed2818561366a565b9350612ee2818560208601613a61565b80840191505092915050565b612ef7816139f5565b82525050565b612f0681613a07565b82525050565b612f1581613a19565b82525050565b6000612f2682613623565b612f308185613675565b9350612f40818560208601613a61565b612f4981613c3c565b840191505092915050565b6000612f61602683613675565b9150612f6c82613c4d565b604082019050919050565b6000612f8460008361366a565b9150612f8f82613c9c565b600082019050919050565b6000612fa7601d83613675565b9150612fb282613c9f565b602082019050919050565b6000612fca602a83613675565b9150612fd582613cc8565b604082019050919050565b6000612fed601f83613675565b9150612ff882613d17565b602082019050919050565b6101008201600082015161301a60008501826130b4565b50602082015161302d60208501826130b4565b50604082015161304060408501826130b4565b50606082015161305360608501826130b4565b5060808201516130666080850182612db6565b5060a082015161307960a08501826130ff565b5060c082015161308c60c08501826130d2565b5060e082015161309f60e0850182612e90565b50505050565b6130ae81613967565b82525050565b6130bd816139a4565b82525050565b6130cc816139a4565b82525050565b6130db816139ae565b82525050565b6130ea816139ae565b82525050565b6130f981613a4f565b82525050565b613108816139be565b82525050565b613117816139be565b82525050565b613126816139d2565b82525050565b60006131388284612ebd565b915081905092915050565b600061314e82612f77565b9150819050919050565b600060208201905061316d6000830184612dc5565b92915050565b60006040820190506131886000830185612dc5565b6131956020830184612dc5565b9392505050565b60006060820190506131b16000830186612dc5565b6131be6020830185612dc5565b6131cb60408301846130c3565b949350505050565b60006040820190506131e86000830185612dc5565b6131f56020830184612e9f565b9392505050565b60006040820190506132116000830185612dc5565b61321e60208301846130c3565b9392505050565b600060608201905061323a6000830186612dc5565b61324760208301856130c3565b6132546040830184612dc5565b949350505050565b60006020820190506132716000830184612e9f565b92915050565b600060a08201905061328c6000830188612eae565b613299602083018761310e565b6132a660408301866130a5565b6132b360608301856130e1565b6132c060808301846130e1565b9695505050505050565b60006020820190506132df6000830184612eee565b92915050565b60006020820190506132fa6000830184612efd565b92915050565b60006020820190506133156000830184612f0c565b92915050565b600060208201905081810360008301526133358184612f1b565b905092915050565b6000602082019050818103600083015261335681612f54565b9050919050565b6000602082019050818103600083015261337681612f9a565b9050919050565b6000602082019050818103600083015261339681612fbd565b9050919050565b600060208201905081810360008301526133b681612fe0565b9050919050565b6000610100820190506133d36000830184613003565b92915050565b60006020820190506133ee60008301846130c3565b92915050565b600060408201905061340960008301856130c3565b6134166020830184612dc5565b9392505050565b600060e082019050613432600083018a6130c3565b61343f6020830189612dc5565b61344c6040830188612e9f565b61345960608301876130e1565b61346660808301866130c3565b61347360a08301856130c3565b61348060c08301846130c3565b98975050505050505050565b60006040820190506134a160008301856130c3565b6134ae60208301846130c3565b9392505050565b600060c0820190506134ca60008301896130c3565b6134d760208301886130c3565b6134e46040830187612dc5565b81810360608301526134f68186612e32565b9050818103608083015261350a8185612dd4565b905061351960a08301846130e1565b979650505050505050565b600060408201905061353960008301856130c3565b61354660208301846130f0565b9392505050565b6000602082019050613562600083018461310e565b92915050565b600060408201905061357d600083018561310e565b61358a602083018461310e565b9392505050565b600061359b6135ac565b90506135a78282613a94565b919050565b6000604051905090565b600067ffffffffffffffff8211156135d1576135d0613bf9565b5b602082029050602081019050919050565b6000819050602082019050919050565b6000819050602082019050919050565b600081519050919050565b600081519050919050565b600081519050919050565b600081519050919050565b6000602082019050919050565b6000602082019050919050565b600082825260208201905092915050565b600082825260208201905092915050565b600081905092915050565b600082825260208201905092915050565b60006136918261395d565b915061369c8361395d565b9250817f7fffffffffffffffffffffffffffffffffffffffffffffffffffffffffffffff038313600083121516156136d7576136d6613b6c565b5b817f800000000000000000000000000000000000000000000000000000000000000003831260008312161561370f5761370e613b6c565b5b828201905092915050565b6000613725826139a4565b9150613730836139a4565b9250827fffffffffffffffffffffffffffffffffffffffffffffffffffffffffffffffff0382111561376557613764613b6c565b5b828201905092915050565b600061377b826139be565b9150613786836139be565b92508267ffffffffffffffff038211156137a3576137a2613b6c565b5b828201905092915050565b60006137b9826139a4565b91506137c4836139a4565b9250826137d4576137d3613b9b565b5b828204905092915050565b60006137ea826139a4565b91506137f5836139a4565b9250817fffffffffffffffffffffffffffffffffffffffffffffffffffffffffffffffff048311821515161561382e5761382d613b6c565b5b828202905092915050565b60006138448261395d565b915061384f8361395d565b9250827f80000000000000000000000000000000000000000000000000000000000000000182126000841215161561388a57613889613b6c565b5b827f7fffffffffffffffffffffffffffffffffffffffffffffffffffffffffffffff0182136000841216156138c2576138c1613b6c565b5b828203905092915050565b60006138d8826139a4565b91506138e3836139a4565b9250828210156138f6576138f5613b6c565b5b828203905092915050565b600061390c826139ae565b9150613917836139ae565b92508282101561392a57613929613b6c565b5b828203905092915050565b600061394082613975565b9050919050565b60008115159050919050565b6000819050919050565b6000819050919050565b600061ffff82169050919050565b600073ffffffffffffffffffffffffffffffffffffffff82169050919050565b600062ffffff82169050919050565b6000819050919050565b600063ffffffff82169050919050565b600067ffffffffffffffff82169050919050565b600060ff82169050919050565b600069ffffffffffffffffffff82169050919050565b6000613a0082613a2b565b9050919050565b6000613a1282613a2b565b9050919050565b6000613a24826139a4565b9050919050565b6000613a3682613a3d565b9050919050565b6000613a4882613975565b9050919050565b6000613a5a826139be565b9050919050565b60005b83811015613a7f578082015181840152602081019050613a64565b83811115613a8e576000848401525b50505050565b613a9d82613c3c565b810181811067ffffffffffffffff82111715613abc57613abb613bf9565b5b80604052505050565b6000613ad0826139ae565b915063ffffffff821415613ae757613ae6613b6c565b5b600182019050919050565b6000613afd826139a4565b9150613b08836139a4565b925082613b1857613b17613b9b565b5b828206905092915050565b6000613b2e8261395d565b91507f8000000000000000000000000000000000000000000000000000000000000000821415613b6157613b60613b6c565b5b816000039050919050565b7f4e487b7100000000000000000000000000000000000000000000000000000000600052601160045260246000fd5b7f4e487b7100000000000000000000000000000000000000000000000000000000600052601260045260246000fd5b7f4e487b7100000000000000000000000000000000000000000000000000000000600052603260045260246000fd5b7f4e487b7100000000000000000000000000000000000000000000000000000000600052604160045260246000fd5b600080fd5b600080fd5b600080fd5b600080fd5b6000601f19601f8301169050919050565b7f416464726573733a20696e73756666696369656e742062616c616e636520666f60008201527f722063616c6c0000000000000000000000000000000000000000000000000000602082015250565b50565b7f416464726573733a2063616c6c20746f206e6f6e2d636f6e7472616374000000600082015250565b7f5361666545524332303a204552433230206f7065726174696f6e20646964206e60008201527f6f74207375636365656400000000000000000000000000000000000000000000602082015250565b7f5265656e7472616e637947756172643a207265656e7472616e742063616c6c00600082015250565b613d4981613935565b8114613d5457600080fd5b50565b613d6081613947565b8114613d6b57600080fd5b50565b613d778161395d565b8114613d8257600080fd5b50565b613d8e81613995565b8114613d9957600080fd5b50565b613da5816139a4565b8114613db057600080fd5b50565b613dbc816139ae565b8114613dc757600080fd5b50565b613dd3816139be565b8114613dde57600080fd5b50565b613dea816139df565b8114613df557600080fd5b5056fea2646970667358221220b61c66a93e7b2f7b2d0e4c482639c2fd69bc689cf68585f85f29c78bb736c66a64736f6c63430008070033",
  "linkReferences": {},
  "deployedLinkReferences": {}
}