{
  "_format": "hh-sol-artifact-1",
  "contractName": "Common",
  "sourceName": "contracts/Common.sol",
  "abi": [
    {
      "inputs": [
        {
          "internalType": "uint64",
          "name": "subscriptionId",
          "type": "uint64"
        },
        {
          "internalType": "address",
          "name": "link_eth_feed",
          "type": "address"
        },
        {
          "internalType": "address",
          "name": "_vrf",
          "type": "address"
        },
        {
          "internalType": "bytes32",
          "name": "_keyHash",
          "type": "bytes32"
        },
        {
          "internalType": "address",
          "name": "_wrappedToken",
          "type": "address"
        }
      ],
      "stateMutability": "nonpayable",
      "type": "constructor"
    },
    {
      "inputs": [],
      "name": "InvalidToken",
      "type": "error"
    },
    {
      "inputs": [
        {
          "internalType": "uint256",
          "name": "required",
          "type": "uint256"
        },
        {
          "internalType": "uint256",
          "name": "sent",
          "type": "uint256"
        }
      ],
      "name": "InvalidValue",
      "type": "error"
    },
    {
      "inputs": [
        {
          "internalType": "address",
          "name": "want",
          "type": "address"
        },
        {
          "internalType": "address",
          "name": "have",
          "type": "address"
        }
      ],
      "name": "NotOwner",
      "type": "error"
    },
    {
      "inputs": [],
      "name": "RefundFailed",
      "type": "error"
    },
    {
      "inputs": [],
      "name": "TransferFailed",
      "type": "error"
    },
    {
      "inputs": [],
      "name": "ZeroWager",
      "type": "error"
    },
    {
      "inputs": [],
      "name": "COORDINATOR",
      "outputs": [
        {
          "internalType": "contract IVRFCoordinatorV2",
          "name": "",
          "type": "address"
        }
      ],
      "stateMutability": "view",
      "type": "function"
    },
    {
      "inputs": [],
      "name": "LINK_ETH_FEED",
      "outputs": [
        {
          "internalType": "contract AggregatorV3Interface",
          "name": "",
          "type": "address"
        }
      ],
      "stateMutability": "view",
      "type": "function"
    },
    {
      "inputs": [],
      "name": "VRFFees",
      "outputs": [
        {
          "internalType": "uint256",
          "name": "",
          "type": "uint256"
        }
      ],
      "stateMutability": "view",
      "type": "function"
    },
    {
      "inputs": [
        {
          "internalType": "uint256",
          "name": "gasAmount",
          "type": "uint256"
        }
      ],
      "name": "getVRFFee",
      "outputs": [
        {
          "internalType": "uint256",
          "name": "fee",
          "type": "uint256"
        }
      ],
      "stateMutability": "view",
      "type": "function"
    },
    {
      "inputs": [],
      "name": "owner",
      "outputs": [
        {
          "internalType": "address",
          "name": "",
          "type": "address"
        }
      ],
      "stateMutability": "view",
      "type": "function"
    },
    {
      "inputs": [],
      "name": "s_subscriptionId",
      "outputs": [
        {
          "internalType": "uint64",
          "name": "",
          "type": "uint64"
        }
      ],
      "stateMutability": "view",
      "type": "function"
    },
    {
      "inputs": [
        {
          "internalType": "address",
          "name": "to",
          "type": "address"
        }
      ],
      "name": "transferFees",
      "outputs": [],
      "stateMutability": "nonpayable",
      "type": "function"
    },
    {
      "inputs": [],
      "name": "wrappedToken",
      "outputs": [
        {
          "internalType": "address",
          "name": "",
          "type": "address"
        }
      ],
      "stateMutability": "view",
      "type": "function"
    }
  ],
  "bytecode": "0x60e06040523480156200001157600080fd5b5060405162000f3a38038062000f3a8339818101604052810190620000379190620001b0565b60016000819055508273ffffffffffffffffffffffffffffffffffffffff1660a08173ffffffffffffffffffffffffffffffffffffffff1660601b815250508373ffffffffffffffffffffffffffffffffffffffff1660808173ffffffffffffffffffffffffffffffffffffffff1660601b8152505084600260006101000a81548167ffffffffffffffff021916908367ffffffffffffffff16021790555033600260086101000a81548173ffffffffffffffffffffffffffffffffffffffff021916908373ffffffffffffffffffffffffffffffffffffffff1602179055508160c0818152505080600360006101000a81548173ffffffffffffffffffffffffffffffffffffffff021916908373ffffffffffffffffffffffffffffffffffffffff1602179055505050505050620002dd565b6000815190506200017c816200028f565b92915050565b6000815190506200019381620002a9565b92915050565b600081519050620001aa81620002c3565b92915050565b600080600080600060a08688031215620001cf57620001ce6200028a565b5b6000620001df8882890162000199565b9550506020620001f2888289016200016b565b945050604062000205888289016200016b565b9350506060620002188882890162000182565b92505060806200022b888289016200016b565b9150509295509295909350565b6000620002458262000256565b9050919050565b6000819050919050565b600073ffffffffffffffffffffffffffffffffffffffff82169050919050565b600067ffffffffffffffff82169050919050565b600080fd5b6200029a8162000238565b8114620002a657600080fd5b50565b620002b4816200024c565b8114620002c057600080fd5b50565b620002ce8162000276565b8114620002da57600080fd5b50565b60805160601c60a05160601c60c051610c1c6200031e600039600050506000818161018f01526103970152600081816102f101526104fe0152610c1c6000f3fe608060405234801561001057600080fd5b50600436106100885760003560e01c80638d7c16d21161005b5780638d7c16d2146101155780638da5cb5b14610133578063996c6cc314610151578063ad1783611461016f57610088565b80633b2bcbf11461008d57806363dc4ef5146100ab5780638ac00021146100c75780638bd16114146100e5575b600080fd5b61009561018d565b6040516100a29190610888565b60405180910390f35b6100c560048036038101906100c0919061060d565b6101b1565b005b6100cf6102d2565b6040516100dc91906108de565b60405180910390f35b6100ff60048036038101906100fa919061063a565b6102ec565b60405161010c91906108c3565b60405180910390f35b61011d6104aa565b60405161012a91906108c3565b60405180910390f35b61013b6104b0565b6040516101489190610852565b60405180910390f35b6101596104d6565b6040516101669190610852565b60405180910390f35b6101776104fc565b604051610184919061086d565b60405180910390f35b7f000000000000000000000000000000000000000000000000000000000000000081565b6101b9610520565b600260089054906101000a900473ffffffffffffffffffffffffffffffffffffffff1673ffffffffffffffffffffffffffffffffffffffff163373ffffffffffffffffffffffffffffffffffffffff161461021357600080fd5b60006001549050600060018190555060008273ffffffffffffffffffffffffffffffffffffffff16826040516102489061083d565b60006040518083038185875af1925050503d8060008114610285576040519150601f19603f3d011682016040523d82523d6000602084013e61028a565b606091505b50509050806102c5576040517f90b8ec1800000000000000000000000000000000000000000000000000000000815260040160405180910390fd5b50506102cf610570565b50565b600260009054906101000a900467ffffffffffffffff1681565b6000807f000000000000000000000000000000000000000000000000000000000000000073ffffffffffffffffffffffffffffffffffffffff1663feaf968c6040518163ffffffff1660e01b815260040160a06040518083038186803b15801561035557600080fd5b505afa158015610369573d6000803e3d6000fd5b505050506040513d601f19601f8201168201806040525081019061038d9190610731565b50505091505060007f000000000000000000000000000000000000000000000000000000000000000073ffffffffffffffffffffffffffffffffffffffff16635fbbc0d26040518163ffffffff1660e01b81526004016101206040518083038186803b1580156103fc57600080fd5b505afa158015610410573d6000803e3d6000fd5b505050506040513d601f19601f820116820180604052508101906104349190610667565b50505050505050509050670de0b6b3a7640000828263ffffffff1664e8d4a5100061045f919061099c565b610469919061099c565b610473919061096b565b600a8560123a610483919061099c565b61048d919061099c565b610497919061096b565b6104a19190610915565b92505050919050565b60015481565b600260089054906101000a900473ffffffffffffffffffffffffffffffffffffffff1681565b600360009054906101000a900473ffffffffffffffffffffffffffffffffffffffff1681565b7f000000000000000000000000000000000000000000000000000000000000000081565b60026000541415610566576040517f08c379a000000000000000000000000000000000000000000000000000000000815260040161055d906108a3565b60405180910390fd5b6002600081905550565b6001600081905550565b60008135905061058981610b5c565b92915050565b60008151905061059e81610b73565b92915050565b6000815190506105b381610b8a565b92915050565b6000813590506105c881610ba1565b92915050565b6000815190506105dd81610ba1565b92915050565b6000815190506105f281610bb8565b92915050565b60008151905061060781610bcf565b92915050565b60006020828403121561062357610622610b2b565b5b60006106318482850161057a565b91505092915050565b6000602082840312156106505761064f610b2b565b5b600061065e848285016105b9565b91505092915050565b60008060008060008060008060006101208a8c03121561068a57610689610b2b565b5b60006106988c828d016105e3565b99505060206106a98c828d016105e3565b98505060406106ba8c828d016105e3565b97505060606106cb8c828d016105e3565b96505060806106dc8c828d016105e3565b95505060a06106ed8c828d016105a4565b94505060c06106fe8c828d016105a4565b93505060e061070f8c828d016105a4565b9250506101006107218c828d016105a4565b9150509295985092959850929598565b600080600080600060a0868803121561074d5761074c610b2b565b5b600061075b888289016105f8565b955050602061076c8882890161058f565b945050604061077d888289016105ce565b935050606061078e888289016105ce565b925050608061079f888289016105f8565b9150509295509295909350565b6107b5816109f6565b82525050565b6107c481610a85565b82525050565b6107d381610a97565b82525050565b60006107e66000836108f9565b91506107f182610b30565b600082019050919050565b6000610809601f83610904565b915061081482610b33565b602082019050919050565b61082881610a41565b82525050565b61083781610a5b565b82525050565b6000610848826107d9565b9150819050919050565b600060208201905061086760008301846107ac565b92915050565b600060208201905061088260008301846107bb565b92915050565b600060208201905061089d60008301846107ca565b92915050565b600060208201905081810360008301526108bc816107fc565b9050919050565b60006020820190506108d8600083018461081f565b92915050565b60006020820190506108f3600083018461082e565b92915050565b600081905092915050565b600082825260208201905092915050565b600061092082610a41565b915061092b83610a41565b9250827fffffffffffffffffffffffffffffffffffffffffffffffffffffffffffffffff038211156109605761095f610acd565b5b828201905092915050565b600061097682610a41565b915061098183610a41565b92508261099157610990610afc565b5b828204905092915050565b60006109a782610a41565b91506109b283610a41565b9250817fffffffffffffffffffffffffffffffffffffffffffffffffffffffffffffffff04831182151516156109eb576109ea610acd565b5b828202905092915050565b6000610a0182610a12565b9050919050565b6000819050919050565b600073ffffffffffffffffffffffffffffffffffffffff82169050919050565b600062ffffff82169050919050565b6000819050919050565b600063ffffffff82169050919050565b600067ffffffffffffffff82169050919050565b600069ffffffffffffffffffff82169050919050565b6000610a9082610aa9565b9050919050565b6000610aa282610aa9565b9050919050565b6000610ab482610abb565b9050919050565b6000610ac682610a12565b9050919050565b7f4e487b7100000000000000000000000000000000000000000000000000000000600052601160045260246000fd5b7f4e487b7100000000000000000000000000000000000000000000000000000000600052601260045260246000fd5b600080fd5b50565b7f5265656e7472616e637947756172643a207265656e7472616e742063616c6c00600082015250565b610b65816109f6565b8114610b7057600080fd5b50565b610b7c81610a08565b8114610b8757600080fd5b50565b610b9381610a32565b8114610b9e57600080fd5b50565b610baa81610a41565b8114610bb557600080fd5b50565b610bc181610a4b565b8114610bcc57600080fd5b50565b610bd881610a6f565b8114610be357600080fd5b5056fea2646970667358221220b2269f5726a615692d0b23c1b0d8a70dbcd2c468610c4d054f4f52b2a07a1c2264736f6c63430008070033",
  "linkReferences": {},
  "deployedLinkReferences": {}
}