{"contracts/Common.sol":{"Common":{"abi":[{"inputs":[{"internalType":"uint64","name":"subscriptionId","type":"uint64"},{"internalType":"address","name":"link_eth_feed","type":"address"},{"internalType":"address","name":"_vrf","type":"address"},{"internalType":"bytes32","name":"_keyHash","type":"bytes32"},{"internalType":"address","name":"_wrappedToken","type":"address"}],"stateMutability":"nonpayable","type":"constructor"},{"inputs":[],"name":"InvalidToken","type":"error"},{"inputs":[{"internalType":"uint256","name":"required","type":"uint256"},{"internalType":"uint256","name":"sent","type":"uint256"}],"name":"InvalidValue","type":"error"},{"inputs":[{"internalType":"address","name":"want","type":"address"},{"internalType":"address","name":"have","type":"address"}],"name":"NotOwner","type":"error"},{"inputs":[],"name":"RefundFailed","type":"error"},{"inputs":[],"name":"TransferFailed","type":"error"},{"inputs":[],"name":"ZeroWager","type":"error"},{"inputs":[],"name":"COORDINATOR","outputs":[{"internalType":"contract IVRFCoordinatorV2","name":"","type":"address"}],"stateMutability":"view","type":"function"},{"inputs":[],"name":"LINK_ETH_FEED","outputs":[{"internalType":"contract AggregatorV3Interface","name":"","type":"address"}],"stateMutability":"view","type":"function"},{"inputs":[],"name":"VRFFees","outputs":[{"internalType":"uint256","name":"","type":"uint256"}],"stateMutability":"view","type":"function"},{"inputs":[{"internalType":"uint256","name":"gasAmount","type":"uint256"}],"name":"getVRFFee","outputs":[{"internalType":"uint256","name":"fee","type":"uint256"}],"stateMutability":"view","type":"function"},{"inputs":[],"name":"owner","outputs":[{"internalType":"address","name":"","type":"address"}],"stateMutability":"view","type":"function"},{"inputs":[],"name":"s_subscriptionId","outputs":[{"internalType":"uint64","name":"","type":"uint64"}],"stateMutability":"view","type":"function"},{"inputs":[{"internalType":"address","name":"to","type":"address"}],"name":"transferFees","outputs":[],"stateMutability":"nonpayable","type":"function"},{"inputs":[],"name":"wrappedToken","outputs":[{"internalType":"address","name":"","type":"address"}],"stateMutability":"view","type":"function"}],"evm":{"bytecode":{"linkReferences":{},"object":"60e06040523480156200001157600080fd5b5060405162000f3a38038062000f3a8339818101604052810190620000379190620001b0565b60016000819055508273ffffffffffffffffffffffffffffffffffffffff1660a08173ffffffffffffffffffffffffffffffffffffffff1660601b815250508373ffffffffffffffffffffffffffffffffffffffff1660808173ffffffffffffffffffffffffffffffffffffffff1660601b8152505084600260006101000a81548167ffffffffffffffff021916908367ffffffffffffffff16021790555033600260086101000a81548173ffffffffffffffffffffffffffffffffffffffff021916908373ffffffffffffffffffffffffffffffffffffffff1602179055508160c0818152505080600360006101000a81548173ffffffffffffffffffffffffffffffffffffffff021916908373ffffffffffffffffffffffffffffffffffffffff1602179055505050505050620002dd565b6000815190506200017c816200028f565b92915050565b6000815190506200019381620002a9565b92915050565b600081519050620001aa81620002c3565b92915050565b600080600080600060a08688031215620001cf57620001ce6200028a565b5b6000620001df8882890162000199565b9550506020620001f2888289016200016b565b945050604062000205888289016200016b565b9350506060620002188882890162000182565b92505060806200022b888289016200016b565b9150509295509295909350565b6000620002458262000256565b9050919050565b6000819050919050565b600073ffffffffffffffffffffffffffffffffffffffff82169050919050565b600067ffffffffffffffff82169050919050565b600080fd5b6200029a8162000238565b8114620002a657600080fd5b50565b620002b4816200024c565b8114620002c057600080fd5b50565b620002ce8162000276565b8114620002da57600080fd5b50565b60805160601c60a05160601c60c051610c1c6200031e600039600050506000818161018f01526103970152600081816102f101526104fe0152610c1c6000f3fe608060405234801561001057600080fd5b50600436106100885760003560e01c80638d7c16d21161005b5780638d7c16d2146101155780638da5cb5b14610133578063996c6cc314610151578063ad1783611461016f57610088565b80633b2bcbf11461008d57806363dc4ef5146100ab5780638ac00021146100c75780638bd16114146100e5575b600080fd5b61009561018d565b6040516100a29190610888565b60405180910390f35b6100c560048036038101906100c0919061060d565b6101b1565b005b6100cf6102d2565b6040516100dc91906108de565b60405180910390f35b6100ff60048036038101906100fa919061063a565b6102ec565b60405161010c91906108c3565b60405180910390f35b61011d6104aa565b60405161012a91906108c3565b60405180910390f35b61013b6104b0565b6040516101489190610852565b60405180910390f35b6101596104d6565b6040516101669190610852565b60405180910390f35b6101776104fc565b604051610184919061086d565b60405180910390f35b7f000000000000000000000000000000000000000000000000000000000000000081565b6101b9610520565b600260089054906101000a900473ffffffffffffffffffffffffffffffffffffffff1673ffffffffffffffffffffffffffffffffffffffff163373ffffffffffffffffffffffffffffffffffffffff161461021357600080fd5b60006001549050600060018190555060008273ffffffffffffffffffffffffffffffffffffffff16826040516102489061083d565b60006040518083038185875af1925050503d8060008114610285576040519150601f19603f3d011682016040523d82523d6000602084013e61028a565b606091505b50509050806102c5576040517f90b8ec1800000000000000000000000000000000000000000000000000000000815260040160405180910390fd5b50506102cf610570565b50565b600260009054906101000a900467ffffffffffffffff1681565b6000807f000000000000000000000000000000000000000000000000000000000000000073ffffffffffffffffffffffffffffffffffffffff1663feaf968c6040518163ffffffff1660e01b815260040160a06040518083038186803b15801561035557600080fd5b505afa158015610369573d6000803e3d6000fd5b505050506040513d601f19601f8201168201806040525081019061038d9190610731565b50505091505060007f000000000000000000000000000000000000000000000000000000000000000073ffffffffffffffffffffffffffffffffffffffff16635fbbc0d26040518163ffffffff1660e01b81526004016101206040518083038186803b1580156103fc57600080fd5b505afa158015610410573d6000803e3d6000fd5b505050506040513d601f19601f820116820180604052508101906104349190610667565b50505050505050509050670de0b6b3a7640000828263ffffffff1664e8d4a5100061045f919061099c565b610469919061099c565b610473919061096b565b600a8560123a610483919061099c565b61048d919061099c565b610497919061096b565b6104a19190610915565b92505050919050565b60015481565b600260089054906101000a900473ffffffffffffffffffffffffffffffffffffffff1681565b600360009054906101000a900473ffffffffffffffffffffffffffffffffffffffff1681565b7f000000000000000000000000000000000000000000000000000000000000000081565b60026000541415610566576040517f08c379a000000000000000000000000000000000000000000000000000000000815260040161055d906108a3565b60405180910390fd5b6002600081905550565b6001600081905550565b60008135905061058981610b5c565b92915050565b60008151905061059e81610b73565b92915050565b6000815190506105b381610b8a565b92915050565b6000813590506105c881610ba1565b92915050565b6000815190506105dd81610ba1565b92915050565b6000815190506105f281610bb8565b92915050565b60008151905061060781610bcf565b92915050565b60006020828403121561062357610622610b2b565b5b60006106318482850161057a565b91505092915050565b6000602082840312156106505761064f610b2b565b5b600061065e848285016105b9565b91505092915050565b60008060008060008060008060006101208a8c03121561068a57610689610b2b565b5b60006106988c828d016105e3565b99505060206106a98c828d016105e3565b98505060406106ba8c828d016105e3565b97505060606106cb8c828d016105e3565b96505060806106dc8c828d016105e3565b95505060a06106ed8c828d016105a4565b94505060c06106fe8c828d016105a4565b93505060e061070f8c828d016105a4565b9250506101006107218c828d016105a4565b9150509295985092959850929598565b600080600080600060a0868803121561074d5761074c610b2b565b5b600061075b888289016105f8565b955050602061076c8882890161058f565b945050604061077d888289016105ce565b935050606061078e888289016105ce565b925050608061079f888289016105f8565b9150509295509295909350565b6107b5816109f6565b82525050565b6107c481610a85565b82525050565b6107d381610a97565b82525050565b60006107e66000836108f9565b91506107f182610b30565b600082019050919050565b6000610809601f83610904565b915061081482610b33565b602082019050919050565b61082881610a41565b82525050565b61083781610a5b565b82525050565b6000610848826107d9565b9150819050919050565b600060208201905061086760008301846107ac565b92915050565b600060208201905061088260008301846107bb565b92915050565b600060208201905061089d60008301846107ca565b92915050565b600060208201905081810360008301526108bc816107fc565b9050919050565b60006020820190506108d8600083018461081f565b92915050565b60006020820190506108f3600083018461082e565b92915050565b600081905092915050565b600082825260208201905092915050565b600061092082610a41565b915061092b83610a41565b9250827fffffffffffffffffffffffffffffffffffffffffffffffffffffffffffffffff038211156109605761095f610acd565b5b828201905092915050565b600061097682610a41565b915061098183610a41565b92508261099157610990610afc565b5b828204905092915050565b60006109a782610a41565b91506109b283610a41565b9250817fffffffffffffffffffffffffffffffffffffffffffffffffffffffffffffffff04831182151516156109eb576109ea610acd565b5b828202905092915050565b6000610a0182610a12565b9050919050565b6000819050919050565b600073ffffffffffffffffffffffffffffffffffffffff82169050919050565b600062ffffff82169050919050565b6000819050919050565b600063ffffffff82169050919050565b600067ffffffffffffffff82169050919050565b600069ffffffffffffffffffff82169050919050565b6000610a9082610aa9565b9050919050565b6000610aa282610aa9565b9050919050565b6000610ab482610abb565b9050919050565b6000610ac682610a12565b9050919050565b7f4e487b7100000000000000000000000000000000000000000000000000000000600052601160045260246000fd5b7f4e487b7100000000000000000000000000000000000000000000000000000000600052601260045260246000fd5b600080fd5b50565b7f5265656e7472616e637947756172643a207265656e7472616e742063616c6c00600082015250565b610b65816109f6565b8114610b7057600080fd5b50565b610b7c81610a08565b8114610b8757600080fd5b50565b610b9381610a32565b8114610b9e57600080fd5b50565b610baa81610a41565b8114610bb557600080fd5b50565b610bc181610a4b565b8114610bcc57600080fd5b50565b610bd881610a6f565b8114610be357600080fd5b5056fea2646970667358221220b2269f5726a615692d0b23c1b0d8a70dbcd2c468610c4d054f4f52b2a07a1c2264736f6c63430008070033","opcodes":"PUSH1 0xE0 PUSH1 0x40 MSTORE CALLVALUE DUP1 ISZERO PUSH3 0x11 JUMPI PUSH1 0x0 DUP1 REVERT JUMPDEST POP PUSH1 0x40 MLOAD PUSH3 0xF3A CODESIZE SUB DUP1 PUSH3 0xF3A DUP4 CODECOPY DUP2 DUP2 ADD PUSH1 0x40 MSTORE DUP2 ADD SWAP1 PUSH3 0x37 SWAP2 SWAP1 PUSH3 0x1B0 JUMP JUMPDEST PUSH1 0x1 PUSH1 0x0 DUP2 SWAP1 SSTORE POP DUP3 PUSH20 0xFFFFFFFFFFFFFFFFFFFFFFFFFFFFFFFFFFFFFFFF AND PUSH1 0xA0 DUP2 PUSH20 0xFFFFFFFFFFFFFFFFFFFFFFFFFFFFFFFFFFFFFFFF AND PUSH1 0x60 SHL DUP2 MSTORE POP POP DUP4 PUSH20 0xFFFFFFFFFFFFFFFFFFFFFFFFFFFFFFFFFFFFFFFF AND PUSH1 0x80 DUP2 PUSH20 0xFFFFFFFFFFFFFFFFFFFFFFFFFFFFFFFFFFFFFFFF AND PUSH1 0x60 SHL DUP2 MSTORE POP POP DUP5 PUSH1 0x2 PUSH1 0x0 PUSH2 0x100 EXP DUP2 SLOAD DUP2 PUSH8 0xFFFFFFFFFFFFFFFF MUL NOT AND SWAP1 DUP4 PUSH8 0xFFFFFFFFFFFFFFFF AND MUL OR SWAP1 SSTORE POP CALLER PUSH1 0x2 PUSH1 0x8 PUSH2 0x100 EXP DUP2 SLOAD DUP2 PUSH20 0xFFFFFFFFFFFFFFFFFFFFFFFFFFFFFFFFFFFFFFFF MUL NOT AND SWAP1 DUP4 PUSH20 0xFFFFFFFFFFFFFFFFFFFFFFFFFFFFFFFFFFFFFFFF AND MUL OR SWAP1 SSTORE POP DUP2 PUSH1 0xC0 DUP2 DUP2 MSTORE POP POP DUP1 PUSH1 0x3 PUSH1 0x0 PUSH2 0x100 EXP DUP2 SLOAD DUP2 PUSH20 0xFFFFFFFFFFFFFFFFFFFFFFFFFFFFFFFFFFFFFFFF MUL NOT AND SWAP1 DUP4 PUSH20 0xFFFFFFFFFFFFFFFFFFFFFFFFFFFFFFFFFFFFFFFF AND MUL OR SWAP1 SSTORE POP POP POP POP POP POP PUSH3 0x2DD JUMP JUMPDEST PUSH1 0x0 DUP2 MLOAD SWAP1 POP PUSH3 0x17C DUP2 PUSH3 0x28F JUMP JUMPDEST SWAP3 SWAP2 POP POP JUMP JUMPDEST PUSH1 0x0 DUP2 MLOAD SWAP1 POP PUSH3 0x193 DUP2 PUSH3 0x2A9 JUMP JUMPDEST SWAP3 SWAP2 POP POP JUMP JUMPDEST PUSH1 0x0 DUP2 MLOAD SWAP1 POP PUSH3 0x1AA DUP2 PUSH3 0x2C3 JUMP JUMPDEST SWAP3 SWAP2 POP POP JUMP JUMPDEST PUSH1 0x0 DUP1 PUSH1 0x0 DUP1 PUSH1 0x0 PUSH1 0xA0 DUP7 DUP9 SUB SLT ISZERO PUSH3 0x1CF JUMPI PUSH3 0x1CE PUSH3 0x28A JUMP JUMPDEST JUMPDEST PUSH1 0x0 PUSH3 0x1DF DUP9 DUP3 DUP10 ADD PUSH3 0x199 JUMP JUMPDEST SWAP6 POP POP PUSH1 0x20 PUSH3 0x1F2 DUP9 DUP3 DUP10 ADD PUSH3 0x16B JUMP JUMPDEST SWAP5 POP POP PUSH1 0x40 PUSH3 0x205 DUP9 DUP3 DUP10 ADD PUSH3 0x16B JUMP JUMPDEST SWAP4 POP POP PUSH1 0x60 PUSH3 0x218 DUP9 DUP3 DUP10 ADD PUSH3 0x182 JUMP JUMPDEST SWAP3 POP POP PUSH1 0x80 PUSH3 0x22B DUP9 DUP3 DUP10 ADD PUSH3 0x16B JUMP JUMPDEST SWAP2 POP POP SWAP3 SWAP6 POP SWAP3 SWAP6 SWAP1 SWAP4 POP JUMP JUMPDEST PUSH1 0x0 PUSH3 0x245 DUP3 PUSH3 0x256 JUMP JUMPDEST SWAP1 POP SWAP2 SWAP1 POP JUMP JUMPDEST PUSH1 0x0 DUP2 SWAP1 POP SWAP2 SWAP1 POP JUMP JUMPDEST PUSH1 0x0 PUSH20 0xFFFFFFFFFFFFFFFFFFFFFFFFFFFFFFFFFFFFFFFF DUP3 AND SWAP1 POP SWAP2 SWAP1 POP JUMP JUMPDEST PUSH1 0x0 PUSH8 0xFFFFFFFFFFFFFFFF DUP3 AND SWAP1 POP SWAP2 SWAP1 POP JUMP JUMPDEST PUSH1 0x0 DUP1 REVERT JUMPDEST PUSH3 0x29A DUP2 PUSH3 0x238 JUMP JUMPDEST DUP2 EQ PUSH3 0x2A6 JUMPI PUSH1 0x0 DUP1 REVERT JUMPDEST POP JUMP JUMPDEST PUSH3 0x2B4 DUP2 PUSH3 0x24C JUMP JUMPDEST DUP2 EQ PUSH3 0x2C0 JUMPI PUSH1 0x0 DUP1 REVERT JUMPDEST POP JUMP JUMPDEST PUSH3 0x2CE DUP2 PUSH3 0x276 JUMP JUMPDEST DUP2 EQ PUSH3 0x2DA JUMPI PUSH1 0x0 DUP1 REVERT JUMPDEST POP JUMP JUMPDEST PUSH1 0x80 MLOAD PUSH1 0x60 SHR PUSH1 0xA0 MLOAD PUSH1 0x60 SHR PUSH1 0xC0 MLOAD PUSH2 0xC1C PUSH3 0x31E PUSH1 0x0 CODECOPY PUSH1 0x0 POP POP PUSH1 0x0 DUP2 DUP2 PUSH2 0x18F ADD MSTORE PUSH2 0x397 ADD MSTORE PUSH1 0x0 DUP2 DUP2 PUSH2 0x2F1 ADD MSTORE PUSH2 0x4FE ADD MSTORE PUSH2 0xC1C PUSH1 0x0 RETURN INVALID PUSH1 0x80 PUSH1 0x40 MSTORE CALLVALUE DUP1 ISZERO PUSH2 0x10 JUMPI PUSH1 0x0 DUP1 REVERT JUMPDEST POP PUSH1 0x4 CALLDATASIZE LT PUSH2 0x88 JUMPI PUSH1 0x0 CALLDATALOAD PUSH1 0xE0 SHR DUP1 PUSH4 0x8D7C16D2 GT PUSH2 0x5B JUMPI DUP1 PUSH4 0x8D7C16D2 EQ PUSH2 0x115 JUMPI DUP1 PUSH4 0x8DA5CB5B EQ PUSH2 0x133 JUMPI DUP1 PUSH4 0x996C6CC3 EQ PUSH2 0x151 JUMPI DUP1 PUSH4 0xAD178361 EQ PUSH2 0x16F JUMPI PUSH2 0x88 JUMP JUMPDEST DUP1 PUSH4 0x3B2BCBF1 EQ PUSH2 0x8D JUMPI DUP1 PUSH4 0x63DC4EF5 EQ PUSH2 0xAB JUMPI DUP1 PUSH4 0x8AC00021 EQ PUSH2 0xC7 JUMPI DUP1 PUSH4 0x8BD16114 EQ PUSH2 0xE5 JUMPI JUMPDEST PUSH1 0x0 DUP1 REVERT JUMPDEST PUSH2 0x95 PUSH2 0x18D JUMP JUMPDEST PUSH1 0x40 MLOAD PUSH2 0xA2 SWAP2 SWAP1 PUSH2 0x888 JUMP JUMPDEST PUSH1 0x40 MLOAD DUP1 SWAP2 SUB SWAP1 RETURN JUMPDEST PUSH2 0xC5 PUSH1 0x4 DUP1 CALLDATASIZE SUB DUP2 ADD SWAP1 PUSH2 0xC0 SWAP2 SWAP1 PUSH2 0x60D JUMP JUMPDEST PUSH2 0x1B1 JUMP JUMPDEST STOP JUMPDEST PUSH2 0xCF PUSH2 0x2D2 JUMP JUMPDEST PUSH1 0x40 MLOAD PUSH2 0xDC SWAP2 SWAP1 PUSH2 0x8DE JUMP JUMPDEST PUSH1 0x40 MLOAD DUP1 SWAP2 SUB SWAP1 RETURN JUMPDEST PUSH2 0xFF PUSH1 0x4 DUP1 CALLDATASIZE SUB DUP2 ADD SWAP1 PUSH2 0xFA SWAP2 SWAP1 PUSH2 0x63A JUMP JUMPDEST PUSH2 0x2EC JUMP JUMPDEST PUSH1 0x40 MLOAD PUSH2 0x10C SWAP2 SWAP1 PUSH2 0x8C3 JUMP JUMPDEST PUSH1 0x40 MLOAD DUP1 SWAP2 SUB SWAP1 RETURN JUMPDEST PUSH2 0x11D PUSH2 0x4AA JUMP JUMPDEST PUSH1 0x40 MLOAD PUSH2 0x12A SWAP2 SWAP1 PUSH2 0x8C3 JUMP JUMPDEST PUSH1 0x40 MLOAD DUP1 SWAP2 SUB SWAP1 RETURN JUMPDEST PUSH2 0x13B PUSH2 0x4B0 JUMP JUMPDEST PUSH1 0x40 MLOAD PUSH2 0x148 SWAP2 SWAP1 PUSH2 0x852 JUMP JUMPDEST PUSH1 0x40 MLOAD DUP1 SWAP2 SUB SWAP1 RETURN JUMPDEST PUSH2 0x159 PUSH2 0x4D6 JUMP JUMPDEST PUSH1 0x40 MLOAD PUSH2 0x166 SWAP2 SWAP1 PUSH2 0x852 JUMP JUMPDEST PUSH1 0x40 MLOAD DUP1 SWAP2 SUB SWAP1 RETURN JUMPDEST PUSH2 0x177 PUSH2 0x4FC JUMP JUMPDEST PUSH1 0x40 MLOAD PUSH2 0x184 SWAP2 SWAP1 PUSH2 0x86D JUMP JUMPDEST PUSH1 0x40 MLOAD DUP1 SWAP2 SUB SWAP1 RETURN JUMPDEST PUSH32 0x0 DUP2 JUMP JUMPDEST PUSH2 0x1B9 PUSH2 0x520 JUMP JUMPDEST PUSH1 0x2 PUSH1 0x8 SWAP1 SLOAD SWAP1 PUSH2 0x100 EXP SWAP1 DIV PUSH20 0xFFFFFFFFFFFFFFFFFFFFFFFFFFFFFFFFFFFFFFFF AND PUSH20 0xFFFFFFFFFFFFFFFFFFFFFFFFFFFFFFFFFFFFFFFF AND CALLER PUSH20 0xFFFFFFFFFFFFFFFFFFFFFFFFFFFFFFFFFFFFFFFF AND EQ PUSH2 0x213 JUMPI PUSH1 0x0 DUP1 REVERT JUMPDEST PUSH1 0x0 PUSH1 0x1 SLOAD SWAP1 POP PUSH1 0x0 PUSH1 0x1 DUP2 SWAP1 SSTORE POP PUSH1 0x0 DUP3 PUSH20 0xFFFFFFFFFFFFFFFFFFFFFFFFFFFFFFFFFFFFFFFF AND DUP3 PUSH1 0x40 MLOAD PUSH2 0x248 SWAP1 PUSH2 0x83D JUMP JUMPDEST PUSH1 0x0 PUSH1 0x40 MLOAD DUP1 DUP4 SUB DUP2 DUP6 DUP8 GAS CALL SWAP3 POP POP POP RETURNDATASIZE DUP1 PUSH1 0x0 DUP2 EQ PUSH2 0x285 JUMPI PUSH1 0x40 MLOAD SWAP2 POP PUSH1 0x1F NOT PUSH1 0x3F RETURNDATASIZE ADD AND DUP3 ADD PUSH1 0x40 MSTORE RETURNDATASIZE DUP3 MSTORE RETURNDATASIZE PUSH1 0x0 PUSH1 0x20 DUP5 ADD RETURNDATACOPY PUSH2 0x28A JUMP JUMPDEST PUSH1 0x60 SWAP2 POP JUMPDEST POP POP SWAP1 POP DUP1 PUSH2 0x2C5 JUMPI PUSH1 0x40 MLOAD PUSH32 0x90B8EC1800000000000000000000000000000000000000000000000000000000 DUP2 MSTORE PUSH1 0x4 ADD PUSH1 0x40 MLOAD DUP1 SWAP2 SUB SWAP1 REVERT JUMPDEST POP POP PUSH2 0x2CF PUSH2 0x570 JUMP JUMPDEST POP JUMP JUMPDEST PUSH1 0x2 PUSH1 0x0 SWAP1 SLOAD SWAP1 PUSH2 0x100 EXP SWAP1 DIV PUSH8 0xFFFFFFFFFFFFFFFF AND DUP2 JUMP JUMPDEST PUSH1 0x0 DUP1 PUSH32 0x0 PUSH20 0xFFFFFFFFFFFFFFFFFFFFFFFFFFFFFFFFFFFFFFFF AND PUSH4 0xFEAF968C PUSH1 0x40 MLOAD DUP2 PUSH4 0xFFFFFFFF AND PUSH1 0xE0 SHL DUP2 MSTORE PUSH1 0x4 ADD PUSH1 0xA0 PUSH1 0x40 MLOAD DUP1 DUP4 SUB DUP2 DUP7 DUP1 EXTCODESIZE ISZERO DUP1 ISZERO PUSH2 0x355 JUMPI PUSH1 0x0 DUP1 REVERT JUMPDEST POP GAS STATICCALL ISZERO DUP1 ISZERO PUSH2 0x369 JUMPI RETURNDATASIZE PUSH1 0x0 DUP1 RETURNDATACOPY RETURNDATASIZE PUSH1 0x0 REVERT JUMPDEST POP POP POP POP PUSH1 0x40 MLOAD RETURNDATASIZE PUSH1 0x1F NOT PUSH1 0x1F DUP3 ADD AND DUP3 ADD DUP1 PUSH1 0x40 MSTORE POP DUP2 ADD SWAP1 PUSH2 0x38D SWAP2 SWAP1 PUSH2 0x731 JUMP JUMPDEST POP POP POP SWAP2 POP POP PUSH1 0x0 PUSH32 0x0 PUSH20 0xFFFFFFFFFFFFFFFFFFFFFFFFFFFFFFFFFFFFFFFF AND PUSH4 0x5FBBC0D2 PUSH1 0x40 MLOAD DUP2 PUSH4 0xFFFFFFFF AND PUSH1 0xE0 SHL DUP2 MSTORE PUSH1 0x4 ADD PUSH2 0x120 PUSH1 0x40 MLOAD DUP1 DUP4 SUB DUP2 DUP7 DUP1 EXTCODESIZE ISZERO DUP1 ISZERO PUSH2 0x3FC JUMPI PUSH1 0x0 DUP1 REVERT JUMPDEST POP GAS STATICCALL ISZERO DUP1 ISZERO PUSH2 0x410 JUMPI RETURNDATASIZE PUSH1 0x0 DUP1 RETURNDATACOPY RETURNDATASIZE PUSH1 0x0 REVERT JUMPDEST POP POP POP POP PUSH1 0x40 MLOAD RETURNDATASIZE PUSH1 0x1F NOT PUSH1 0x1F DUP3 ADD AND DUP3 ADD DUP1 PUSH1 0x40 MSTORE POP DUP2 ADD SWAP1 PUSH2 0x434 SWAP2 SWAP1 PUSH2 0x667 JUMP JUMPDEST POP POP POP POP POP POP POP POP SWAP1 POP PUSH8 0xDE0B6B3A7640000 DUP3 DUP3 PUSH4 0xFFFFFFFF AND PUSH5 0xE8D4A51000 PUSH2 0x45F SWAP2 SWAP1 PUSH2 0x99C JUMP JUMPDEST PUSH2 0x469 SWAP2 SWAP1 PUSH2 0x99C JUMP JUMPDEST PUSH2 0x473 SWAP2 SWAP1 PUSH2 0x96B JUMP JUMPDEST PUSH1 0xA DUP6 PUSH1 0x12 GASPRICE PUSH2 0x483 SWAP2 SWAP1 PUSH2 0x99C JUMP JUMPDEST PUSH2 0x48D SWAP2 SWAP1 PUSH2 0x99C JUMP JUMPDEST PUSH2 0x497 SWAP2 SWAP1 PUSH2 0x96B JUMP JUMPDEST PUSH2 0x4A1 SWAP2 SWAP1 PUSH2 0x915 JUMP JUMPDEST SWAP3 POP POP POP SWAP2 SWAP1 POP JUMP JUMPDEST PUSH1 0x1 SLOAD DUP2 JUMP JUMPDEST PUSH1 0x2 PUSH1 0x8 SWAP1 SLOAD SWAP1 PUSH2 0x100 EXP SWAP1 DIV PUSH20 0xFFFFFFFFFFFFFFFFFFFFFFFFFFFFFFFFFFFFFFFF AND DUP2 JUMP JUMPDEST PUSH1 0x3 PUSH1 0x0 SWAP1 SLOAD SWAP1 PUSH2 0x100 EXP SWAP1 DIV PUSH20 0xFFFFFFFFFFFFFFFFFFFFFFFFFFFFFFFFFFFFFFFF AND DUP2 JUMP JUMPDEST PUSH32 0x0 DUP2 JUMP JUMPDEST PUSH1 0x2 PUSH1 0x0 SLOAD EQ ISZERO PUSH2 0x566 JUMPI PUSH1 0x40 MLOAD PUSH32 0x8C379A000000000000000000000000000000000000000000000000000000000 DUP2 MSTORE PUSH1 0x4 ADD PUSH2 0x55D SWAP1 PUSH2 0x8A3 JUMP JUMPDEST PUSH1 0x40 MLOAD DUP1 SWAP2 SUB SWAP1 REVERT JUMPDEST PUSH1 0x2 PUSH1 0x0 DUP2 SWAP1 SSTORE POP JUMP JUMPDEST PUSH1 0x1 PUSH1 0x0 DUP2 SWAP1 SSTORE POP JUMP JUMPDEST PUSH1 0x0 DUP2 CALLDATALOAD SWAP1 POP PUSH2 0x589 DUP2 PUSH2 0xB5C JUMP JUMPDEST SWAP3 SWAP2 POP POP JUMP JUMPDEST PUSH1 0x0 DUP2 MLOAD SWAP1 POP PUSH2 0x59E DUP2 PUSH2 0xB73 JUMP JUMPDEST SWAP3 SWAP2 POP POP JUMP JUMPDEST PUSH1 0x0 DUP2 MLOAD SWAP1 POP PUSH2 0x5B3 DUP2 PUSH2 0xB8A JUMP JUMPDEST SWAP3 SWAP2 POP POP JUMP JUMPDEST PUSH1 0x0 DUP2 CALLDATALOAD SWAP1 POP PUSH2 0x5C8 DUP2 PUSH2 0xBA1 JUMP JUMPDEST SWAP3 SWAP2 POP POP JUMP JUMPDEST PUSH1 0x0 DUP2 MLOAD SWAP1 POP PUSH2 0x5DD DUP2 PUSH2 0xBA1 JUMP JUMPDEST SWAP3 SWAP2 POP POP JUMP JUMPDEST PUSH1 0x0 DUP2 MLOAD SWAP1 POP PUSH2 0x5F2 DUP2 PUSH2 0xBB8 JUMP JUMPDEST SWAP3 SWAP2 POP POP JUMP JUMPDEST PUSH1 0x0 DUP2 MLOAD SWAP1 POP PUSH2 0x607 DUP2 PUSH2 0xBCF JUMP JUMPDEST SWAP3 SWAP2 POP POP JUMP JUMPDEST PUSH1 0x0 PUSH1 0x20 DUP3 DUP5 SUB SLT ISZERO PUSH2 0x623 JUMPI PUSH2 0x622 PUSH2 0xB2B JUMP JUMPDEST JUMPDEST PUSH1 0x0 PUSH2 0x631 DUP5 DUP3 DUP6 ADD PUSH2 0x57A JUMP JUMPDEST SWAP2 POP POP SWAP3 SWAP2 POP POP JUMP JUMPDEST PUSH1 0x0 PUSH1 0x20 DUP3 DUP5 SUB SLT ISZERO PUSH2 0x650 JUMPI PUSH2 0x64F PUSH2 0xB2B JUMP JUMPDEST JUMPDEST PUSH1 0x0 PUSH2 0x65E DUP5 DUP3 DUP6 ADD PUSH2 0x5B9 JUMP JUMPDEST SWAP2 POP POP SWAP3 SWAP2 POP POP JUMP JUMPDEST PUSH1 0x0 DUP1 PUSH1 0x0 DUP1 PUSH1 0x0 DUP1 PUSH1 0x0 DUP1 PUSH1 0x0 PUSH2 0x120 DUP11 DUP13 SUB SLT ISZERO PUSH2 0x68A JUMPI PUSH2 0x689 PUSH2 0xB2B JUMP JUMPDEST JUMPDEST PUSH1 0x0 PUSH2 0x698 DUP13 DUP3 DUP14 ADD PUSH2 0x5E3 JUMP JUMPDEST SWAP10 POP POP PUSH1 0x20 PUSH2 0x6A9 DUP13 DUP3 DUP14 ADD PUSH2 0x5E3 JUMP JUMPDEST SWAP9 POP POP PUSH1 0x40 PUSH2 0x6BA DUP13 DUP3 DUP14 ADD PUSH2 0x5E3 JUMP JUMPDEST SWAP8 POP POP PUSH1 0x60 PUSH2 0x6CB DUP13 DUP3 DUP14 ADD PUSH2 0x5E3 JUMP JUMPDEST SWAP7 POP POP PUSH1 0x80 PUSH2 0x6DC DUP13 DUP3 DUP14 ADD PUSH2 0x5E3 JUMP JUMPDEST SWAP6 POP POP PUSH1 0xA0 PUSH2 0x6ED DUP13 DUP3 DUP14 ADD PUSH2 0x5A4 JUMP JUMPDEST SWAP5 POP POP PUSH1 0xC0 PUSH2 0x6FE DUP13 DUP3 DUP14 ADD PUSH2 0x5A4 JUMP JUMPDEST SWAP4 POP POP PUSH1 0xE0 PUSH2 0x70F DUP13 DUP3 DUP14 ADD PUSH2 0x5A4 JUMP JUMPDEST SWAP3 POP POP PUSH2 0x100 PUSH2 0x721 DUP13 DUP3 DUP14 ADD PUSH2 0x5A4 JUMP JUMPDEST SWAP2 POP POP SWAP3 SWAP6 SWAP9 POP SWAP3 SWAP6 SWAP9 POP SWAP3 SWAP6 SWAP9 JUMP JUMPDEST PUSH1 0x0 DUP1 PUSH1 0x0 DUP1 PUSH1 0x0 PUSH1 0xA0 DUP7 DUP9 SUB SLT ISZERO PUSH2 0x74D JUMPI PUSH2 0x74C PUSH2 0xB2B JUMP JUMPDEST JUMPDEST PUSH1 0x0 PUSH2 0x75B DUP9 DUP3 DUP10 ADD PUSH2 0x5F8 JUMP JUMPDEST SWAP6 POP POP PUSH1 0x20 PUSH2 0x76C DUP9 DUP3 DUP10 ADD PUSH2 0x58F JUMP JUMPDEST SWAP5 POP POP PUSH1 0x40 PUSH2 0x77D DUP9 DUP3 DUP10 ADD PUSH2 0x5CE JUMP JUMPDEST SWAP4 POP POP PUSH1 0x60 PUSH2 0x78E DUP9 DUP3 DUP10 ADD PUSH2 0x5CE JUMP JUMPDEST SWAP3 POP POP PUSH1 0x80 PUSH2 0x79F DUP9 DUP3 DUP10 ADD PUSH2 0x5F8 JUMP JUMPDEST SWAP2 POP POP SWAP3 SWAP6 POP SWAP3 SWAP6 SWAP1 SWAP4 POP JUMP JUMPDEST PUSH2 0x7B5 DUP2 PUSH2 0x9F6 JUMP JUMPDEST DUP3 MSTORE POP POP JUMP JUMPDEST PUSH2 0x7C4 DUP2 PUSH2 0xA85 JUMP JUMPDEST DUP3 MSTORE POP POP JUMP JUMPDEST PUSH2 0x7D3 DUP2 PUSH2 0xA97 JUMP JUMPDEST DUP3 MSTORE POP POP JUMP JUMPDEST PUSH1 0x0 PUSH2 0x7E6 PUSH1 0x0 DUP4 PUSH2 0x8F9 JUMP JUMPDEST SWAP2 POP PUSH2 0x7F1 DUP3 PUSH2 0xB30 JUMP JUMPDEST PUSH1 0x0 DUP3 ADD SWAP1 POP SWAP2 SWAP1 POP JUMP JUMPDEST PUSH1 0x0 PUSH2 0x809 PUSH1 0x1F DUP4 PUSH2 0x904 JUMP JUMPDEST SWAP2 POP PUSH2 0x814 DUP3 PUSH2 0xB33 JUMP JUMPDEST PUSH1 0x20 DUP3 ADD SWAP1 POP SWAP2 SWAP1 POP JUMP JUMPDEST PUSH2 0x828 DUP2 PUSH2 0xA41 JUMP JUMPDEST DUP3 MSTORE POP POP JUMP JUMPDEST PUSH2 0x837 DUP2 PUSH2 0xA5B JUMP JUMPDEST DUP3 MSTORE POP POP JUMP JUMPDEST PUSH1 0x0 PUSH2 0x848 DUP3 PUSH2 0x7D9 JUMP JUMPDEST SWAP2 POP DUP2 SWAP1 POP SWAP2 SWAP1 POP JUMP JUMPDEST PUSH1 0x0 PUSH1 0x20 DUP3 ADD SWAP1 POP PUSH2 0x867 PUSH1 0x0 DUP4 ADD DUP5 PUSH2 0x7AC JUMP JUMPDEST SWAP3 SWAP2 POP POP JUMP JUMPDEST PUSH1 0x0 PUSH1 0x20 DUP3 ADD SWAP1 POP PUSH2 0x882 PUSH1 0x0 DUP4 ADD DUP5 PUSH2 0x7BB JUMP JUMPDEST SWAP3 SWAP2 POP POP JUMP JUMPDEST PUSH1 0x0 PUSH1 0x20 DUP3 ADD SWAP1 POP PUSH2 0x89D PUSH1 0x0 DUP4 ADD DUP5 PUSH2 0x7CA JUMP JUMPDEST SWAP3 SWAP2 POP POP JUMP JUMPDEST PUSH1 0x0 PUSH1 0x20 DUP3 ADD SWAP1 POP DUP2 DUP2 SUB PUSH1 0x0 DUP4 ADD MSTORE PUSH2 0x8BC DUP2 PUSH2 0x7FC JUMP JUMPDEST SWAP1 POP SWAP2 SWAP1 POP JUMP JUMPDEST PUSH1 0x0 PUSH1 0x20 DUP3 ADD SWAP1 POP PUSH2 0x8D8 PUSH1 0x0 DUP4 ADD DUP5 PUSH2 0x81F JUMP JUMPDEST SWAP3 SWAP2 POP POP JUMP JUMPDEST PUSH1 0x0 PUSH1 0x20 DUP3 ADD SWAP1 POP PUSH2 0x8F3 PUSH1 0x0 DUP4 ADD DUP5 PUSH2 0x82E JUMP JUMPDEST SWAP3 SWAP2 POP POP JUMP JUMPDEST PUSH1 0x0 DUP2 SWAP1 POP SWAP3 SWAP2 POP POP JUMP JUMPDEST PUSH1 0x0 DUP3 DUP3 MSTORE PUSH1 0x20 DUP3 ADD SWAP1 POP SWAP3 SWAP2 POP POP JUMP JUMPDEST PUSH1 0x0 PUSH2 0x920 DUP3 PUSH2 0xA41 JUMP JUMPDEST SWAP2 POP PUSH2 0x92B DUP4 PUSH2 0xA41 JUMP JUMPDEST SWAP3 POP DUP3 PUSH32 0xFFFFFFFFFFFFFFFFFFFFFFFFFFFFFFFFFFFFFFFFFFFFFFFFFFFFFFFFFFFFFFFF SUB DUP3 GT ISZERO PUSH2 0x960 JUMPI PUSH2 0x95F PUSH2 0xACD JUMP JUMPDEST JUMPDEST DUP3 DUP3 ADD SWAP1 POP SWAP3 SWAP2 POP POP JUMP JUMPDEST PUSH1 0x0 PUSH2 0x976 DUP3 PUSH2 0xA41 JUMP JUMPDEST SWAP2 POP PUSH2 0x981 DUP4 PUSH2 0xA41 JUMP JUMPDEST SWAP3 POP DUP3 PUSH2 0x991 JUMPI PUSH2 0x990 PUSH2 0xAFC JUMP JUMPDEST JUMPDEST DUP3 DUP3 DIV SWAP1 POP SWAP3 SWAP2 POP POP JUMP JUMPDEST PUSH1 0x0 PUSH2 0x9A7 DUP3 PUSH2 0xA41 JUMP JUMPDEST SWAP2 POP PUSH2 0x9B2 DUP4 PUSH2 0xA41 JUMP JUMPDEST SWAP3 POP DUP2 PUSH32 0xFFFFFFFFFFFFFFFFFFFFFFFFFFFFFFFFFFFFFFFFFFFFFFFFFFFFFFFFFFFFFFFF DIV DUP4 GT DUP3 ISZERO ISZERO AND ISZERO PUSH2 0x9EB JUMPI PUSH2 0x9EA PUSH2 0xACD JUMP JUMPDEST JUMPDEST DUP3 DUP3 MUL SWAP1 POP SWAP3 SWAP2 POP POP JUMP JUMPDEST PUSH1 0x0 PUSH2 0xA01 DUP3 PUSH2 0xA12 JUMP JUMPDEST SWAP1 POP SWAP2 SWAP1 POP JUMP JUMPDEST PUSH1 0x0 DUP2 SWAP1 POP SWAP2 SWAP1 POP JUMP JUMPDEST PUSH1 0x0 PUSH20 0xFFFFFFFFFFFFFFFFFFFFFFFFFFFFFFFFFFFFFFFF DUP3 AND SWAP1 POP SWAP2 SWAP1 POP JUMP JUMPDEST PUSH1 0x0 PUSH3 0xFFFFFF DUP3 AND SWAP1 POP SWAP2 SWAP1 POP JUMP JUMPDEST PUSH1 0x0 DUP2 SWAP1 POP SWAP2 SWAP1 POP JUMP JUMPDEST PUSH1 0x0 PUSH4 0xFFFFFFFF DUP3 AND SWAP1 POP SWAP2 SWAP1 POP JUMP JUMPDEST PUSH1 0x0 PUSH8 0xFFFFFFFFFFFFFFFF DUP3 AND SWAP1 POP SWAP2 SWAP1 POP JUMP JUMPDEST PUSH1 0x0 PUSH10 0xFFFFFFFFFFFFFFFFFFFF DUP3 AND SWAP1 POP SWAP2 SWAP1 POP JUMP JUMPDEST PUSH1 0x0 PUSH2 0xA90 DUP3 PUSH2 0xAA9 JUMP JUMPDEST SWAP1 POP SWAP2 SWAP1 POP JUMP JUMPDEST PUSH1 0x0 PUSH2 0xAA2 DUP3 PUSH2 0xAA9 JUMP JUMPDEST SWAP1 POP SWAP2 SWAP1 POP JUMP JUMPDEST PUSH1 0x0 PUSH2 0xAB4 DUP3 PUSH2 0xABB JUMP JUMPDEST SWAP1 POP SWAP2 SWAP1 POP JUMP JUMPDEST PUSH1 0x0 PUSH2 0xAC6 DUP3 PUSH2 0xA12 JUMP JUMPDEST SWAP1 POP SWAP2 SWAP1 POP JUMP JUMPDEST PUSH32 0x4E487B7100000000000000000000000000000000000000000000000000000000 PUSH1 0x0 MSTORE PUSH1 0x11 PUSH1 0x4 MSTORE PUSH1 0x24 PUSH1 0x0 REVERT JUMPDEST PUSH32 0x4E487B7100000000000000000000000000000000000000000000000000000000 PUSH1 0x0 MSTORE PUSH1 0x12 PUSH1 0x4 MSTORE PUSH1 0x24 PUSH1 0x0 REVERT JUMPDEST PUSH1 0x0 DUP1 REVERT JUMPDEST POP JUMP JUMPDEST PUSH32 0x5265656E7472616E637947756172643A207265656E7472616E742063616C6C00 PUSH1 0x0 DUP3 ADD MSTORE POP JUMP JUMPDEST PUSH2 0xB65 DUP2 PUSH2 0x9F6 JUMP JUMPDEST DUP2 EQ PUSH2 0xB70 JUMPI PUSH1 0x0 DUP1 REVERT JUMPDEST POP JUMP JUMPDEST PUSH2 0xB7C DUP2 PUSH2 0xA08 JUMP JUMPDEST DUP2 EQ PUSH2 0xB87 JUMPI PUSH1 0x0 DUP1 REVERT JUMPDEST POP JUMP JUMPDEST PUSH2 0xB93 DUP2 PUSH2 0xA32 JUMP JUMPDEST DUP2 EQ PUSH2 0xB9E JUMPI PUSH1 0x0 DUP1 REVERT JUMPDEST POP JUMP JUMPDEST PUSH2 0xBAA DUP2 PUSH2 0xA41 JUMP JUMPDEST DUP2 EQ PUSH2 0xBB5 JUMPI PUSH1 0x0 DUP1 REVERT JUMPDEST POP JUMP JUMPDEST PUSH2 0xBC1 DUP2 PUSH2 0xA4B JUMP JUMPDEST DUP2 EQ PUSH2 0xBCC JUMPI PUSH1 0x0 DUP1 REVERT JUMPDEST POP JUMP JUMPDEST PUSH2 0xBD8 DUP2 PUSH2 0xA6F JUMP JUMPDEST DUP2 EQ PUSH2 0xBE3 JUMPI PUSH1 0x0 DUP1 REVERT JUMPDEST POP JUMP INVALID LOG2 PUSH5 0x6970667358 0x22 SLT KECCAK256 0xB2 0x26 SWAP16 JUMPI 0x26 0xA6 ISZERO PUSH10 0x2D0B23C1B0D8A70DBCD2 0xC4 PUSH9 0x610C4D054F4F52B2A0 PUSH27 0x1C2264736F6C634300080700330000000000000000000000000000 "},"methodIdentifiers":{"COORDINATOR()":"3b2bcbf1","LINK_ETH_FEED()":"ad178361","VRFFees()":"8d7c16d2","getVRFFee(uint256)":"8bd16114","owner()":"8da5cb5b","s_subscriptionId()":"8ac00021","transferFees(address)":"63dc4ef5","wrappedToken()":"996c6cc3"}}}}}