{"contracts/Coinflip.sol":{"CoinFlip":{"abi":[{"inputs":[{"internalType":"uint64","name":"subscriptionID","type":"uint64"},{"internalType":"address","name":"_vrf","type":"address"},{"internalType":"bytes32","name":"_keyHash","type":"bytes32"},{"internalType":"address","name":"link_eth_feed","type":"address"},{"internalType":"address","name":"tokenAllowed","type":"address"},{"internalType":"address","name":"wrappedToken","type":"address"}],"stateMutability":"nonpayable","type":"constructor"},{"inputs":[{"internalType":"uint256","name":"requestID","type":"uint256"}],"name":"AwaitingVRF","type":"error"},{"inputs":[{"internalType":"uint256","name":"have","type":"uint256"},{"internalType":"uint256","name":"want","type":"uint256"}],"name":"BlockNumberTooLow","type":"error"},{"inputs":[{"internalType":"uint256","name":"maxNumBets","type":"uint256"}],"name":"InvalidNumBets","type":"error"},{"inputs":[],"name":"InvalidToken","type":"error"},{"inputs":[{"internalType":"uint256","name":"required","type":"uint256"},{"internalType":"uint256","name":"sent","type":"uint256"}],"name":"InvalidValue","type":"error"},{"inputs":[],"name":"NotAwaitingVRF","type":"error"},{"inputs":[{"internalType":"address","name":"want","type":"address"},{"internalType":"address","name":"have","type":"address"}],"name":"NotOwner","type":"error"},{"inputs":[{"internalType":"address","name":"have","type":"address"},{"internalType":"address","name":"want","type":"address"}],"name":"OnlyCoordinatorCanFulfill","type":"error"},{"inputs":[],"name":"RefundFailed","type":"error"},{"inputs":[],"name":"TransferFailed","type":"error"},{"inputs":[{"internalType":"uint256","name":"wager","type":"uint256"},{"internalType":"uint256","name":"maxWager","type":"uint256"}],"name":"WagerAboveLimit","type":"error"},{"inputs":[],"name":"ZeroWager","type":"error"},{"anonymous":false,"inputs":[{"indexed":true,"internalType":"address","name":"playerAddress","type":"address"},{"indexed":false,"internalType":"uint256","name":"wager","type":"uint256"},{"indexed":false,"internalType":"uint256","name":"payout","type":"uint256"},{"indexed":false,"internalType":"address","name":"tokenAddress","type":"address"},{"indexed":false,"internalType":"uint8[]","name":"coinOutcomes","type":"uint8[]"},{"indexed":false,"internalType":"uint256[]","name":"payouts","type":"uint256[]"},{"indexed":false,"internalType":"uint32","name":"numGames","type":"uint32"}],"name":"CoinFlip_Outcome_Event","type":"event"},{"anonymous":false,"inputs":[{"indexed":true,"internalType":"address","name":"playerAddress","type":"address"},{"indexed":false,"internalType":"uint256","name":"wager","type":"uint256"},{"indexed":false,"internalType":"address","name":"tokenAddress","type":"address"},{"indexed":false,"internalType":"bool","name":"isHeads","type":"bool"},{"indexed":false,"internalType":"uint32","name":"numBets","type":"uint32"},{"indexed":false,"internalType":"uint256","name":"stopGain","type":"uint256"},{"indexed":false,"internalType":"uint256","name":"stopLoss","type":"uint256"},{"indexed":false,"internalType":"uint256","name":"VRFFee","type":"uint256"}],"name":"CoinFlip_Play_Event","type":"event"},{"anonymous":false,"inputs":[{"indexed":true,"internalType":"address","name":"player","type":"address"},{"indexed":false,"internalType":"uint256","name":"wager","type":"uint256"},{"indexed":false,"internalType":"address","name":"tokenAddress","type":"address"}],"name":"CoinFlip_Refund_Event","type":"event"},{"anonymous":false,"inputs":[{"indexed":false,"internalType":"address","name":"sender","type":"address"},{"indexed":false,"internalType":"uint256","name":"amount","type":"uint256"}],"name":"Received","type":"event"},{"anonymous":false,"inputs":[{"indexed":false,"internalType":"uint64","name":"subID","type":"uint64"},{"indexed":false,"internalType":"uint64","name":"newSubID","type":"uint64"}],"name":"Subscrition_Change_Event","type":"event"},{"anonymous":false,"inputs":[{"indexed":false,"internalType":"address","name":"token","type":"address"},{"indexed":false,"internalType":"bool","name":"status","type":"bool"}],"name":"Token_Set_Event","type":"event"},{"anonymous":false,"inputs":[{"indexed":false,"internalType":"address","name":"prevOwner","type":"address"},{"indexed":false,"internalType":"address","name":"newOwner","type":"address"}],"name":"Transfer_Ownership_Event","type":"event"},{"anonymous":false,"inputs":[{"indexed":false,"internalType":"address","name":"to","type":"address"},{"indexed":false,"internalType":"uint256","name":"amount","type":"uint256"},{"indexed":false,"internalType":"address","name":"tokenAddress","type":"address"}],"name":"Withdraw_HouseEdge_Event","type":"event"},{"inputs":[],"name":"COORDINATOR","outputs":[{"internalType":"contract IVRFCoordinatorV2","name":"","type":"address"}],"stateMutability":"view","type":"function"},{"inputs":[{"internalType":"address","name":"player","type":"address"}],"name":"CoinFlip_GetState","outputs":[{"components":[{"internalType":"uint256","name":"wager","type":"uint256"},{"internalType":"uint256","name":"stopGain","type":"uint256"},{"internalType":"uint256","name":"stopLoss","type":"uint256"},{"internalType":"uint256","name":"requestID","type":"uint256"},{"internalType":"address","name":"tokenAddress","type":"address"},{"internalType":"uint64","name":"blockNumber","type":"uint64"},{"internalType":"uint32","name":"numBets","type":"uint32"},{"internalType":"bool","name":"isHeads","type":"bool"}],"internalType":"struct CoinFlip.CoinFlipGame","name":"","type":"tuple"}],"stateMutability":"view","type":"function"},{"inputs":[{"internalType":"uint256","name":"wager","type":"uint256"},{"internalType":"address","name":"tokenAddress","type":"address"},{"internalType":"bool","name":"isHeads","type":"bool"},{"internalType":"uint32","name":"numBets","type":"uint32"},{"internalType":"uint256","name":"stopGain","type":"uint256"},{"internalType":"uint256","name":"stopLoss","type":"uint256"}],"name":"CoinFlip_Play","outputs":[],"stateMutability":"payable","type":"function"},{"inputs":[],"name":"CoinFlip_Refund","outputs":[],"stateMutability":"nonpayable","type":"function"},{"inputs":[],"name":"LINK_ETH_FEED","outputs":[{"internalType":"contract AggregatorV3Interface","name":"","type":"address"}],"stateMutability":"view","type":"function"},{"inputs":[],"name":"VRFFees","outputs":[{"internalType":"uint256","name":"","type":"uint256"}],"stateMutability":"view","type":"function"},{"inputs":[{"internalType":"uint64","name":"_subscriptionId","type":"uint64"}],"name":"changeSubscription","outputs":[],"stateMutability":"nonpayable","type":"function"},{"inputs":[{"internalType":"uint256","name":"gasAmount","type":"uint256"}],"name":"getVRFFee","outputs":[{"internalType":"uint256","name":"fee","type":"uint256"}],"stateMutability":"view","type":"function"},{"inputs":[{"internalType":"address","name":"","type":"address"}],"name":"isTokenAllowed","outputs":[{"internalType":"bool","name":"","type":"bool"}],"stateMutability":"view","type":"function"},{"inputs":[],"name":"owner","outputs":[{"internalType":"address","name":"","type":"address"}],"stateMutability":"view","type":"function"},{"inputs":[{"internalType":"uint256","name":"requestId","type":"uint256"},{"internalType":"uint256[]","name":"randomWords","type":"uint256[]"}],"name":"rawFulfillRandomWords","outputs":[],"stateMutability":"nonpayable","type":"function"},{"inputs":[],"name":"s_subscriptionId","outputs":[{"internalType":"uint64","name":"","type":"uint64"}],"stateMutability":"view","type":"function"},{"inputs":[{"internalType":"address","name":"token","type":"address"},{"internalType":"bool","name":"status","type":"bool"}],"name":"setToken","outputs":[],"stateMutability":"nonpayable","type":"function"},{"inputs":[{"internalType":"address","name":"to","type":"address"}],"name":"transferFees","outputs":[],"stateMutability":"nonpayable","type":"function"},{"inputs":[{"internalType":"address","name":"newOwner","type":"address"}],"name":"transferOwnership","outputs":[],"stateMutability":"nonpayable","type":"function"},{"inputs":[{"internalType":"address","name":"to","type":"address"},{"internalType":"uint256","name":"amount","type":"uint256"},{"internalType":"address","name":"tokenAddress","type":"address"}],"name":"withdrawHouseEdge","outputs":[],"stateMutability":"nonpayable","type":"function"},{"inputs":[],"name":"wrappedToken","outputs":[{"internalType":"address","name":"","type":"address"}],"stateMutability":"view","type":"function"},{"stateMutability":"payable","type":"receive"}],"evm":{"bytecode":{"linkReferences":{},"object":"60e06040523480156200001157600080fd5b50604051620041db380380620041db833981810160405281019062000037919062000213565b858386868460016000819055508273ffffffffffffffffffffffffffffffffffffffff1660a08173ffffffffffffffffffffffffffffffffffffffff1660601b815250508373ffffffffffffffffffffffffffffffffffffffff1660808173ffffffffffffffffffffffffffffffffffffffff1660601b8152505084600260006101000a81548167ffffffffffffffff021916908367ffffffffffffffff16021790555033600260086101000a81548173ffffffffffffffffffffffffffffffffffffffff021916908373ffffffffffffffffffffffffffffffffffffffff1602179055508160c0818152505080600360006101000a81548173ffffffffffffffffffffffffffffffffffffffff021916908373ffffffffffffffffffffffffffffffffffffffff16021790555050505050506001600660008473ffffffffffffffffffffffffffffffffffffffff1673ffffffffffffffffffffffffffffffffffffffff16815260200190815260200160002060006101000a81548160ff02191690831515021790555050505050505062000354565b600081519050620001df8162000306565b92915050565b600081519050620001f68162000320565b92915050565b6000815190506200020d816200033a565b92915050565b60008060008060008060c0878903121562000233576200023262000301565b5b60006200024389828a01620001fc565b96505060206200025689828a01620001ce565b95505060406200026989828a01620001e5565b94505060606200027c89828a01620001ce565b93505060806200028f89828a01620001ce565b92505060a0620002a289828a01620001ce565b9150509295509295509295565b6000620002bc82620002cd565b9050919050565b6000819050919050565b600073ffffffffffffffffffffffffffffffffffffffff82169050919050565b600067ffffffffffffffff82169050919050565b600080fd5b6200031181620002af565b81146200031d57600080fd5b50565b6200032b81620002c3565b81146200033757600080fd5b50565b6200034581620002ed565b81146200035157600080fd5b50565b60805160601c60a05160601c60c051613e2e620003ad6000396000611f7301526000818161042b0152818161047f015281816105d90152818161116d0152611f370152600081816110c701526112d40152613e2e6000f3fe6080604052600436106101025760003560e01c80638ac0002111610095578063996c6cc311610064578063996c6cc314610344578063ad1783611461036f578063b400c2311461039a578063f2fde38b146103c3578063f9eaee0d146103ec57610142565b80638ac00021146102865780638bd16114146102b15780638d7c16d2146102ee5780638da5cb5b1461031957610142565b806363dc4ef5116100d157806363dc4ef5146101db5780636d974773146102045780637ab77648146102205780637df312841461024957610142565b80631fe543e3146101475780633816a292146101705780633b2bcbf114610199578063522d2c24146101c457610142565b36610142577f88a5966d370b9919b20f3e2c13ff65706f196a4e32cc2c12bf57088f8852587433346040516101389291906131fc565b60405180910390a1005b600080fd5b34801561015357600080fd5b5061016e60048036038101906101699190612bb8565b610429565b005b34801561017c57600080fd5b5061019760048036038101906101929190612a11565b6104e9565b005b3480156101a557600080fd5b506101ae6105d7565b6040516101bb91906132e5565b60405180910390f35b3480156101d057600080fd5b506101d96105fb565b005b3480156101e757600080fd5b5061020260048036038101906101fd91906129e4565b6109e5565b005b61021e60048036038101906102199190612b2b565b610b06565b005b34801561022c57600080fd5b5061024760048036038101906102429190612a51565b610eb8565b005b34801561025557600080fd5b50610270600480360381019061026b91906129e4565b610f5d565b60405161027d91906133bd565b60405180910390f35b34801561029257600080fd5b5061029b6110a8565b6040516102a8919061354d565b60405180910390f35b3480156102bd57600080fd5b506102d860048036038101906102d39190612ad1565b6110c2565b6040516102e591906133d9565b60405180910390f35b3480156102fa57600080fd5b50610303611280565b60405161031091906133d9565b60405180910390f35b34801561032557600080fd5b5061032e611286565b60405161033b9190613158565b60405180910390f35b34801561035057600080fd5b506103596112ac565b6040516103669190613158565b60405180910390f35b34801561037b57600080fd5b506103846112d2565b60405161039191906132ca565b60405180910390f35b3480156103a657600080fd5b506103c160048036038101906103bc9190612cde565b6112f6565b005b3480156103cf57600080fd5b506103ea60048036038101906103e591906129e4565b6113ab565b005b3480156103f857600080fd5b50610413600480360381019061040e91906129e4565b61146c565b604051610420919061325c565b60405180910390f35b7f000000000000000000000000000000000000000000000000000000000000000073ffffffffffffffffffffffffffffffffffffffff163373ffffffffffffffffffffffffffffffffffffffff16146104db57337f00000000000000000000000000000000000000000000000000000000000000006040517f1cf993f40000000000000000000000000000000000000000000000000000000081526004016104d2929190613173565b60405180910390fd5b6104e5828261148c565b5050565b600260089054906101000a900473ffffffffffffffffffffffffffffffffffffffff1673ffffffffffffffffffffffffffffffffffffffff163373ffffffffffffffffffffffffffffffffffffffff161461054357600080fd5b7faea999d0abc245b3ea43d19c7d13fca5b53dee3adfdc8cca1d48b4a6a48437c882826040516105749291906131d3565b60405180910390a180600660008473ffffffffffffffffffffffffffffffffffffffff1673ffffffffffffffffffffffffffffffffffffffff16815260200190815260200160002060006101000a81548160ff0219169083151502179055505050565b7f000000000000000000000000000000000000000000000000000000000000000081565b610603611aec565b6000600460003373ffffffffffffffffffffffffffffffffffffffff1673ffffffffffffffffffffffffffffffffffffffff1681526020019081526020016000209050600081600301541415610685576040517f49050b3000000000000000000000000000000000000000000000000000000000815260040160405180910390fd5b4360648260040160149054906101000a900467ffffffffffffffff166106ab9190613770565b67ffffffffffffffff16111561071e574360648260040160149054906101000a900467ffffffffffffffff166106e19190613770565b6040517fb4ae675a000000000000000000000000000000000000000000000000000000008152600401610715929190613524565b60405180910390fd5b600081600401601c9054906101000a900463ffffffff1663ffffffff16826000015461074a91906137df565b905060008260040160009054906101000a900473ffffffffffffffffffffffffffffffffffffffff169050600560008460030154815260200190815260200160002060006101000a81549073ffffffffffffffffffffffffffffffffffffffff0219169055600460003373ffffffffffffffffffffffffffffffffffffffff1673ffffffffffffffffffffffffffffffffffffffff1681526020019081526020016000206000808201600090556001820160009055600282016000905560038201600090556004820160006101000a81549073ffffffffffffffffffffffffffffffffffffffff02191690556004820160146101000a81549067ffffffffffffffff021916905560048201601c6101000a81549063ffffffff02191690556005820160006101000a81549060ff02191690555050600073ffffffffffffffffffffffffffffffffffffffff168173ffffffffffffffffffffffffffffffffffffffff16141561095c5760003373ffffffffffffffffffffffffffffffffffffffff16836040516108d990613143565b60006040518083038185875af1925050503d8060008114610916576040519150601f19603f3d011682016040523d82523d6000602084013e61091b565b606091505b5050905080610956576040517f90b8ec1800000000000000000000000000000000000000000000000000000000815260040160405180910390fd5b50610988565b61098733838373ffffffffffffffffffffffffffffffffffffffff16611b3c9092919063ffffffff16565b5b3373ffffffffffffffffffffffffffffffffffffffff167f60f5ec2f86c0cf8ae72815b61b05473a9382c1c34a74749680302b342c04138a83836040516109d09291906133f4565b60405180910390a25050506109e3611bc2565b565b6109ed611aec565b600260089054906101000a900473ffffffffffffffffffffffffffffffffffffffff1673ffffffffffffffffffffffffffffffffffffffff163373ffffffffffffffffffffffffffffffffffffffff1614610a4757600080fd5b60006001549050600060018190555060008273ffffffffffffffffffffffffffffffffffffffff1682604051610a7c90613143565b60006040518083038185875af1925050503d8060008114610ab9576040519150601f19603f3d011682016040523d82523d6000602084013e610abe565b606091505b5050905080610af9576040517f90b8ec1800000000000000000000000000000000000000000000000000000000815260040160405180910390fd5b5050610b03611bc2565b50565b610b0e611aec565b6000600460003373ffffffffffffffffffffffffffffffffffffffff1673ffffffffffffffffffffffffffffffffffffffff1681526020019081526020016000206003015414610bd757600460003373ffffffffffffffffffffffffffffffffffffffff1673ffffffffffffffffffffffffffffffffffffffff168152602001908152602001600020600301546040517f440db96e000000000000000000000000000000000000000000000000000000008152600401610bce91906133d9565b60405180910390fd5b60008363ffffffff16118015610bf4575060648363ffffffff1611155b610c365760646040517f93107491000000000000000000000000000000000000000000000000000000008152600401610c2d9190613300565b60405180910390fd5b610c408686611bcc565b6000610c62868563ffffffff1689610c5891906137df565b620aae6033611d8c565b90506000610c6f85611f33565b90506040518061010001604052808981526020018581526020018481526020018281526020018873ffffffffffffffffffffffffffffffffffffffff1681526020014367ffffffffffffffff1681526020018663ffffffff168152602001871515815250600460003373ffffffffffffffffffffffffffffffffffffffff1673ffffffffffffffffffffffffffffffffffffffff1681526020019081526020016000206000820151816000015560208201518160010155604082015181600201556060820151816003015560808201518160040160006101000a81548173ffffffffffffffffffffffffffffffffffffffff021916908373ffffffffffffffffffffffffffffffffffffffff16021790555060a08201518160040160146101000a81548167ffffffffffffffff021916908367ffffffffffffffff16021790555060c082015181600401601c6101000a81548163ffffffff021916908363ffffffff16021790555060e08201518160050160006101000a81548160ff021916908315150217905550905050336005600083815260200190815260200160002060006101000a81548173ffffffffffffffffffffffffffffffffffffffff021916908373ffffffffffffffffffffffffffffffffffffffff1602179055503373ffffffffffffffffffffffffffffffffffffffff167f9802308245dc39ec39c453355c93a84c961f728db54b5adeaad1cd29aa6f3f7389898989898989604051610e9e979695949392919061341d565b60405180910390a25050610eb0611bc2565b505050505050565b600260089054906101000a900473ffffffffffffffffffffffffffffffffffffffff1673ffffffffffffffffffffffffffffffffffffffff163373ffffffffffffffffffffffffffffffffffffffff1614610f1257600080fd5b7f593d716566b4464bf0b779610f37202e3aa235093cc97c461d3c64a7f8e95b9e838383604051610f4593929190613225565b60405180910390a1610f58838383612029565b505050565b610f656127f2565b600460008373ffffffffffffffffffffffffffffffffffffffff1673ffffffffffffffffffffffffffffffffffffffff16815260200190815260200160002060405180610100016040529081600082015481526020016001820154815260200160028201548152602001600382015481526020016004820160009054906101000a900473ffffffffffffffffffffffffffffffffffffffff1673ffffffffffffffffffffffffffffffffffffffff1673ffffffffffffffffffffffffffffffffffffffff1681526020016004820160149054906101000a900467ffffffffffffffff1667ffffffffffffffff1667ffffffffffffffff16815260200160048201601c9054906101000a900463ffffffff1663ffffffff1663ffffffff1681526020016005820160009054906101000a900460ff1615151515815250509050919050565b600260009054906101000a900467ffffffffffffffff1681565b6000807f000000000000000000000000000000000000000000000000000000000000000073ffffffffffffffffffffffffffffffffffffffff1663feaf968c6040518163ffffffff1660e01b815260040160a06040518083038186803b15801561112b57600080fd5b505afa15801561113f573d6000803e3d6000fd5b505050506040513d601f19601f820116820180604052508101906111639190612d0b565b50505091505060007f000000000000000000000000000000000000000000000000000000000000000073ffffffffffffffffffffffffffffffffffffffff16635fbbc0d26040518163ffffffff1660e01b81526004016101206040518083038186803b1580156111d257600080fd5b505afa1580156111e6573d6000803e3d6000fd5b505050506040513d601f19601f8201168201806040525081019061120a9190612c14565b50505050505050509050670de0b6b3a7640000828263ffffffff1664e8d4a5100061123591906137df565b61123f91906137df565b61124991906137ae565b600a8560123a61125991906137df565b61126391906137df565b61126d91906137ae565b611277919061371a565b92505050919050565b60015481565b600260089054906101000a900473ffffffffffffffffffffffffffffffffffffffff1681565b600360009054906101000a900473ffffffffffffffffffffffffffffffffffffffff1681565b7f000000000000000000000000000000000000000000000000000000000000000081565b600260089054906101000a900473ffffffffffffffffffffffffffffffffffffffff1673ffffffffffffffffffffffffffffffffffffffff163373ffffffffffffffffffffffffffffffffffffffff161461135057600080fd5b7f904a74bcf05e44be0348db4faed2b4ebb5e2f9e67c64335f1f9a907a391ab965600260009054906101000a900467ffffffffffffffff1682604051611397929190613568565b60405180910390a16113a881612138565b50565b600260089054906101000a900473ffffffffffffffffffffffffffffffffffffffff1673ffffffffffffffffffffffffffffffffffffffff163373ffffffffffffffffffffffffffffffffffffffff161461140557600080fd5b7f6bddf22c81e64d89aa75eb3a9fd9e0169b0c681f933203ffd7bf8ab50e4c9094600260089054906101000a900473ffffffffffffffffffffffffffffffffffffffff1682604051611458929190613173565b60405180910390a161146981612164565b50565b60066020528060005260406000206000915054906101000a900460ff1681565b60006005600084815260200190815260200160002060009054906101000a900473ffffffffffffffffffffffffffffffffffffffff169050600073ffffffffffffffffffffffffffffffffffffffff168173ffffffffffffffffffffffffffffffffffffffff1614156114fe57600080fd5b6000600460008373ffffffffffffffffffffffffffffffffffffffff1673ffffffffffffffffffffffffffffffffffffffff168152602001908152602001600020905060648160040160149054906101000a900467ffffffffffffffff166115669190613770565b67ffffffffffffffff1643111561157c57600080fd5b60008060008084600401601c9054906101000a900463ffffffff1663ffffffff1667ffffffffffffffff8111156115b6576115b5613bf9565b5b6040519080825280602002602001820160405280156115e45781602001602082028036833780820191505090505b509050600085600401601c9054906101000a900463ffffffff1663ffffffff1667ffffffffffffffff81111561161d5761161c613bf9565b5b60405190808252806020026020018201604052801561164b5781602001602082028036833780820191505090505b50905060008660040160009054906101000a900473ffffffffffffffffffffffffffffffffffffffff169050600093505b86600401601c9054906101000a900463ffffffff1663ffffffff168463ffffffff16101561192957866001015486126116b457611929565b86600201546116c290613b23565b86136116cd57611929565b6002898563ffffffff16815181106116e8576116e7613bca565b5b60200260200101516116fa9190613af2565b838563ffffffff168151811061171357611712613bca565b5b602002602001019060ff16908160ff16815250506001838563ffffffff168151811061174257611741613bca565b5b602002602001015160ff1614801561176f5750600115158760050160009054906101000a900460ff161515145b1561181557612710612648886000015461178991906137df565b61179391906137ae565b8661179e9190613686565b9550612710614d5888600001546117b591906137df565b6117bf91906137ae565b856117ca919061371a565b9450612710614d5888600001546117e191906137df565b6117eb91906137ae565b828563ffffffff168151811061180457611803613bca565b5b602002602001018181525050611916565b6000838563ffffffff16815181106118305761182f613bca565b5b602002602001015160ff1614801561185d5750600015158760050160009054906101000a900460ff161515145b1561190357612710612648886000015461187791906137df565b61188191906137ae565b8661188c9190613686565b9550612710614d5888600001546118a391906137df565b6118ad91906137ae565b856118b8919061371a565b9450612710614d5888600001546118cf91906137df565b6118d991906137ae565b828563ffffffff16815181106118f2576118f1613bca565b5b602002602001018181525050611916565b8660000154866119139190613839565b95505b838061192190613ac5565b94505061167c565b86600001548488600401601c9054906101000a900463ffffffff1661194e9190613901565b63ffffffff1661195e91906137df565b85611969919061371a565b94508773ffffffffffffffffffffffffffffffffffffffff167f063ba2c91a70f945b84c24531b0de813d66f430987169cb7d878431c04cb00048860000154878487878a6040516119bf969594939291906134b5565b60405180910390a2600560008b815260200190815260200160002060006101000a81549073ffffffffffffffffffffffffffffffffffffffff0219169055600460008973ffffffffffffffffffffffffffffffffffffffff1673ffffffffffffffffffffffffffffffffffffffff1681526020019081526020016000206000808201600090556001820160009055600282016000905560038201600090556004820160006101000a81549073ffffffffffffffffffffffffffffffffffffffff02191690556004820160146101000a81549067ffffffffffffffff021916905560048201601c6101000a81549063ffffffff02191690556005820160006101000a81549060ff0219169055505060008514611ae057611adf8886836121a8565b5b50505050505050505050565b60026000541415611b32576040517f08c379a0000000000000000000000000000000000000000000000000000000008152600401611b299061339d565b60405180910390fd5b6002600081905550565b611bbd8363a9059cbb60e01b8484604051602401611b5b9291906131fc565b604051602081830303815290604052907bffffffffffffffffffffffffffffffffffffffffffffffffffffffff19166020820180517bffffffffffffffffffffffffffffffffffffffffffffffffffffffff838183161783525050505061241d565b505050565b6001600081905550565b60008073ffffffffffffffffffffffffffffffffffffffff168273ffffffffffffffffffffffffffffffffffffffff161415611c0a57479050611d21565b60001515600660008473ffffffffffffffffffffffffffffffffffffffff1673ffffffffffffffffffffffffffffffffffffffff16815260200190815260200160002060009054906101000a900460ff1615151415611c95576040517fc1ab6dc100000000000000000000000000000000000000000000000000000000815260040160405180910390fd5b8173ffffffffffffffffffffffffffffffffffffffff166370a08231306040518263ffffffff1660e01b8152600401611cce9190613158565b60206040518083038186803b158015611ce657600080fd5b505afa158015611cfa573d6000803e3d6000fd5b505050506040513d601f19601f82011682018060405250810190611d1e9190612afe565b90505b60006103e8600b83611d3391906137df565b611d3d91906137ae565b905080841115611d865783816040517fd53662aa000000000000000000000000000000000000000000000000000000008152600401611d7d92919061348c565b60405180910390fd5b50505050565b600080841415611dc8576040517f07375c8400000000000000000000000000000000000000000000000000000000815260040160405180910390fd5b611dd1836110c2565b9050600073ffffffffffffffffffffffffffffffffffffffff168573ffffffffffffffffffffffffffffffffffffffff161415611e89578084611e14919061371a565b341015611e65578084611e27919061371a565b346040517fde9b74a1000000000000000000000000000000000000000000000000000000008152600401611e5c92919061348c565b60405180910390fd5b611e848482611e74919061371a565b34611e7f91906138cd565b6124e5565b611f12565b80341015611ed05780346040517fde9b74a1000000000000000000000000000000000000000000000000000000008152600401611ec792919061348c565b60405180910390fd5b611efd8230868873ffffffffffffffffffffffffffffffffffffffff1661259b909392919063ffffffff16565b611f118134611f0c91906138cd565b6124e5565b5b8060016000828254611f24919061371a565b92505081905550949350505050565b60007f000000000000000000000000000000000000000000000000000000000000000073ffffffffffffffffffffffffffffffffffffffff16635d3b1d307f0000000000000000000000000000000000000000000000000000000000000000600260009054906101000a900467ffffffffffffffff166003622625a0876040518663ffffffff1660e01b8152600401611fd0959493929190613277565b602060405180830381600087803b158015611fea57600080fd5b505af1158015611ffe573d6000803e3d6000fd5b505050506040513d601f19601f820116820180604052508101906120229190612afe565b9050919050565b600073ffffffffffffffffffffffffffffffffffffffff168173ffffffffffffffffffffffffffffffffffffffff1614156121075760008373ffffffffffffffffffffffffffffffffffffffff168360405161208490613143565b60006040518083038185875af1925050503d80600081146120c1576040519150601f19603f3d011682016040523d82523d6000602084013e6120c6565b606091505b5050905080612101576040517f90b8ec1800000000000000000000000000000000000000000000000000000000815260040160405180910390fd5b50612133565b61213283838373ffffffffffffffffffffffffffffffffffffffff16611b3c9092919063ffffffff16565b5b505050565b80600260006101000a81548167ffffffffffffffff021916908367ffffffffffffffff16021790555050565b80600260086101000a81548173ffffffffffffffffffffffffffffffffffffffff021916908373ffffffffffffffffffffffffffffffffffffffff16021790555050565b600073ffffffffffffffffffffffffffffffffffffffff168173ffffffffffffffffffffffffffffffffffffffff1614156123ec5760008373ffffffffffffffffffffffffffffffffffffffff168360405161220390613143565b60006040518083038185875af1925050503d8060008114612240576040519150601f19603f3d011682016040523d82523d6000602084013e612245565b606091505b50509050806123e6576000600360009054906101000a900473ffffffffffffffffffffffffffffffffffffffff1673ffffffffffffffffffffffffffffffffffffffff16846040516024016040516020818303038152906040527fd0e30db0000000000000000000000000000000000000000000000000000000007bffffffffffffffffffffffffffffffffffffffffffffffffffffffff19166020820180517bffffffffffffffffffffffffffffffffffffffffffffffffffffffff838183161783525050505060405161231a919061312c565b60006040518083038185875af1925050503d8060008114612357576040519150601f19603f3d011682016040523d82523d6000602084013e61235c565b606091505b5050905080612397576040517f90b8ec1800000000000000000000000000000000000000000000000000000000815260040160405180910390fd5b6123e48585600360009054906101000a900473ffffffffffffffffffffffffffffffffffffffff1673ffffffffffffffffffffffffffffffffffffffff16611b3c9092919063ffffffff16565b505b50612418565b61241783838373ffffffffffffffffffffffffffffffffffffffff16611b3c9092919063ffffffff16565b5b505050565b600061247f826040518060400160405280602081526020017f5361666545524332303a206c6f772d6c6576656c2063616c6c206661696c65648152508573ffffffffffffffffffffffffffffffffffffffff166126249092919063ffffffff16565b90506000815114806124a15750808060200190518101906124a09190612aa4565b5b6124e0576040517f08c379a00000000000000000000000000000000000000000000000000000000081526004016124d79061337d565b60405180910390fd5b505050565b60008114156124f357612598565b60003373ffffffffffffffffffffffffffffffffffffffff168260405161251990613143565b60006040518083038185875af1925050503d8060008114612556576040519150601f19603f3d011682016040523d82523d6000602084013e61255b565b606091505b5050905080612596576040517ff0c49d4400000000000000000000000000000000000000000000000000000000815260040160405180910390fd5b505b50565b61261e846323b872dd60e01b8585856040516024016125bc9392919061319c565b604051602081830303815290604052907bffffffffffffffffffffffffffffffffffffffffffffffffffffffff19166020820180517bffffffffffffffffffffffffffffffffffffffffffffffffffffffff838183161783525050505061241d565b50505050565b6060612633848460008561263c565b90509392505050565b606082471015612681576040517f08c379a00000000000000000000000000000000000000000000000000000000081526004016126789061333d565b60405180910390fd5b6000808673ffffffffffffffffffffffffffffffffffffffff1685876040516126aa919061312c565b60006040518083038185875af1925050503d80600081146126e7576040519150601f19603f3d011682016040523d82523d6000602084013e6126ec565b606091505b50915091506126fd87838387612709565b92505050949350505050565b6060831561276c57600083511415612764576127248561277f565b612763576040517f08c379a000000000000000000000000000000000000000000000000000000000815260040161275a9061335d565b60405180910390fd5b5b829050612777565b61277683836127a2565b5b949350505050565b6000808273ffffffffffffffffffffffffffffffffffffffff163b119050919050565b6000825111156127b55781518083602001fd5b806040517f08c379a00000000000000000000000000000000000000000000000000000000081526004016127e9919061331b565b60405180910390fd5b60405180610100016040528060008152602001600081526020016000815260200160008152602001600073ffffffffffffffffffffffffffffffffffffffff168152602001600067ffffffffffffffff168152602001600063ffffffff1681526020016000151581525090565b600061287261286d846135b6565b613591565b9050808382526020820190508285602086028201111561289557612894613c2d565b5b60005b858110156128c557816128ab8882612966565b845260208401935060208301925050600181019050612898565b5050509392505050565b6000813590506128de81613d40565b92915050565b600082601f8301126128f9576128f8613c28565b5b813561290984826020860161285f565b91505092915050565b60008135905061292181613d57565b92915050565b60008151905061293681613d57565b92915050565b60008151905061294b81613d6e565b92915050565b60008151905061296081613d85565b92915050565b60008135905061297581613d9c565b92915050565b60008151905061298a81613d9c565b92915050565b60008135905061299f81613db3565b92915050565b6000815190506129b481613db3565b92915050565b6000813590506129c981613dca565b92915050565b6000815190506129de81613de1565b92915050565b6000602082840312156129fa576129f9613c37565b5b6000612a08848285016128cf565b91505092915050565b60008060408385031215612a2857612a27613c37565b5b6000612a36858286016128cf565b9250506020612a4785828601612912565b9150509250929050565b600080600060608486031215612a6a57612a69613c37565b5b6000612a78868287016128cf565b9350506020612a8986828701612966565b9250506040612a9a868287016128cf565b9150509250925092565b600060208284031215612aba57612ab9613c37565b5b6000612ac884828501612927565b91505092915050565b600060208284031215612ae757612ae6613c37565b5b6000612af584828501612966565b91505092915050565b600060208284031215612b1457612b13613c37565b5b6000612b228482850161297b565b91505092915050565b60008060008060008060c08789031215612b4857612b47613c37565b5b6000612b5689828a01612966565b9650506020612b6789828a016128cf565b9550506040612b7889828a01612912565b9450506060612b8989828a01612990565b9350506080612b9a89828a01612966565b92505060a0612bab89828a01612966565b9150509295509295509295565b60008060408385031215612bcf57612bce613c37565b5b6000612bdd85828601612966565b925050602083013567ffffffffffffffff811115612bfe57612bfd613c32565b5b612c0a858286016128e4565b9150509250929050565b60008060008060008060008060006101208a8c031215612c3757612c36613c37565b5b6000612c458c828d016129a5565b9950506020612c568c828d016129a5565b9850506040612c678c828d016129a5565b9750506060612c788c828d016129a5565b9650506080612c898c828d016129a5565b95505060a0612c9a8c828d01612951565b94505060c0612cab8c828d01612951565b93505060e0612cbc8c828d01612951565b925050610100612cce8c828d01612951565b9150509295985092959850929598565b600060208284031215612cf457612cf3613c37565b5b6000612d02848285016129ba565b91505092915050565b600080600080600060a08688031215612d2757612d26613c37565b5b6000612d35888289016129cf565b9550506020612d468882890161293c565b9450506040612d578882890161297b565b9350506060612d688882890161297b565b9250506080612d79888289016129cf565b9150509295509295909350565b6000612d9283836130b4565b60208301905092915050565b6000612daa838361311d565b60208301905092915050565b612dbf81613935565b82525050565b612dce81613935565b82525050565b6000612ddf82613602565b612de98185613648565b9350612df4836135e2565b8060005b83811015612e25578151612e0c8882612d86565b9750612e178361362e565b925050600181019050612df8565b5085935050505092915050565b6000612e3d8261360d565b612e478185613659565b9350612e52836135f2565b8060005b83811015612e83578151612e6a8882612d9e565b9750612e758361363b565b925050600181019050612e56565b5085935050505092915050565b612e9981613947565b82525050565b612ea881613947565b82525050565b612eb781613953565b82525050565b6000612ec882613618565b612ed2818561366a565b9350612ee2818560208601613a61565b80840191505092915050565b612ef7816139f5565b82525050565b612f0681613a07565b82525050565b612f1581613a19565b82525050565b6000612f2682613623565b612f308185613675565b9350612f40818560208601613a61565b612f4981613c3c565b840191505092915050565b6000612f61602683613675565b9150612f6c82613c4d565b604082019050919050565b6000612f8460008361366a565b9150612f8f82613c9c565b600082019050919050565b6000612fa7601d83613675565b9150612fb282613c9f565b602082019050919050565b6000612fca602a83613675565b9150612fd582613cc8565b604082019050919050565b6000612fed601f83613675565b9150612ff882613d17565b602082019050919050565b6101008201600082015161301a60008501826130b4565b50602082015161302d60208501826130b4565b50604082015161304060408501826130b4565b50606082015161305360608501826130b4565b5060808201516130666080850182612db6565b5060a082015161307960a08501826130ff565b5060c082015161308c60c08501826130d2565b5060e082015161309f60e0850182612e90565b50505050565b6130ae81613967565b82525050565b6130bd816139a4565b82525050565b6130cc816139a4565b82525050565b6130db816139ae565b82525050565b6130ea816139ae565b82525050565b6130f981613a4f565b82525050565b613108816139be565b82525050565b613117816139be565b82525050565b613126816139d2565b82525050565b60006131388284612ebd565b915081905092915050565b600061314e82612f77565b9150819050919050565b600060208201905061316d6000830184612dc5565b92915050565b60006040820190506131886000830185612dc5565b6131956020830184612dc5565b9392505050565b60006060820190506131b16000830186612dc5565b6131be6020830185612dc5565b6131cb60408301846130c3565b949350505050565b60006040820190506131e86000830185612dc5565b6131f56020830184612e9f565b9392505050565b60006040820190506132116000830185612dc5565b61321e60208301846130c3565b9392505050565b600060608201905061323a6000830186612dc5565b61324760208301856130c3565b6132546040830184612dc5565b949350505050565b60006020820190506132716000830184612e9f565b92915050565b600060a08201905061328c6000830188612eae565b613299602083018761310e565b6132a660408301866130a5565b6132b360608301856130e1565b6132c060808301846130e1565b9695505050505050565b60006020820190506132df6000830184612eee565b92915050565b60006020820190506132fa6000830184612efd565b92915050565b60006020820190506133156000830184612f0c565b92915050565b600060208201905081810360008301526133358184612f1b565b905092915050565b6000602082019050818103600083015261335681612f54565b9050919050565b6000602082019050818103600083015261337681612f9a565b9050919050565b6000602082019050818103600083015261339681612fbd565b9050919050565b600060208201905081810360008301526133b681612fe0565b9050919050565b6000610100820190506133d36000830184613003565b92915050565b60006020820190506133ee60008301846130c3565b92915050565b600060408201905061340960008301856130c3565b6134166020830184612dc5565b9392505050565b600060e082019050613432600083018a6130c3565b61343f6020830189612dc5565b61344c6040830188612e9f565b61345960608301876130e1565b61346660808301866130c3565b61347360a08301856130c3565b61348060c08301846130c3565b98975050505050505050565b60006040820190506134a160008301856130c3565b6134ae60208301846130c3565b9392505050565b600060c0820190506134ca60008301896130c3565b6134d760208301886130c3565b6134e46040830187612dc5565b81810360608301526134f68186612e32565b9050818103608083015261350a8185612dd4565b905061351960a08301846130e1565b979650505050505050565b600060408201905061353960008301856130c3565b61354660208301846130f0565b9392505050565b6000602082019050613562600083018461310e565b92915050565b600060408201905061357d600083018561310e565b61358a602083018461310e565b9392505050565b600061359b6135ac565b90506135a78282613a94565b919050565b6000604051905090565b600067ffffffffffffffff8211156135d1576135d0613bf9565b5b602082029050602081019050919050565b6000819050602082019050919050565b6000819050602082019050919050565b600081519050919050565b600081519050919050565b600081519050919050565b600081519050919050565b6000602082019050919050565b6000602082019050919050565b600082825260208201905092915050565b600082825260208201905092915050565b600081905092915050565b600082825260208201905092915050565b60006136918261395d565b915061369c8361395d565b9250817f7fffffffffffffffffffffffffffffffffffffffffffffffffffffffffffffff038313600083121516156136d7576136d6613b6c565b5b817f800000000000000000000000000000000000000000000000000000000000000003831260008312161561370f5761370e613b6c565b5b828201905092915050565b6000613725826139a4565b9150613730836139a4565b9250827fffffffffffffffffffffffffffffffffffffffffffffffffffffffffffffffff0382111561376557613764613b6c565b5b828201905092915050565b600061377b826139be565b9150613786836139be565b92508267ffffffffffffffff038211156137a3576137a2613b6c565b5b828201905092915050565b60006137b9826139a4565b91506137c4836139a4565b9250826137d4576137d3613b9b565b5b828204905092915050565b60006137ea826139a4565b91506137f5836139a4565b9250817fffffffffffffffffffffffffffffffffffffffffffffffffffffffffffffffff048311821515161561382e5761382d613b6c565b5b828202905092915050565b60006138448261395d565b915061384f8361395d565b9250827f80000000000000000000000000000000000000000000000000000000000000000182126000841215161561388a57613889613b6c565b5b827f7fffffffffffffffffffffffffffffffffffffffffffffffffffffffffffffff0182136000841216156138c2576138c1613b6c565b5b828203905092915050565b60006138d8826139a4565b91506138e3836139a4565b9250828210156138f6576138f5613b6c565b5b828203905092915050565b600061390c826139ae565b9150613917836139ae565b92508282101561392a57613929613b6c565b5b828203905092915050565b600061394082613975565b9050919050565b60008115159050919050565b6000819050919050565b6000819050919050565b600061ffff82169050919050565b600073ffffffffffffffffffffffffffffffffffffffff82169050919050565b600062ffffff82169050919050565b6000819050919050565b600063ffffffff82169050919050565b600067ffffffffffffffff82169050919050565b600060ff82169050919050565b600069ffffffffffffffffffff82169050919050565b6000613a0082613a2b565b9050919050565b6000613a1282613a2b565b9050919050565b6000613a24826139a4565b9050919050565b6000613a3682613a3d565b9050919050565b6000613a4882613975565b9050919050565b6000613a5a826139be565b9050919050565b60005b83811015613a7f578082015181840152602081019050613a64565b83811115613a8e576000848401525b50505050565b613a9d82613c3c565b810181811067ffffffffffffffff82111715613abc57613abb613bf9565b5b80604052505050565b6000613ad0826139ae565b915063ffffffff821415613ae757613ae6613b6c565b5b600182019050919050565b6000613afd826139a4565b9150613b08836139a4565b925082613b1857613b17613b9b565b5b828206905092915050565b6000613b2e8261395d565b91507f8000000000000000000000000000000000000000000000000000000000000000821415613b6157613b60613b6c565b5b816000039050919050565b7f4e487b7100000000000000000000000000000000000000000000000000000000600052601160045260246000fd5b7f4e487b7100000000000000000000000000000000000000000000000000000000600052601260045260246000fd5b7f4e487b7100000000000000000000000000000000000000000000000000000000600052603260045260246000fd5b7f4e487b7100000000000000000000000000000000000000000000000000000000600052604160045260246000fd5b600080fd5b600080fd5b600080fd5b600080fd5b6000601f19601f8301169050919050565b7f416464726573733a20696e73756666696369656e742062616c616e636520666f60008201527f722063616c6c0000000000000000000000000000000000000000000000000000602082015250565b50565b7f416464726573733a2063616c6c20746f206e6f6e2d636f6e7472616374000000600082015250565b7f5361666545524332303a204552433230206f7065726174696f6e20646964206e60008201527f6f74207375636365656400000000000000000000000000000000000000000000602082015250565b7f5265656e7472616e637947756172643a207265656e7472616e742063616c6c00600082015250565b613d4981613935565b8114613d5457600080fd5b50565b613d6081613947565b8114613d6b57600080fd5b50565b613d778161395d565b8114613d8257600080fd5b50565b613d8e81613995565b8114613d9957600080fd5b50565b613da5816139a4565b8114613db057600080fd5b50565b613dbc816139ae565b8114613dc757600080fd5b50565b613dd3816139be565b8114613dde57600080fd5b50565b613dea816139df565b8114613df557600080fd5b5056fea2646970667358221220eabdd6a2a24f6aab29f32ef0c3f992fb81c4506f291e732cde3dfc3520d78bb964736f6c63430008070033","opcodes":"PUSH1 0xE0 PUSH1 0x40 MSTORE CALLVALUE DUP1 ISZERO PUSH3 0x11 JUMPI PUSH1 0x0 DUP1 REVERT JUMPDEST POP PUSH1 0x40 MLOAD PUSH3 0x41DB CODESIZE SUB DUP1 PUSH3 0x41DB DUP4 CODECOPY DUP2 DUP2 ADD PUSH1 0x40 MSTORE DUP2 ADD SWAP1 PUSH3 0x37 SWAP2 SWAP1 PUSH3 0x213 JUMP JUMPDEST DUP6 DUP4 DUP7 DUP7 DUP5 PUSH1 0x1 PUSH1 0x0 DUP2 SWAP1 SSTORE POP DUP3 PUSH20 0xFFFFFFFFFFFFFFFFFFFFFFFFFFFFFFFFFFFFFFFF AND PUSH1 0xA0 DUP2 PUSH20 0xFFFFFFFFFFFFFFFFFFFFFFFFFFFFFFFFFFFFFFFF AND PUSH1 0x60 SHL DUP2 MSTORE POP POP DUP4 PUSH20 0xFFFFFFFFFFFFFFFFFFFFFFFFFFFFFFFFFFFFFFFF AND PUSH1 0x80 DUP2 PUSH20 0xFFFFFFFFFFFFFFFFFFFFFFFFFFFFFFFFFFFFFFFF AND PUSH1 0x60 SHL DUP2 MSTORE POP POP DUP5 PUSH1 0x2 PUSH1 0x0 PUSH2 0x100 EXP DUP2 SLOAD DUP2 PUSH8 0xFFFFFFFFFFFFFFFF MUL NOT AND SWAP1 DUP4 PUSH8 0xFFFFFFFFFFFFFFFF AND MUL OR SWAP1 SSTORE POP CALLER PUSH1 0x2 PUSH1 0x8 PUSH2 0x100 EXP DUP2 SLOAD DUP2 PUSH20 0xFFFFFFFFFFFFFFFFFFFFFFFFFFFFFFFFFFFFFFFF MUL NOT AND SWAP1 DUP4 PUSH20 0xFFFFFFFFFFFFFFFFFFFFFFFFFFFFFFFFFFFFFFFF AND MUL OR SWAP1 SSTORE POP DUP2 PUSH1 0xC0 DUP2 DUP2 MSTORE POP POP DUP1 PUSH1 0x3 PUSH1 0x0 PUSH2 0x100 EXP DUP2 SLOAD DUP2 PUSH20 0xFFFFFFFFFFFFFFFFFFFFFFFFFFFFFFFFFFFFFFFF MUL NOT AND SWAP1 DUP4 PUSH20 0xFFFFFFFFFFFFFFFFFFFFFFFFFFFFFFFFFFFFFFFF AND MUL OR SWAP1 SSTORE POP POP POP POP POP POP PUSH1 0x1 PUSH1 0x6 PUSH1 0x0 DUP5 PUSH20 0xFFFFFFFFFFFFFFFFFFFFFFFFFFFFFFFFFFFFFFFF AND PUSH20 0xFFFFFFFFFFFFFFFFFFFFFFFFFFFFFFFFFFFFFFFF AND DUP2 MSTORE PUSH1 0x20 ADD SWAP1 DUP2 MSTORE PUSH1 0x20 ADD PUSH1 0x0 KECCAK256 PUSH1 0x0 PUSH2 0x100 EXP DUP2 SLOAD DUP2 PUSH1 0xFF MUL NOT AND SWAP1 DUP4 ISZERO ISZERO MUL OR SWAP1 SSTORE POP POP POP POP POP POP POP PUSH3 0x354 JUMP JUMPDEST PUSH1 0x0 DUP2 MLOAD SWAP1 POP PUSH3 0x1DF DUP2 PUSH3 0x306 JUMP JUMPDEST SWAP3 SWAP2 POP POP JUMP JUMPDEST PUSH1 0x0 DUP2 MLOAD SWAP1 POP PUSH3 0x1F6 DUP2 PUSH3 0x320 JUMP JUMPDEST SWAP3 SWAP2 POP POP JUMP JUMPDEST PUSH1 0x0 DUP2 MLOAD SWAP1 POP PUSH3 0x20D DUP2 PUSH3 0x33A JUMP JUMPDEST SWAP3 SWAP2 POP POP JUMP JUMPDEST PUSH1 0x0 DUP1 PUSH1 0x0 DUP1 PUSH1 0x0 DUP1 PUSH1 0xC0 DUP8 DUP10 SUB SLT ISZERO PUSH3 0x233 JUMPI PUSH3 0x232 PUSH3 0x301 JUMP JUMPDEST JUMPDEST PUSH1 0x0 PUSH3 0x243 DUP10 DUP3 DUP11 ADD PUSH3 0x1FC JUMP JUMPDEST SWAP7 POP POP PUSH1 0x20 PUSH3 0x256 DUP10 DUP3 DUP11 ADD PUSH3 0x1CE JUMP JUMPDEST SWAP6 POP POP PUSH1 0x40 PUSH3 0x269 DUP10 DUP3 DUP11 ADD PUSH3 0x1E5 JUMP JUMPDEST SWAP5 POP POP PUSH1 0x60 PUSH3 0x27C DUP10 DUP3 DUP11 ADD PUSH3 0x1CE JUMP JUMPDEST SWAP4 POP POP PUSH1 0x80 PUSH3 0x28F DUP10 DUP3 DUP11 ADD PUSH3 0x1CE JUMP JUMPDEST SWAP3 POP POP PUSH1 0xA0 PUSH3 0x2A2 DUP10 DUP3 DUP11 ADD PUSH3 0x1CE JUMP JUMPDEST SWAP2 POP POP SWAP3 SWAP6 POP SWAP3 SWAP6 POP SWAP3 SWAP6 JUMP JUMPDEST PUSH1 0x0 PUSH3 0x2BC DUP3 PUSH3 0x2CD JUMP JUMPDEST SWAP1 POP SWAP2 SWAP1 POP JUMP JUMPDEST PUSH1 0x0 DUP2 SWAP1 POP SWAP2 SWAP1 POP JUMP JUMPDEST PUSH1 0x0 PUSH20 0xFFFFFFFFFFFFFFFFFFFFFFFFFFFFFFFFFFFFFFFF DUP3 AND SWAP1 POP SWAP2 SWAP1 POP JUMP JUMPDEST PUSH1 0x0 PUSH8 0xFFFFFFFFFFFFFFFF DUP3 AND SWAP1 POP SWAP2 SWAP1 POP JUMP JUMPDEST PUSH1 0x0 DUP1 REVERT JUMPDEST PUSH3 0x311 DUP2 PUSH3 0x2AF JUMP JUMPDEST DUP2 EQ PUSH3 0x31D JUMPI PUSH1 0x0 DUP1 REVERT JUMPDEST POP JUMP JUMPDEST PUSH3 0x32B DUP2 PUSH3 0x2C3 JUMP JUMPDEST DUP2 EQ PUSH3 0x337 JUMPI PUSH1 0x0 DUP1 REVERT JUMPDEST POP JUMP JUMPDEST PUSH3 0x345 DUP2 PUSH3 0x2ED JUMP JUMPDEST DUP2 EQ PUSH3 0x351 JUMPI PUSH1 0x0 DUP1 REVERT JUMPDEST POP JUMP JUMPDEST PUSH1 0x80 MLOAD PUSH1 0x60 SHR PUSH1 0xA0 MLOAD PUSH1 0x60 SHR PUSH1 0xC0 MLOAD PUSH2 0x3E2E PUSH3 0x3AD PUSH1 0x0 CODECOPY PUSH1 0x0 PUSH2 0x1F73 ADD MSTORE PUSH1 0x0 DUP2 DUP2 PUSH2 0x42B ADD MSTORE DUP2 DUP2 PUSH2 0x47F ADD MSTORE DUP2 DUP2 PUSH2 0x5D9 ADD MSTORE DUP2 DUP2 PUSH2 0x116D ADD MSTORE PUSH2 0x1F37 ADD MSTORE PUSH1 0x0 DUP2 DUP2 PUSH2 0x10C7 ADD MSTORE PUSH2 0x12D4 ADD MSTORE PUSH2 0x3E2E PUSH1 0x0 RETURN INVALID PUSH1 0x80 PUSH1 0x40 MSTORE PUSH1 0x4 CALLDATASIZE LT PUSH2 0x102 JUMPI PUSH1 0x0 CALLDATALOAD PUSH1 0xE0 SHR DUP1 PUSH4 0x8AC00021 GT PUSH2 0x95 JUMPI DUP1 PUSH4 0x996C6CC3 GT PUSH2 0x64 JUMPI DUP1 PUSH4 0x996C6CC3 EQ PUSH2 0x344 JUMPI DUP1 PUSH4 0xAD178361 EQ PUSH2 0x36F JUMPI DUP1 PUSH4 0xB400C231 EQ PUSH2 0x39A JUMPI DUP1 PUSH4 0xF2FDE38B EQ PUSH2 0x3C3 JUMPI DUP1 PUSH4 0xF9EAEE0D EQ PUSH2 0x3EC JUMPI PUSH2 0x142 JUMP JUMPDEST DUP1 PUSH4 0x8AC00021 EQ PUSH2 0x286 JUMPI DUP1 PUSH4 0x8BD16114 EQ PUSH2 0x2B1 JUMPI DUP1 PUSH4 0x8D7C16D2 EQ PUSH2 0x2EE JUMPI DUP1 PUSH4 0x8DA5CB5B EQ PUSH2 0x319 JUMPI PUSH2 0x142 JUMP JUMPDEST DUP1 PUSH4 0x63DC4EF5 GT PUSH2 0xD1 JUMPI DUP1 PUSH4 0x63DC4EF5 EQ PUSH2 0x1DB JUMPI DUP1 PUSH4 0x6D974773 EQ PUSH2 0x204 JUMPI DUP1 PUSH4 0x7AB77648 EQ PUSH2 0x220 JUMPI DUP1 PUSH4 0x7DF31284 EQ PUSH2 0x249 JUMPI PUSH2 0x142 JUMP JUMPDEST DUP1 PUSH4 0x1FE543E3 EQ PUSH2 0x147 JUMPI DUP1 PUSH4 0x3816A292 EQ PUSH2 0x170 JUMPI DUP1 PUSH4 0x3B2BCBF1 EQ PUSH2 0x199 JUMPI DUP1 PUSH4 0x522D2C24 EQ PUSH2 0x1C4 JUMPI PUSH2 0x142 JUMP JUMPDEST CALLDATASIZE PUSH2 0x142 JUMPI PUSH32 0x88A5966D370B9919B20F3E2C13FF65706F196A4E32CC2C12BF57088F88525874 CALLER CALLVALUE PUSH1 0x40 MLOAD PUSH2 0x138 SWAP3 SWAP2 SWAP1 PUSH2 0x31FC JUMP JUMPDEST PUSH1 0x40 MLOAD DUP1 SWAP2 SUB SWAP1 LOG1 STOP JUMPDEST PUSH1 0x0 DUP1 REVERT JUMPDEST CALLVALUE DUP1 ISZERO PUSH2 0x153 JUMPI PUSH1 0x0 DUP1 REVERT JUMPDEST POP PUSH2 0x16E PUSH1 0x4 DUP1 CALLDATASIZE SUB DUP2 ADD SWAP1 PUSH2 0x169 SWAP2 SWAP1 PUSH2 0x2BB8 JUMP JUMPDEST PUSH2 0x429 JUMP JUMPDEST STOP JUMPDEST CALLVALUE DUP1 ISZERO PUSH2 0x17C JUMPI PUSH1 0x0 DUP1 REVERT JUMPDEST POP PUSH2 0x197 PUSH1 0x4 DUP1 CALLDATASIZE SUB DUP2 ADD SWAP1 PUSH2 0x192 SWAP2 SWAP1 PUSH2 0x2A11 JUMP JUMPDEST PUSH2 0x4E9 JUMP JUMPDEST STOP JUMPDEST CALLVALUE DUP1 ISZERO PUSH2 0x1A5 JUMPI PUSH1 0x0 DUP1 REVERT JUMPDEST POP PUSH2 0x1AE PUSH2 0x5D7 JUMP JUMPDEST PUSH1 0x40 MLOAD PUSH2 0x1BB SWAP2 SWAP1 PUSH2 0x32E5 JUMP JUMPDEST PUSH1 0x40 MLOAD DUP1 SWAP2 SUB SWAP1 RETURN JUMPDEST CALLVALUE DUP1 ISZERO PUSH2 0x1D0 JUMPI PUSH1 0x0 DUP1 REVERT JUMPDEST POP PUSH2 0x1D9 PUSH2 0x5FB JUMP JUMPDEST STOP JUMPDEST CALLVALUE DUP1 ISZERO PUSH2 0x1E7 JUMPI PUSH1 0x0 DUP1 REVERT JUMPDEST POP PUSH2 0x202 PUSH1 0x4 DUP1 CALLDATASIZE SUB DUP2 ADD SWAP1 PUSH2 0x1FD SWAP2 SWAP1 PUSH2 0x29E4 JUMP JUMPDEST PUSH2 0x9E5 JUMP JUMPDEST STOP JUMPDEST PUSH2 0x21E PUSH1 0x4 DUP1 CALLDATASIZE SUB DUP2 ADD SWAP1 PUSH2 0x219 SWAP2 SWAP1 PUSH2 0x2B2B JUMP JUMPDEST PUSH2 0xB06 JUMP JUMPDEST STOP JUMPDEST CALLVALUE DUP1 ISZERO PUSH2 0x22C JUMPI PUSH1 0x0 DUP1 REVERT JUMPDEST POP PUSH2 0x247 PUSH1 0x4 DUP1 CALLDATASIZE SUB DUP2 ADD SWAP1 PUSH2 0x242 SWAP2 SWAP1 PUSH2 0x2A51 JUMP JUMPDEST PUSH2 0xEB8 JUMP JUMPDEST STOP JUMPDEST CALLVALUE DUP1 ISZERO PUSH2 0x255 JUMPI PUSH1 0x0 DUP1 REVERT JUMPDEST POP PUSH2 0x270 PUSH1 0x4 DUP1 CALLDATASIZE SUB DUP2 ADD SWAP1 PUSH2 0x26B SWAP2 SWAP1 PUSH2 0x29E4 JUMP JUMPDEST PUSH2 0xF5D JUMP JUMPDEST PUSH1 0x40 MLOAD PUSH2 0x27D SWAP2 SWAP1 PUSH2 0x33BD JUMP JUMPDEST PUSH1 0x40 MLOAD DUP1 SWAP2 SUB SWAP1 RETURN JUMPDEST CALLVALUE DUP1 ISZERO PUSH2 0x292 JUMPI PUSH1 0x0 DUP1 REVERT JUMPDEST POP PUSH2 0x29B PUSH2 0x10A8 JUMP JUMPDEST PUSH1 0x40 MLOAD PUSH2 0x2A8 SWAP2 SWAP1 PUSH2 0x354D JUMP JUMPDEST PUSH1 0x40 MLOAD DUP1 SWAP2 SUB SWAP1 RETURN JUMPDEST CALLVALUE DUP1 ISZERO PUSH2 0x2BD JUMPI PUSH1 0x0 DUP1 REVERT JUMPDEST POP PUSH2 0x2D8 PUSH1 0x4 DUP1 CALLDATASIZE SUB DUP2 ADD SWAP1 PUSH2 0x2D3 SWAP2 SWAP1 PUSH2 0x2AD1 JUMP JUMPDEST PUSH2 0x10C2 JUMP JUMPDEST PUSH1 0x40 MLOAD PUSH2 0x2E5 SWAP2 SWAP1 PUSH2 0x33D9 JUMP JUMPDEST PUSH1 0x40 MLOAD DUP1 SWAP2 SUB SWAP1 RETURN JUMPDEST CALLVALUE DUP1 ISZERO PUSH2 0x2FA JUMPI PUSH1 0x0 DUP1 REVERT JUMPDEST POP PUSH2 0x303 PUSH2 0x1280 JUMP JUMPDEST PUSH1 0x40 MLOAD PUSH2 0x310 SWAP2 SWAP1 PUSH2 0x33D9 JUMP JUMPDEST PUSH1 0x40 MLOAD DUP1 SWAP2 SUB SWAP1 RETURN JUMPDEST CALLVALUE DUP1 ISZERO PUSH2 0x325 JUMPI PUSH1 0x0 DUP1 REVERT JUMPDEST POP PUSH2 0x32E PUSH2 0x1286 JUMP JUMPDEST PUSH1 0x40 MLOAD PUSH2 0x33B SWAP2 SWAP1 PUSH2 0x3158 JUMP JUMPDEST PUSH1 0x40 MLOAD DUP1 SWAP2 SUB SWAP1 RETURN JUMPDEST CALLVALUE DUP1 ISZERO PUSH2 0x350 JUMPI PUSH1 0x0 DUP1 REVERT JUMPDEST POP PUSH2 0x359 PUSH2 0x12AC JUMP JUMPDEST PUSH1 0x40 MLOAD PUSH2 0x366 SWAP2 SWAP1 PUSH2 0x3158 JUMP JUMPDEST PUSH1 0x40 MLOAD DUP1 SWAP2 SUB SWAP1 RETURN JUMPDEST CALLVALUE DUP1 ISZERO PUSH2 0x37B JUMPI PUSH1 0x0 DUP1 REVERT JUMPDEST POP PUSH2 0x384 PUSH2 0x12D2 JUMP JUMPDEST PUSH1 0x40 MLOAD PUSH2 0x391 SWAP2 SWAP1 PUSH2 0x32CA JUMP JUMPDEST PUSH1 0x40 MLOAD DUP1 SWAP2 SUB SWAP1 RETURN JUMPDEST CALLVALUE DUP1 ISZERO PUSH2 0x3A6 JUMPI PUSH1 0x0 DUP1 REVERT JUMPDEST POP PUSH2 0x3C1 PUSH1 0x4 DUP1 CALLDATASIZE SUB DUP2 ADD SWAP1 PUSH2 0x3BC SWAP2 SWAP1 PUSH2 0x2CDE JUMP JUMPDEST PUSH2 0x12F6 JUMP JUMPDEST STOP JUMPDEST CALLVALUE DUP1 ISZERO PUSH2 0x3CF JUMPI PUSH1 0x0 DUP1 REVERT JUMPDEST POP PUSH2 0x3EA PUSH1 0x4 DUP1 CALLDATASIZE SUB DUP2 ADD SWAP1 PUSH2 0x3E5 SWAP2 SWAP1 PUSH2 0x29E4 JUMP JUMPDEST PUSH2 0x13AB JUMP JUMPDEST STOP JUMPDEST CALLVALUE DUP1 ISZERO PUSH2 0x3F8 JUMPI PUSH1 0x0 DUP1 REVERT JUMPDEST POP PUSH2 0x413 PUSH1 0x4 DUP1 CALLDATASIZE SUB DUP2 ADD SWAP1 PUSH2 0x40E SWAP2 SWAP1 PUSH2 0x29E4 JUMP JUMPDEST PUSH2 0x146C JUMP JUMPDEST PUSH1 0x40 MLOAD PUSH2 0x420 SWAP2 SWAP1 PUSH2 0x325C JUMP JUMPDEST PUSH1 0x40 MLOAD DUP1 SWAP2 SUB SWAP1 RETURN JUMPDEST PUSH32 0x0 PUSH20 0xFFFFFFFFFFFFFFFFFFFFFFFFFFFFFFFFFFFFFFFF AND CALLER PUSH20 0xFFFFFFFFFFFFFFFFFFFFFFFFFFFFFFFFFFFFFFFF AND EQ PUSH2 0x4DB JUMPI CALLER PUSH32 0x0 PUSH1 0x40 MLOAD PUSH32 0x1CF993F400000000000000000000000000000000000000000000000000000000 DUP2 MSTORE PUSH1 0x4 ADD PUSH2 0x4D2 SWAP3 SWAP2 SWAP1 PUSH2 0x3173 JUMP JUMPDEST PUSH1 0x40 MLOAD DUP1 SWAP2 SUB SWAP1 REVERT JUMPDEST PUSH2 0x4E5 DUP3 DUP3 PUSH2 0x148C JUMP JUMPDEST POP POP JUMP JUMPDEST PUSH1 0x2 PUSH1 0x8 SWAP1 SLOAD SWAP1 PUSH2 0x100 EXP SWAP1 DIV PUSH20 0xFFFFFFFFFFFFFFFFFFFFFFFFFFFFFFFFFFFFFFFF AND PUSH20 0xFFFFFFFFFFFFFFFFFFFFFFFFFFFFFFFFFFFFFFFF AND CALLER PUSH20 0xFFFFFFFFFFFFFFFFFFFFFFFFFFFFFFFFFFFFFFFF AND EQ PUSH2 0x543 JUMPI PUSH1 0x0 DUP1 REVERT JUMPDEST PUSH32 0xAEA999D0ABC245B3EA43D19C7D13FCA5B53DEE3ADFDC8CCA1D48B4A6A48437C8 DUP3 DUP3 PUSH1 0x40 MLOAD PUSH2 0x574 SWAP3 SWAP2 SWAP1 PUSH2 0x31D3 JUMP JUMPDEST PUSH1 0x40 MLOAD DUP1 SWAP2 SUB SWAP1 LOG1 DUP1 PUSH1 0x6 PUSH1 0x0 DUP5 PUSH20 0xFFFFFFFFFFFFFFFFFFFFFFFFFFFFFFFFFFFFFFFF AND PUSH20 0xFFFFFFFFFFFFFFFFFFFFFFFFFFFFFFFFFFFFFFFF AND DUP2 MSTORE PUSH1 0x20 ADD SWAP1 DUP2 MSTORE PUSH1 0x20 ADD PUSH1 0x0 KECCAK256 PUSH1 0x0 PUSH2 0x100 EXP DUP2 SLOAD DUP2 PUSH1 0xFF MUL NOT AND SWAP1 DUP4 ISZERO ISZERO MUL OR SWAP1 SSTORE POP POP POP JUMP JUMPDEST PUSH32 0x0 DUP2 JUMP JUMPDEST PUSH2 0x603 PUSH2 0x1AEC JUMP JUMPDEST PUSH1 0x0 PUSH1 0x4 PUSH1 0x0 CALLER PUSH20 0xFFFFFFFFFFFFFFFFFFFFFFFFFFFFFFFFFFFFFFFF AND PUSH20 0xFFFFFFFFFFFFFFFFFFFFFFFFFFFFFFFFFFFFFFFF AND DUP2 MSTORE PUSH1 0x20 ADD SWAP1 DUP2 MSTORE PUSH1 0x20 ADD PUSH1 0x0 KECCAK256 SWAP1 POP PUSH1 0x0 DUP2 PUSH1 0x3 ADD SLOAD EQ ISZERO PUSH2 0x685 JUMPI PUSH1 0x40 MLOAD PUSH32 0x49050B3000000000000000000000000000000000000000000000000000000000 DUP2 MSTORE PUSH1 0x4 ADD PUSH1 0x40 MLOAD DUP1 SWAP2 SUB SWAP1 REVERT JUMPDEST NUMBER PUSH1 0x64 DUP3 PUSH1 0x4 ADD PUSH1 0x14 SWAP1 SLOAD SWAP1 PUSH2 0x100 EXP SWAP1 DIV PUSH8 0xFFFFFFFFFFFFFFFF AND PUSH2 0x6AB SWAP2 SWAP1 PUSH2 0x3770 JUMP JUMPDEST PUSH8 0xFFFFFFFFFFFFFFFF AND GT ISZERO PUSH2 0x71E JUMPI NUMBER PUSH1 0x64 DUP3 PUSH1 0x4 ADD PUSH1 0x14 SWAP1 SLOAD SWAP1 PUSH2 0x100 EXP SWAP1 DIV PUSH8 0xFFFFFFFFFFFFFFFF AND PUSH2 0x6E1 SWAP2 SWAP1 PUSH2 0x3770 JUMP JUMPDEST PUSH1 0x40 MLOAD PUSH32 0xB4AE675A00000000000000000000000000000000000000000000000000000000 DUP2 MSTORE PUSH1 0x4 ADD PUSH2 0x715 SWAP3 SWAP2 SWAP1 PUSH2 0x3524 JUMP JUMPDEST PUSH1 0x40 MLOAD DUP1 SWAP2 SUB SWAP1 REVERT JUMPDEST PUSH1 0x0 DUP2 PUSH1 0x4 ADD PUSH1 0x1C SWAP1 SLOAD SWAP1 PUSH2 0x100 EXP SWAP1 DIV PUSH4 0xFFFFFFFF AND PUSH4 0xFFFFFFFF AND DUP3 PUSH1 0x0 ADD SLOAD PUSH2 0x74A SWAP2 SWAP1 PUSH2 0x37DF JUMP JUMPDEST SWAP1 POP PUSH1 0x0 DUP3 PUSH1 0x4 ADD PUSH1 0x0 SWAP1 SLOAD SWAP1 PUSH2 0x100 EXP SWAP1 DIV PUSH20 0xFFFFFFFFFFFFFFFFFFFFFFFFFFFFFFFFFFFFFFFF AND SWAP1 POP PUSH1 0x5 PUSH1 0x0 DUP5 PUSH1 0x3 ADD SLOAD DUP2 MSTORE PUSH1 0x20 ADD SWAP1 DUP2 MSTORE PUSH1 0x20 ADD PUSH1 0x0 KECCAK256 PUSH1 0x0 PUSH2 0x100 EXP DUP2 SLOAD SWAP1 PUSH20 0xFFFFFFFFFFFFFFFFFFFFFFFFFFFFFFFFFFFFFFFF MUL NOT AND SWAP1 SSTORE PUSH1 0x4 PUSH1 0x0 CALLER PUSH20 0xFFFFFFFFFFFFFFFFFFFFFFFFFFFFFFFFFFFFFFFF AND PUSH20 0xFFFFFFFFFFFFFFFFFFFFFFFFFFFFFFFFFFFFFFFF AND DUP2 MSTORE PUSH1 0x20 ADD SWAP1 DUP2 MSTORE PUSH1 0x20 ADD PUSH1 0x0 KECCAK256 PUSH1 0x0 DUP1 DUP3 ADD PUSH1 0x0 SWAP1 SSTORE PUSH1 0x1 DUP3 ADD PUSH1 0x0 SWAP1 SSTORE PUSH1 0x2 DUP3 ADD PUSH1 0x0 SWAP1 SSTORE PUSH1 0x3 DUP3 ADD PUSH1 0x0 SWAP1 SSTORE PUSH1 0x4 DUP3 ADD PUSH1 0x0 PUSH2 0x100 EXP DUP2 SLOAD SWAP1 PUSH20 0xFFFFFFFFFFFFFFFFFFFFFFFFFFFFFFFFFFFFFFFF MUL NOT AND SWAP1 SSTORE PUSH1 0x4 DUP3 ADD PUSH1 0x14 PUSH2 0x100 EXP DUP2 SLOAD SWAP1 PUSH8 0xFFFFFFFFFFFFFFFF MUL NOT AND SWAP1 SSTORE PUSH1 0x4 DUP3 ADD PUSH1 0x1C PUSH2 0x100 EXP DUP2 SLOAD SWAP1 PUSH4 0xFFFFFFFF MUL NOT AND SWAP1 SSTORE PUSH1 0x5 DUP3 ADD PUSH1 0x0 PUSH2 0x100 EXP DUP2 SLOAD SWAP1 PUSH1 0xFF MUL NOT AND SWAP1 SSTORE POP POP PUSH1 0x0 PUSH20 0xFFFFFFFFFFFFFFFFFFFFFFFFFFFFFFFFFFFFFFFF AND DUP2 PUSH20 0xFFFFFFFFFFFFFFFFFFFFFFFFFFFFFFFFFFFFFFFF AND EQ ISZERO PUSH2 0x95C JUMPI PUSH1 0x0 CALLER PUSH20 0xFFFFFFFFFFFFFFFFFFFFFFFFFFFFFFFFFFFFFFFF AND DUP4 PUSH1 0x40 MLOAD PUSH2 0x8D9 SWAP1 PUSH2 0x3143 JUMP JUMPDEST PUSH1 0x0 PUSH1 0x40 MLOAD DUP1 DUP4 SUB DUP2 DUP6 DUP8 GAS CALL SWAP3 POP POP POP RETURNDATASIZE DUP1 PUSH1 0x0 DUP2 EQ PUSH2 0x916 JUMPI PUSH1 0x40 MLOAD SWAP2 POP PUSH1 0x1F NOT PUSH1 0x3F RETURNDATASIZE ADD AND DUP3 ADD PUSH1 0x40 MSTORE RETURNDATASIZE DUP3 MSTORE RETURNDATASIZE PUSH1 0x0 PUSH1 0x20 DUP5 ADD RETURNDATACOPY PUSH2 0x91B JUMP JUMPDEST PUSH1 0x60 SWAP2 POP JUMPDEST POP POP SWAP1 POP DUP1 PUSH2 0x956 JUMPI PUSH1 0x40 MLOAD PUSH32 0x90B8EC1800000000000000000000000000000000000000000000000000000000 DUP2 MSTORE PUSH1 0x4 ADD PUSH1 0x40 MLOAD DUP1 SWAP2 SUB SWAP1 REVERT JUMPDEST POP PUSH2 0x988 JUMP JUMPDEST PUSH2 0x987 CALLER DUP4 DUP4 PUSH20 0xFFFFFFFFFFFFFFFFFFFFFFFFFFFFFFFFFFFFFFFF AND PUSH2 0x1B3C SWAP1 SWAP3 SWAP2 SWAP1 PUSH4 0xFFFFFFFF AND JUMP JUMPDEST JUMPDEST CALLER PUSH20 0xFFFFFFFFFFFFFFFFFFFFFFFFFFFFFFFFFFFFFFFF AND PUSH32 0x60F5EC2F86C0CF8AE72815B61B05473A9382C1C34A74749680302B342C04138A DUP4 DUP4 PUSH1 0x40 MLOAD PUSH2 0x9D0 SWAP3 SWAP2 SWAP1 PUSH2 0x33F4 JUMP JUMPDEST PUSH1 0x40 MLOAD DUP1 SWAP2 SUB SWAP1 LOG2 POP POP POP PUSH2 0x9E3 PUSH2 0x1BC2 JUMP JUMPDEST JUMP JUMPDEST PUSH2 0x9ED PUSH2 0x1AEC JUMP JUMPDEST PUSH1 0x2 PUSH1 0x8 SWAP1 SLOAD SWAP1 PUSH2 0x100 EXP SWAP1 DIV PUSH20 0xFFFFFFFFFFFFFFFFFFFFFFFFFFFFFFFFFFFFFFFF AND PUSH20 0xFFFFFFFFFFFFFFFFFFFFFFFFFFFFFFFFFFFFFFFF AND CALLER PUSH20 0xFFFFFFFFFFFFFFFFFFFFFFFFFFFFFFFFFFFFFFFF AND EQ PUSH2 0xA47 JUMPI PUSH1 0x0 DUP1 REVERT JUMPDEST PUSH1 0x0 PUSH1 0x1 SLOAD SWAP1 POP PUSH1 0x0 PUSH1 0x1 DUP2 SWAP1 SSTORE POP PUSH1 0x0 DUP3 PUSH20 0xFFFFFFFFFFFFFFFFFFFFFFFFFFFFFFFFFFFFFFFF AND DUP3 PUSH1 0x40 MLOAD PUSH2 0xA7C SWAP1 PUSH2 0x3143 JUMP JUMPDEST PUSH1 0x0 PUSH1 0x40 MLOAD DUP1 DUP4 SUB DUP2 DUP6 DUP8 GAS CALL SWAP3 POP POP POP RETURNDATASIZE DUP1 PUSH1 0x0 DUP2 EQ PUSH2 0xAB9 JUMPI PUSH1 0x40 MLOAD SWAP2 POP PUSH1 0x1F NOT PUSH1 0x3F RETURNDATASIZE ADD AND DUP3 ADD PUSH1 0x40 MSTORE RETURNDATASIZE DUP3 MSTORE RETURNDATASIZE PUSH1 0x0 PUSH1 0x20 DUP5 ADD RETURNDATACOPY PUSH2 0xABE JUMP JUMPDEST PUSH1 0x60 SWAP2 POP JUMPDEST POP POP SWAP1 POP DUP1 PUSH2 0xAF9 JUMPI PUSH1 0x40 MLOAD PUSH32 0x90B8EC1800000000000000000000000000000000000000000000000000000000 DUP2 MSTORE PUSH1 0x4 ADD PUSH1 0x40 MLOAD DUP1 SWAP2 SUB SWAP1 REVERT JUMPDEST POP POP PUSH2 0xB03 PUSH2 0x1BC2 JUMP JUMPDEST POP JUMP JUMPDEST PUSH2 0xB0E PUSH2 0x1AEC JUMP JUMPDEST PUSH1 0x0 PUSH1 0x4 PUSH1 0x0 CALLER PUSH20 0xFFFFFFFFFFFFFFFFFFFFFFFFFFFFFFFFFFFFFFFF AND PUSH20 0xFFFFFFFFFFFFFFFFFFFFFFFFFFFFFFFFFFFFFFFF AND DUP2 MSTORE PUSH1 0x20 ADD SWAP1 DUP2 MSTORE PUSH1 0x20 ADD PUSH1 0x0 KECCAK256 PUSH1 0x3 ADD SLOAD EQ PUSH2 0xBD7 JUMPI PUSH1 0x4 PUSH1 0x0 CALLER PUSH20 0xFFFFFFFFFFFFFFFFFFFFFFFFFFFFFFFFFFFFFFFF AND PUSH20 0xFFFFFFFFFFFFFFFFFFFFFFFFFFFFFFFFFFFFFFFF AND DUP2 MSTORE PUSH1 0x20 ADD SWAP1 DUP2 MSTORE PUSH1 0x20 ADD PUSH1 0x0 KECCAK256 PUSH1 0x3 ADD SLOAD PUSH1 0x40 MLOAD PUSH32 0x440DB96E00000000000000000000000000000000000000000000000000000000 DUP2 MSTORE PUSH1 0x4 ADD PUSH2 0xBCE SWAP2 SWAP1 PUSH2 0x33D9 JUMP JUMPDEST PUSH1 0x40 MLOAD DUP1 SWAP2 SUB SWAP1 REVERT JUMPDEST PUSH1 0x0 DUP4 PUSH4 0xFFFFFFFF AND GT DUP1 ISZERO PUSH2 0xBF4 JUMPI POP PUSH1 0x64 DUP4 PUSH4 0xFFFFFFFF AND GT ISZERO JUMPDEST PUSH2 0xC36 JUMPI PUSH1 0x64 PUSH1 0x40 MLOAD PUSH32 0x9310749100000000000000000000000000000000000000000000000000000000 DUP2 MSTORE PUSH1 0x4 ADD PUSH2 0xC2D SWAP2 SWAP1 PUSH2 0x3300 JUMP JUMPDEST PUSH1 0x40 MLOAD DUP1 SWAP2 SUB SWAP1 REVERT JUMPDEST PUSH2 0xC40 DUP7 DUP7 PUSH2 0x1BCC JUMP JUMPDEST PUSH1 0x0 PUSH2 0xC62 DUP7 DUP6 PUSH4 0xFFFFFFFF AND DUP10 PUSH2 0xC58 SWAP2 SWAP1 PUSH2 0x37DF JUMP JUMPDEST PUSH3 0xAAE60 CALLER PUSH2 0x1D8C JUMP JUMPDEST SWAP1 POP PUSH1 0x0 PUSH2 0xC6F DUP6 PUSH2 0x1F33 JUMP JUMPDEST SWAP1 POP PUSH1 0x40 MLOAD DUP1 PUSH2 0x100 ADD PUSH1 0x40 MSTORE DUP1 DUP10 DUP2 MSTORE PUSH1 0x20 ADD DUP6 DUP2 MSTORE PUSH1 0x20 ADD DUP5 DUP2 MSTORE PUSH1 0x20 ADD DUP3 DUP2 MSTORE PUSH1 0x20 ADD DUP9 PUSH20 0xFFFFFFFFFFFFFFFFFFFFFFFFFFFFFFFFFFFFFFFF AND DUP2 MSTORE PUSH1 0x20 ADD NUMBER PUSH8 0xFFFFFFFFFFFFFFFF AND DUP2 MSTORE PUSH1 0x20 ADD DUP7 PUSH4 0xFFFFFFFF AND DUP2 MSTORE PUSH1 0x20 ADD DUP8 ISZERO ISZERO DUP2 MSTORE POP PUSH1 0x4 PUSH1 0x0 CALLER PUSH20 0xFFFFFFFFFFFFFFFFFFFFFFFFFFFFFFFFFFFFFFFF AND PUSH20 0xFFFFFFFFFFFFFFFFFFFFFFFFFFFFFFFFFFFFFFFF AND DUP2 MSTORE PUSH1 0x20 ADD SWAP1 DUP2 MSTORE PUSH1 0x20 ADD PUSH1 0x0 KECCAK256 PUSH1 0x0 DUP3 ADD MLOAD DUP2 PUSH1 0x0 ADD SSTORE PUSH1 0x20 DUP3 ADD MLOAD DUP2 PUSH1 0x1 ADD SSTORE PUSH1 0x40 DUP3 ADD MLOAD DUP2 PUSH1 0x2 ADD SSTORE PUSH1 0x60 DUP3 ADD MLOAD DUP2 PUSH1 0x3 ADD SSTORE PUSH1 0x80 DUP3 ADD MLOAD DUP2 PUSH1 0x4 ADD PUSH1 0x0 PUSH2 0x100 EXP DUP2 SLOAD DUP2 PUSH20 0xFFFFFFFFFFFFFFFFFFFFFFFFFFFFFFFFFFFFFFFF MUL NOT AND SWAP1 DUP4 PUSH20 0xFFFFFFFFFFFFFFFFFFFFFFFFFFFFFFFFFFFFFFFF AND MUL OR SWAP1 SSTORE POP PUSH1 0xA0 DUP3 ADD MLOAD DUP2 PUSH1 0x4 ADD PUSH1 0x14 PUSH2 0x100 EXP DUP2 SLOAD DUP2 PUSH8 0xFFFFFFFFFFFFFFFF MUL NOT AND SWAP1 DUP4 PUSH8 0xFFFFFFFFFFFFFFFF AND MUL OR SWAP1 SSTORE POP PUSH1 0xC0 DUP3 ADD MLOAD DUP2 PUSH1 0x4 ADD PUSH1 0x1C PUSH2 0x100 EXP DUP2 SLOAD DUP2 PUSH4 0xFFFFFFFF MUL NOT AND SWAP1 DUP4 PUSH4 0xFFFFFFFF AND MUL OR SWAP1 SSTORE POP PUSH1 0xE0 DUP3 ADD MLOAD DUP2 PUSH1 0x5 ADD PUSH1 0x0 PUSH2 0x100 EXP DUP2 SLOAD DUP2 PUSH1 0xFF MUL NOT AND SWAP1 DUP4 ISZERO ISZERO MUL OR SWAP1 SSTORE POP SWAP1 POP POP CALLER PUSH1 0x5 PUSH1 0x0 DUP4 DUP2 MSTORE PUSH1 0x20 ADD SWAP1 DUP2 MSTORE PUSH1 0x20 ADD PUSH1 0x0 KECCAK256 PUSH1 0x0 PUSH2 0x100 EXP DUP2 SLOAD DUP2 PUSH20 0xFFFFFFFFFFFFFFFFFFFFFFFFFFFFFFFFFFFFFFFF MUL NOT AND SWAP1 DUP4 PUSH20 0xFFFFFFFFFFFFFFFFFFFFFFFFFFFFFFFFFFFFFFFF AND MUL OR SWAP1 SSTORE POP CALLER PUSH20 0xFFFFFFFFFFFFFFFFFFFFFFFFFFFFFFFFFFFFFFFF AND PUSH32 0x9802308245DC39EC39C453355C93A84C961F728DB54B5ADEAAD1CD29AA6F3F73 DUP10 DUP10 DUP10 DUP10 DUP10 DUP10 DUP10 PUSH1 0x40 MLOAD PUSH2 0xE9E SWAP8 SWAP7 SWAP6 SWAP5 SWAP4 SWAP3 SWAP2 SWAP1 PUSH2 0x341D JUMP JUMPDEST PUSH1 0x40 MLOAD DUP1 SWAP2 SUB SWAP1 LOG2 POP POP PUSH2 0xEB0 PUSH2 0x1BC2 JUMP JUMPDEST POP POP POP POP POP POP JUMP JUMPDEST PUSH1 0x2 PUSH1 0x8 SWAP1 SLOAD SWAP1 PUSH2 0x100 EXP SWAP1 DIV PUSH20 0xFFFFFFFFFFFFFFFFFFFFFFFFFFFFFFFFFFFFFFFF AND PUSH20 0xFFFFFFFFFFFFFFFFFFFFFFFFFFFFFFFFFFFFFFFF AND CALLER PUSH20 0xFFFFFFFFFFFFFFFFFFFFFFFFFFFFFFFFFFFFFFFF AND EQ PUSH2 0xF12 JUMPI PUSH1 0x0 DUP1 REVERT JUMPDEST PUSH32 0x593D716566B4464BF0B779610F37202E3AA235093CC97C461D3C64A7F8E95B9E DUP4 DUP4 DUP4 PUSH1 0x40 MLOAD PUSH2 0xF45 SWAP4 SWAP3 SWAP2 SWAP1 PUSH2 0x3225 JUMP JUMPDEST PUSH1 0x40 MLOAD DUP1 SWAP2 SUB SWAP1 LOG1 PUSH2 0xF58 DUP4 DUP4 DUP4 PUSH2 0x2029 JUMP JUMPDEST POP POP POP JUMP JUMPDEST PUSH2 0xF65 PUSH2 0x27F2 JUMP JUMPDEST PUSH1 0x4 PUSH1 0x0 DUP4 PUSH20 0xFFFFFFFFFFFFFFFFFFFFFFFFFFFFFFFFFFFFFFFF AND PUSH20 0xFFFFFFFFFFFFFFFFFFFFFFFFFFFFFFFFFFFFFFFF AND DUP2 MSTORE PUSH1 0x20 ADD SWAP1 DUP2 MSTORE PUSH1 0x20 ADD PUSH1 0x0 KECCAK256 PUSH1 0x40 MLOAD DUP1 PUSH2 0x100 ADD PUSH1 0x40 MSTORE SWAP1 DUP2 PUSH1 0x0 DUP3 ADD SLOAD DUP2 MSTORE PUSH1 0x20 ADD PUSH1 0x1 DUP3 ADD SLOAD DUP2 MSTORE PUSH1 0x20 ADD PUSH1 0x2 DUP3 ADD SLOAD DUP2 MSTORE PUSH1 0x20 ADD PUSH1 0x3 DUP3 ADD SLOAD DUP2 MSTORE PUSH1 0x20 ADD PUSH1 0x4 DUP3 ADD PUSH1 0x0 SWAP1 SLOAD SWAP1 PUSH2 0x100 EXP SWAP1 DIV PUSH20 0xFFFFFFFFFFFFFFFFFFFFFFFFFFFFFFFFFFFFFFFF AND PUSH20 0xFFFFFFFFFFFFFFFFFFFFFFFFFFFFFFFFFFFFFFFF AND PUSH20 0xFFFFFFFFFFFFFFFFFFFFFFFFFFFFFFFFFFFFFFFF AND DUP2 MSTORE PUSH1 0x20 ADD PUSH1 0x4 DUP3 ADD PUSH1 0x14 SWAP1 SLOAD SWAP1 PUSH2 0x100 EXP SWAP1 DIV PUSH8 0xFFFFFFFFFFFFFFFF AND PUSH8 0xFFFFFFFFFFFFFFFF AND PUSH8 0xFFFFFFFFFFFFFFFF AND DUP2 MSTORE PUSH1 0x20 ADD PUSH1 0x4 DUP3 ADD PUSH1 0x1C SWAP1 SLOAD SWAP1 PUSH2 0x100 EXP SWAP1 DIV PUSH4 0xFFFFFFFF AND PUSH4 0xFFFFFFFF AND PUSH4 0xFFFFFFFF AND DUP2 MSTORE PUSH1 0x20 ADD PUSH1 0x5 DUP3 ADD PUSH1 0x0 SWAP1 SLOAD SWAP1 PUSH2 0x100 EXP SWAP1 DIV PUSH1 0xFF AND ISZERO ISZERO ISZERO ISZERO DUP2 MSTORE POP POP SWAP1 POP SWAP2 SWAP1 POP JUMP JUMPDEST PUSH1 0x2 PUSH1 0x0 SWAP1 SLOAD SWAP1 PUSH2 0x100 EXP SWAP1 DIV PUSH8 0xFFFFFFFFFFFFFFFF AND DUP2 JUMP JUMPDEST PUSH1 0x0 DUP1 PUSH32 0x0 PUSH20 0xFFFFFFFFFFFFFFFFFFFFFFFFFFFFFFFFFFFFFFFF AND PUSH4 0xFEAF968C PUSH1 0x40 MLOAD DUP2 PUSH4 0xFFFFFFFF AND PUSH1 0xE0 SHL DUP2 MSTORE PUSH1 0x4 ADD PUSH1 0xA0 PUSH1 0x40 MLOAD DUP1 DUP4 SUB DUP2 DUP7 DUP1 EXTCODESIZE ISZERO DUP1 ISZERO PUSH2 0x112B JUMPI PUSH1 0x0 DUP1 REVERT JUMPDEST POP GAS STATICCALL ISZERO DUP1 ISZERO PUSH2 0x113F JUMPI RETURNDATASIZE PUSH1 0x0 DUP1 RETURNDATACOPY RETURNDATASIZE PUSH1 0x0 REVERT JUMPDEST POP POP POP POP PUSH1 0x40 MLOAD RETURNDATASIZE PUSH1 0x1F NOT PUSH1 0x1F DUP3 ADD AND DUP3 ADD DUP1 PUSH1 0x40 MSTORE POP DUP2 ADD SWAP1 PUSH2 0x1163 SWAP2 SWAP1 PUSH2 0x2D0B JUMP JUMPDEST POP POP POP SWAP2 POP POP PUSH1 0x0 PUSH32 0x0 PUSH20 0xFFFFFFFFFFFFFFFFFFFFFFFFFFFFFFFFFFFFFFFF AND PUSH4 0x5FBBC0D2 PUSH1 0x40 MLOAD DUP2 PUSH4 0xFFFFFFFF AND PUSH1 0xE0 SHL DUP2 MSTORE PUSH1 0x4 ADD PUSH2 0x120 PUSH1 0x40 MLOAD DUP1 DUP4 SUB DUP2 DUP7 DUP1 EXTCODESIZE ISZERO DUP1 ISZERO PUSH2 0x11D2 JUMPI PUSH1 0x0 DUP1 REVERT JUMPDEST POP GAS STATICCALL ISZERO DUP1 ISZERO PUSH2 0x11E6 JUMPI RETURNDATASIZE PUSH1 0x0 DUP1 RETURNDATACOPY RETURNDATASIZE PUSH1 0x0 REVERT JUMPDEST POP POP POP POP PUSH1 0x40 MLOAD RETURNDATASIZE PUSH1 0x1F NOT PUSH1 0x1F DUP3 ADD AND DUP3 ADD DUP1 PUSH1 0x40 MSTORE POP DUP2 ADD SWAP1 PUSH2 0x120A SWAP2 SWAP1 PUSH2 0x2C14 JUMP JUMPDEST POP POP POP POP POP POP POP POP SWAP1 POP PUSH8 0xDE0B6B3A7640000 DUP3 DUP3 PUSH4 0xFFFFFFFF AND PUSH5 0xE8D4A51000 PUSH2 0x1235 SWAP2 SWAP1 PUSH2 0x37DF JUMP JUMPDEST PUSH2 0x123F SWAP2 SWAP1 PUSH2 0x37DF JUMP JUMPDEST PUSH2 0x1249 SWAP2 SWAP1 PUSH2 0x37AE JUMP JUMPDEST PUSH1 0xA DUP6 PUSH1 0x12 GASPRICE PUSH2 0x1259 SWAP2 SWAP1 PUSH2 0x37DF JUMP JUMPDEST PUSH2 0x1263 SWAP2 SWAP1 PUSH2 0x37DF JUMP JUMPDEST PUSH2 0x126D SWAP2 SWAP1 PUSH2 0x37AE JUMP JUMPDEST PUSH2 0x1277 SWAP2 SWAP1 PUSH2 0x371A JUMP JUMPDEST SWAP3 POP POP POP SWAP2 SWAP1 POP JUMP JUMPDEST PUSH1 0x1 SLOAD DUP2 JUMP JUMPDEST PUSH1 0x2 PUSH1 0x8 SWAP1 SLOAD SWAP1 PUSH2 0x100 EXP SWAP1 DIV PUSH20 0xFFFFFFFFFFFFFFFFFFFFFFFFFFFFFFFFFFFFFFFF AND DUP2 JUMP JUMPDEST PUSH1 0x3 PUSH1 0x0 SWAP1 SLOAD SWAP1 PUSH2 0x100 EXP SWAP1 DIV PUSH20 0xFFFFFFFFFFFFFFFFFFFFFFFFFFFFFFFFFFFFFFFF AND DUP2 JUMP JUMPDEST PUSH32 0x0 DUP2 JUMP JUMPDEST PUSH1 0x2 PUSH1 0x8 SWAP1 SLOAD SWAP1 PUSH2 0x100 EXP SWAP1 DIV PUSH20 0xFFFFFFFFFFFFFFFFFFFFFFFFFFFFFFFFFFFFFFFF AND PUSH20 0xFFFFFFFFFFFFFFFFFFFFFFFFFFFFFFFFFFFFFFFF AND CALLER PUSH20 0xFFFFFFFFFFFFFFFFFFFFFFFFFFFFFFFFFFFFFFFF AND EQ PUSH2 0x1350 JUMPI PUSH1 0x0 DUP1 REVERT JUMPDEST PUSH32 0x904A74BCF05E44BE0348DB4FAED2B4EBB5E2F9E67C64335F1F9A907A391AB965 PUSH1 0x2 PUSH1 0x0 SWAP1 SLOAD SWAP1 PUSH2 0x100 EXP SWAP1 DIV PUSH8 0xFFFFFFFFFFFFFFFF AND DUP3 PUSH1 0x40 MLOAD PUSH2 0x1397 SWAP3 SWAP2 SWAP1 PUSH2 0x3568 JUMP JUMPDEST PUSH1 0x40 MLOAD DUP1 SWAP2 SUB SWAP1 LOG1 PUSH2 0x13A8 DUP2 PUSH2 0x2138 JUMP JUMPDEST POP JUMP JUMPDEST PUSH1 0x2 PUSH1 0x8 SWAP1 SLOAD SWAP1 PUSH2 0x100 EXP SWAP1 DIV PUSH20 0xFFFFFFFFFFFFFFFFFFFFFFFFFFFFFFFFFFFFFFFF AND PUSH20 0xFFFFFFFFFFFFFFFFFFFFFFFFFFFFFFFFFFFFFFFF AND CALLER PUSH20 0xFFFFFFFFFFFFFFFFFFFFFFFFFFFFFFFFFFFFFFFF AND EQ PUSH2 0x1405 JUMPI PUSH1 0x0 DUP1 REVERT JUMPDEST PUSH32 0x6BDDF22C81E64D89AA75EB3A9FD9E0169B0C681F933203FFD7BF8AB50E4C9094 PUSH1 0x2 PUSH1 0x8 SWAP1 SLOAD SWAP1 PUSH2 0x100 EXP SWAP1 DIV PUSH20 0xFFFFFFFFFFFFFFFFFFFFFFFFFFFFFFFFFFFFFFFF AND DUP3 PUSH1 0x40 MLOAD PUSH2 0x1458 SWAP3 SWAP2 SWAP1 PUSH2 0x3173 JUMP JUMPDEST PUSH1 0x40 MLOAD DUP1 SWAP2 SUB SWAP1 LOG1 PUSH2 0x1469 DUP2 PUSH2 0x2164 JUMP JUMPDEST POP JUMP JUMPDEST PUSH1 0x6 PUSH1 0x20 MSTORE DUP1 PUSH1 0x0 MSTORE PUSH1 0x40 PUSH1 0x0 KECCAK256 PUSH1 0x0 SWAP2 POP SLOAD SWAP1 PUSH2 0x100 EXP SWAP1 DIV PUSH1 0xFF AND DUP2 JUMP JUMPDEST PUSH1 0x0 PUSH1 0x5 PUSH1 0x0 DUP5 DUP2 MSTORE PUSH1 0x20 ADD SWAP1 DUP2 MSTORE PUSH1 0x20 ADD PUSH1 0x0 KECCAK256 PUSH1 0x0 SWAP1 SLOAD SWAP1 PUSH2 0x100 EXP SWAP1 DIV PUSH20 0xFFFFFFFFFFFFFFFFFFFFFFFFFFFFFFFFFFFFFFFF AND SWAP1 POP PUSH1 0x0 PUSH20 0xFFFFFFFFFFFFFFFFFFFFFFFFFFFFFFFFFFFFFFFF AND DUP2 PUSH20 0xFFFFFFFFFFFFFFFFFFFFFFFFFFFFFFFFFFFFFFFF AND EQ ISZERO PUSH2 0x14FE JUMPI PUSH1 0x0 DUP1 REVERT JUMPDEST PUSH1 0x0 PUSH1 0x4 PUSH1 0x0 DUP4 PUSH20 0xFFFFFFFFFFFFFFFFFFFFFFFFFFFFFFFFFFFFFFFF AND PUSH20 0xFFFFFFFFFFFFFFFFFFFFFFFFFFFFFFFFFFFFFFFF AND DUP2 MSTORE PUSH1 0x20 ADD SWAP1 DUP2 MSTORE PUSH1 0x20 ADD PUSH1 0x0 KECCAK256 SWAP1 POP PUSH1 0x64 DUP2 PUSH1 0x4 ADD PUSH1 0x14 SWAP1 SLOAD SWAP1 PUSH2 0x100 EXP SWAP1 DIV PUSH8 0xFFFFFFFFFFFFFFFF AND PUSH2 0x1566 SWAP2 SWAP1 PUSH2 0x3770 JUMP JUMPDEST PUSH8 0xFFFFFFFFFFFFFFFF AND NUMBER GT ISZERO PUSH2 0x157C JUMPI PUSH1 0x0 DUP1 REVERT JUMPDEST PUSH1 0x0 DUP1 PUSH1 0x0 DUP1 DUP5 PUSH1 0x4 ADD PUSH1 0x1C SWAP1 SLOAD SWAP1 PUSH2 0x100 EXP SWAP1 DIV PUSH4 0xFFFFFFFF AND PUSH4 0xFFFFFFFF AND PUSH8 0xFFFFFFFFFFFFFFFF DUP2 GT ISZERO PUSH2 0x15B6 JUMPI PUSH2 0x15B5 PUSH2 0x3BF9 JUMP JUMPDEST JUMPDEST PUSH1 0x40 MLOAD SWAP1 DUP1 DUP3 MSTORE DUP1 PUSH1 0x20 MUL PUSH1 0x20 ADD DUP3 ADD PUSH1 0x40 MSTORE DUP1 ISZERO PUSH2 0x15E4 JUMPI DUP2 PUSH1 0x20 ADD PUSH1 0x20 DUP3 MUL DUP1 CALLDATASIZE DUP4 CALLDATACOPY DUP1 DUP3 ADD SWAP2 POP POP SWAP1 POP JUMPDEST POP SWAP1 POP PUSH1 0x0 DUP6 PUSH1 0x4 ADD PUSH1 0x1C SWAP1 SLOAD SWAP1 PUSH2 0x100 EXP SWAP1 DIV PUSH4 0xFFFFFFFF AND PUSH4 0xFFFFFFFF AND PUSH8 0xFFFFFFFFFFFFFFFF DUP2 GT ISZERO PUSH2 0x161D JUMPI PUSH2 0x161C PUSH2 0x3BF9 JUMP JUMPDEST JUMPDEST PUSH1 0x40 MLOAD SWAP1 DUP1 DUP3 MSTORE DUP1 PUSH1 0x20 MUL PUSH1 0x20 ADD DUP3 ADD PUSH1 0x40 MSTORE DUP1 ISZERO PUSH2 0x164B JUMPI DUP2 PUSH1 0x20 ADD PUSH1 0x20 DUP3 MUL DUP1 CALLDATASIZE DUP4 CALLDATACOPY DUP1 DUP3 ADD SWAP2 POP POP SWAP1 POP JUMPDEST POP SWAP1 POP PUSH1 0x0 DUP7 PUSH1 0x4 ADD PUSH1 0x0 SWAP1 SLOAD SWAP1 PUSH2 0x100 EXP SWAP1 DIV PUSH20 0xFFFFFFFFFFFFFFFFFFFFFFFFFFFFFFFFFFFFFFFF AND SWAP1 POP PUSH1 0x0 SWAP4 POP JUMPDEST DUP7 PUSH1 0x4 ADD PUSH1 0x1C SWAP1 SLOAD SWAP1 PUSH2 0x100 EXP SWAP1 DIV PUSH4 0xFFFFFFFF AND PUSH4 0xFFFFFFFF AND DUP5 PUSH4 0xFFFFFFFF AND LT ISZERO PUSH2 0x1929 JUMPI DUP7 PUSH1 0x1 ADD SLOAD DUP7 SLT PUSH2 0x16B4 JUMPI PUSH2 0x1929 JUMP JUMPDEST DUP7 PUSH1 0x2 ADD SLOAD PUSH2 0x16C2 SWAP1 PUSH2 0x3B23 JUMP JUMPDEST DUP7 SGT PUSH2 0x16CD JUMPI PUSH2 0x1929 JUMP JUMPDEST PUSH1 0x2 DUP10 DUP6 PUSH4 0xFFFFFFFF AND DUP2 MLOAD DUP2 LT PUSH2 0x16E8 JUMPI PUSH2 0x16E7 PUSH2 0x3BCA JUMP JUMPDEST JUMPDEST PUSH1 0x20 MUL PUSH1 0x20 ADD ADD MLOAD PUSH2 0x16FA SWAP2 SWAP1 PUSH2 0x3AF2 JUMP JUMPDEST DUP4 DUP6 PUSH4 0xFFFFFFFF AND DUP2 MLOAD DUP2 LT PUSH2 0x1713 JUMPI PUSH2 0x1712 PUSH2 0x3BCA JUMP JUMPDEST JUMPDEST PUSH1 0x20 MUL PUSH1 0x20 ADD ADD SWAP1 PUSH1 0xFF AND SWAP1 DUP2 PUSH1 0xFF AND DUP2 MSTORE POP POP PUSH1 0x1 DUP4 DUP6 PUSH4 0xFFFFFFFF AND DUP2 MLOAD DUP2 LT PUSH2 0x1742 JUMPI PUSH2 0x1741 PUSH2 0x3BCA JUMP JUMPDEST JUMPDEST PUSH1 0x20 MUL PUSH1 0x20 ADD ADD MLOAD PUSH1 0xFF AND EQ DUP1 ISZERO PUSH2 0x176F JUMPI POP PUSH1 0x1 ISZERO ISZERO DUP8 PUSH1 0x5 ADD PUSH1 0x0 SWAP1 SLOAD SWAP1 PUSH2 0x100 EXP SWAP1 DIV PUSH1 0xFF AND ISZERO ISZERO EQ JUMPDEST ISZERO PUSH2 0x1815 JUMPI PUSH2 0x2710 PUSH2 0x2648 DUP9 PUSH1 0x0 ADD SLOAD PUSH2 0x1789 SWAP2 SWAP1 PUSH2 0x37DF JUMP JUMPDEST PUSH2 0x1793 SWAP2 SWAP1 PUSH2 0x37AE JUMP JUMPDEST DUP7 PUSH2 0x179E SWAP2 SWAP1 PUSH2 0x3686 JUMP JUMPDEST SWAP6 POP PUSH2 0x2710 PUSH2 0x4D58 DUP9 PUSH1 0x0 ADD SLOAD PUSH2 0x17B5 SWAP2 SWAP1 PUSH2 0x37DF JUMP JUMPDEST PUSH2 0x17BF SWAP2 SWAP1 PUSH2 0x37AE JUMP JUMPDEST DUP6 PUSH2 0x17CA SWAP2 SWAP1 PUSH2 0x371A JUMP JUMPDEST SWAP5 POP PUSH2 0x2710 PUSH2 0x4D58 DUP9 PUSH1 0x0 ADD SLOAD PUSH2 0x17E1 SWAP2 SWAP1 PUSH2 0x37DF JUMP JUMPDEST PUSH2 0x17EB SWAP2 SWAP1 PUSH2 0x37AE JUMP JUMPDEST DUP3 DUP6 PUSH4 0xFFFFFFFF AND DUP2 MLOAD DUP2 LT PUSH2 0x1804 JUMPI PUSH2 0x1803 PUSH2 0x3BCA JUMP JUMPDEST JUMPDEST PUSH1 0x20 MUL PUSH1 0x20 ADD ADD DUP2 DUP2 MSTORE POP POP PUSH2 0x1916 JUMP JUMPDEST PUSH1 0x0 DUP4 DUP6 PUSH4 0xFFFFFFFF AND DUP2 MLOAD DUP2 LT PUSH2 0x1830 JUMPI PUSH2 0x182F PUSH2 0x3BCA JUMP JUMPDEST JUMPDEST PUSH1 0x20 MUL PUSH1 0x20 ADD ADD MLOAD PUSH1 0xFF AND EQ DUP1 ISZERO PUSH2 0x185D JUMPI POP PUSH1 0x0 ISZERO ISZERO DUP8 PUSH1 0x5 ADD PUSH1 0x0 SWAP1 SLOAD SWAP1 PUSH2 0x100 EXP SWAP1 DIV PUSH1 0xFF AND ISZERO ISZERO EQ JUMPDEST ISZERO PUSH2 0x1903 JUMPI PUSH2 0x2710 PUSH2 0x2648 DUP9 PUSH1 0x0 ADD SLOAD PUSH2 0x1877 SWAP2 SWAP1 PUSH2 0x37DF JUMP JUMPDEST PUSH2 0x1881 SWAP2 SWAP1 PUSH2 0x37AE JUMP JUMPDEST DUP7 PUSH2 0x188C SWAP2 SWAP1 PUSH2 0x3686 JUMP JUMPDEST SWAP6 POP PUSH2 0x2710 PUSH2 0x4D58 DUP9 PUSH1 0x0 ADD SLOAD PUSH2 0x18A3 SWAP2 SWAP1 PUSH2 0x37DF JUMP JUMPDEST PUSH2 0x18AD SWAP2 SWAP1 PUSH2 0x37AE JUMP JUMPDEST DUP6 PUSH2 0x18B8 SWAP2 SWAP1 PUSH2 0x371A JUMP JUMPDEST SWAP5 POP PUSH2 0x2710 PUSH2 0x4D58 DUP9 PUSH1 0x0 ADD SLOAD PUSH2 0x18CF SWAP2 SWAP1 PUSH2 0x37DF JUMP JUMPDEST PUSH2 0x18D9 SWAP2 SWAP1 PUSH2 0x37AE JUMP JUMPDEST DUP3 DUP6 PUSH4 0xFFFFFFFF AND DUP2 MLOAD DUP2 LT PUSH2 0x18F2 JUMPI PUSH2 0x18F1 PUSH2 0x3BCA JUMP JUMPDEST JUMPDEST PUSH1 0x20 MUL PUSH1 0x20 ADD ADD DUP2 DUP2 MSTORE POP POP PUSH2 0x1916 JUMP JUMPDEST DUP7 PUSH1 0x0 ADD SLOAD DUP7 PUSH2 0x1913 SWAP2 SWAP1 PUSH2 0x3839 JUMP JUMPDEST SWAP6 POP JUMPDEST DUP4 DUP1 PUSH2 0x1921 SWAP1 PUSH2 0x3AC5 JUMP JUMPDEST SWAP5 POP POP PUSH2 0x167C JUMP JUMPDEST DUP7 PUSH1 0x0 ADD SLOAD DUP5 DUP9 PUSH1 0x4 ADD PUSH1 0x1C SWAP1 SLOAD SWAP1 PUSH2 0x100 EXP SWAP1 DIV PUSH4 0xFFFFFFFF AND PUSH2 0x194E SWAP2 SWAP1 PUSH2 0x3901 JUMP JUMPDEST PUSH4 0xFFFFFFFF AND PUSH2 0x195E SWAP2 SWAP1 PUSH2 0x37DF JUMP JUMPDEST DUP6 PUSH2 0x1969 SWAP2 SWAP1 PUSH2 0x371A JUMP JUMPDEST SWAP5 POP DUP8 PUSH20 0xFFFFFFFFFFFFFFFFFFFFFFFFFFFFFFFFFFFFFFFF AND PUSH32 0x63BA2C91A70F945B84C24531B0DE813D66F430987169CB7D878431C04CB0004 DUP9 PUSH1 0x0 ADD SLOAD DUP8 DUP5 DUP8 DUP8 DUP11 PUSH1 0x40 MLOAD PUSH2 0x19BF SWAP7 SWAP6 SWAP5 SWAP4 SWAP3 SWAP2 SWAP1 PUSH2 0x34B5 JUMP JUMPDEST PUSH1 0x40 MLOAD DUP1 SWAP2 SUB SWAP1 LOG2 PUSH1 0x5 PUSH1 0x0 DUP12 DUP2 MSTORE PUSH1 0x20 ADD SWAP1 DUP2 MSTORE PUSH1 0x20 ADD PUSH1 0x0 KECCAK256 PUSH1 0x0 PUSH2 0x100 EXP DUP2 SLOAD SWAP1 PUSH20 0xFFFFFFFFFFFFFFFFFFFFFFFFFFFFFFFFFFFFFFFF MUL NOT AND SWAP1 SSTORE PUSH1 0x4 PUSH1 0x0 DUP10 PUSH20 0xFFFFFFFFFFFFFFFFFFFFFFFFFFFFFFFFFFFFFFFF AND PUSH20 0xFFFFFFFFFFFFFFFFFFFFFFFFFFFFFFFFFFFFFFFF AND DUP2 MSTORE PUSH1 0x20 ADD SWAP1 DUP2 MSTORE PUSH1 0x20 ADD PUSH1 0x0 KECCAK256 PUSH1 0x0 DUP1 DUP3 ADD PUSH1 0x0 SWAP1 SSTORE PUSH1 0x1 DUP3 ADD PUSH1 0x0 SWAP1 SSTORE PUSH1 0x2 DUP3 ADD PUSH1 0x0 SWAP1 SSTORE PUSH1 0x3 DUP3 ADD PUSH1 0x0 SWAP1 SSTORE PUSH1 0x4 DUP3 ADD PUSH1 0x0 PUSH2 0x100 EXP DUP2 SLOAD SWAP1 PUSH20 0xFFFFFFFFFFFFFFFFFFFFFFFFFFFFFFFFFFFFFFFF MUL NOT AND SWAP1 SSTORE PUSH1 0x4 DUP3 ADD PUSH1 0x14 PUSH2 0x100 EXP DUP2 SLOAD SWAP1 PUSH8 0xFFFFFFFFFFFFFFFF MUL NOT AND SWAP1 SSTORE PUSH1 0x4 DUP3 ADD PUSH1 0x1C PUSH2 0x100 EXP DUP2 SLOAD SWAP1 PUSH4 0xFFFFFFFF MUL NOT AND SWAP1 SSTORE PUSH1 0x5 DUP3 ADD PUSH1 0x0 PUSH2 0x100 EXP DUP2 SLOAD SWAP1 PUSH1 0xFF MUL NOT AND SWAP1 SSTORE POP POP PUSH1 0x0 DUP6 EQ PUSH2 0x1AE0 JUMPI PUSH2 0x1ADF DUP9 DUP7 DUP4 PUSH2 0x21A8 JUMP JUMPDEST JUMPDEST POP POP POP POP POP POP POP POP POP POP JUMP JUMPDEST PUSH1 0x2 PUSH1 0x0 SLOAD EQ ISZERO PUSH2 0x1B32 JUMPI PUSH1 0x40 MLOAD PUSH32 0x8C379A000000000000000000000000000000000000000000000000000000000 DUP2 MSTORE PUSH1 0x4 ADD PUSH2 0x1B29 SWAP1 PUSH2 0x339D JUMP JUMPDEST PUSH1 0x40 MLOAD DUP1 SWAP2 SUB SWAP1 REVERT JUMPDEST PUSH1 0x2 PUSH1 0x0 DUP2 SWAP1 SSTORE POP JUMP JUMPDEST PUSH2 0x1BBD DUP4 PUSH4 0xA9059CBB PUSH1 0xE0 SHL DUP5 DUP5 PUSH1 0x40 MLOAD PUSH1 0x24 ADD PUSH2 0x1B5B SWAP3 SWAP2 SWAP1 PUSH2 0x31FC JUMP JUMPDEST PUSH1 0x40 MLOAD PUSH1 0x20 DUP2 DUP4 SUB SUB DUP2 MSTORE SWAP1 PUSH1 0x40 MSTORE SWAP1 PUSH28 0xFFFFFFFFFFFFFFFFFFFFFFFFFFFFFFFFFFFFFFFFFFFFFFFFFFFFFFFF NOT AND PUSH1 0x20 DUP3 ADD DUP1 MLOAD PUSH28 0xFFFFFFFFFFFFFFFFFFFFFFFFFFFFFFFFFFFFFFFFFFFFFFFFFFFFFFFF DUP4 DUP2 DUP4 AND OR DUP4 MSTORE POP POP POP POP PUSH2 0x241D JUMP JUMPDEST POP POP POP JUMP JUMPDEST PUSH1 0x1 PUSH1 0x0 DUP2 SWAP1 SSTORE POP JUMP JUMPDEST PUSH1 0x0 DUP1 PUSH20 0xFFFFFFFFFFFFFFFFFFFFFFFFFFFFFFFFFFFFFFFF AND DUP3 PUSH20 0xFFFFFFFFFFFFFFFFFFFFFFFFFFFFFFFFFFFFFFFF AND EQ ISZERO PUSH2 0x1C0A JUMPI SELFBALANCE SWAP1 POP PUSH2 0x1D21 JUMP JUMPDEST PUSH1 0x0 ISZERO ISZERO PUSH1 0x6 PUSH1 0x0 DUP5 PUSH20 0xFFFFFFFFFFFFFFFFFFFFFFFFFFFFFFFFFFFFFFFF AND PUSH20 0xFFFFFFFFFFFFFFFFFFFFFFFFFFFFFFFFFFFFFFFF AND DUP2 MSTORE PUSH1 0x20 ADD SWAP1 DUP2 MSTORE PUSH1 0x20 ADD PUSH1 0x0 KECCAK256 PUSH1 0x0 SWAP1 SLOAD SWAP1 PUSH2 0x100 EXP SWAP1 DIV PUSH1 0xFF AND ISZERO ISZERO EQ ISZERO PUSH2 0x1C95 JUMPI PUSH1 0x40 MLOAD PUSH32 0xC1AB6DC100000000000000000000000000000000000000000000000000000000 DUP2 MSTORE PUSH1 0x4 ADD PUSH1 0x40 MLOAD DUP1 SWAP2 SUB SWAP1 REVERT JUMPDEST DUP2 PUSH20 0xFFFFFFFFFFFFFFFFFFFFFFFFFFFFFFFFFFFFFFFF AND PUSH4 0x70A08231 ADDRESS PUSH1 0x40 MLOAD DUP3 PUSH4 0xFFFFFFFF AND PUSH1 0xE0 SHL DUP2 MSTORE PUSH1 0x4 ADD PUSH2 0x1CCE SWAP2 SWAP1 PUSH2 0x3158 JUMP JUMPDEST PUSH1 0x20 PUSH1 0x40 MLOAD DUP1 DUP4 SUB DUP2 DUP7 DUP1 EXTCODESIZE ISZERO DUP1 ISZERO PUSH2 0x1CE6 JUMPI PUSH1 0x0 DUP1 REVERT JUMPDEST POP GAS STATICCALL ISZERO DUP1 ISZERO PUSH2 0x1CFA JUMPI RETURNDATASIZE PUSH1 0x0 DUP1 RETURNDATACOPY RETURNDATASIZE PUSH1 0x0 REVERT JUMPDEST POP POP POP POP PUSH1 0x40 MLOAD RETURNDATASIZE PUSH1 0x1F NOT PUSH1 0x1F DUP3 ADD AND DUP3 ADD DUP1 PUSH1 0x40 MSTORE POP DUP2 ADD SWAP1 PUSH2 0x1D1E SWAP2 SWAP1 PUSH2 0x2AFE JUMP JUMPDEST SWAP1 POP JUMPDEST PUSH1 0x0 PUSH2 0x3E8 PUSH1 0xB DUP4 PUSH2 0x1D33 SWAP2 SWAP1 PUSH2 0x37DF JUMP JUMPDEST PUSH2 0x1D3D SWAP2 SWAP1 PUSH2 0x37AE JUMP JUMPDEST SWAP1 POP DUP1 DUP5 GT ISZERO PUSH2 0x1D86 JUMPI DUP4 DUP2 PUSH1 0x40 MLOAD PUSH32 0xD53662AA00000000000000000000000000000000000000000000000000000000 DUP2 MSTORE PUSH1 0x4 ADD PUSH2 0x1D7D SWAP3 SWAP2 SWAP1 PUSH2 0x348C JUMP JUMPDEST PUSH1 0x40 MLOAD DUP1 SWAP2 SUB SWAP1 REVERT JUMPDEST POP POP POP POP JUMP JUMPDEST PUSH1 0x0 DUP1 DUP5 EQ ISZERO PUSH2 0x1DC8 JUMPI PUSH1 0x40 MLOAD PUSH32 0x7375C8400000000000000000000000000000000000000000000000000000000 DUP2 MSTORE PUSH1 0x4 ADD PUSH1 0x40 MLOAD DUP1 SWAP2 SUB SWAP1 REVERT JUMPDEST PUSH2 0x1DD1 DUP4 PUSH2 0x10C2 JUMP JUMPDEST SWAP1 POP PUSH1 0x0 PUSH20 0xFFFFFFFFFFFFFFFFFFFFFFFFFFFFFFFFFFFFFFFF AND DUP6 PUSH20 0xFFFFFFFFFFFFFFFFFFFFFFFFFFFFFFFFFFFFFFFF AND EQ ISZERO PUSH2 0x1E89 JUMPI DUP1 DUP5 PUSH2 0x1E14 SWAP2 SWAP1 PUSH2 0x371A JUMP JUMPDEST CALLVALUE LT ISZERO PUSH2 0x1E65 JUMPI DUP1 DUP5 PUSH2 0x1E27 SWAP2 SWAP1 PUSH2 0x371A JUMP JUMPDEST CALLVALUE PUSH1 0x40 MLOAD PUSH32 0xDE9B74A100000000000000000000000000000000000000000000000000000000 DUP2 MSTORE PUSH1 0x4 ADD PUSH2 0x1E5C SWAP3 SWAP2 SWAP1 PUSH2 0x348C JUMP JUMPDEST PUSH1 0x40 MLOAD DUP1 SWAP2 SUB SWAP1 REVERT JUMPDEST PUSH2 0x1E84 DUP5 DUP3 PUSH2 0x1E74 SWAP2 SWAP1 PUSH2 0x371A JUMP JUMPDEST CALLVALUE PUSH2 0x1E7F SWAP2 SWAP1 PUSH2 0x38CD JUMP JUMPDEST PUSH2 0x24E5 JUMP JUMPDEST PUSH2 0x1F12 JUMP JUMPDEST DUP1 CALLVALUE LT ISZERO PUSH2 0x1ED0 JUMPI DUP1 CALLVALUE PUSH1 0x40 MLOAD PUSH32 0xDE9B74A100000000000000000000000000000000000000000000000000000000 DUP2 MSTORE PUSH1 0x4 ADD PUSH2 0x1EC7 SWAP3 SWAP2 SWAP1 PUSH2 0x348C JUMP JUMPDEST PUSH1 0x40 MLOAD DUP1 SWAP2 SUB SWAP1 REVERT JUMPDEST PUSH2 0x1EFD DUP3 ADDRESS DUP7 DUP9 PUSH20 0xFFFFFFFFFFFFFFFFFFFFFFFFFFFFFFFFFFFFFFFF AND PUSH2 0x259B SWAP1 SWAP4 SWAP3 SWAP2 SWAP1 PUSH4 0xFFFFFFFF AND JUMP JUMPDEST PUSH2 0x1F11 DUP2 CALLVALUE PUSH2 0x1F0C SWAP2 SWAP1 PUSH2 0x38CD JUMP JUMPDEST PUSH2 0x24E5 JUMP JUMPDEST JUMPDEST DUP1 PUSH1 0x1 PUSH1 0x0 DUP3 DUP3 SLOAD PUSH2 0x1F24 SWAP2 SWAP1 PUSH2 0x371A JUMP JUMPDEST SWAP3 POP POP DUP2 SWAP1 SSTORE POP SWAP5 SWAP4 POP POP POP POP JUMP JUMPDEST PUSH1 0x0 PUSH32 0x0 PUSH20 0xFFFFFFFFFFFFFFFFFFFFFFFFFFFFFFFFFFFFFFFF AND PUSH4 0x5D3B1D30 PUSH32 0x0 PUSH1 0x2 PUSH1 0x0 SWAP1 SLOAD SWAP1 PUSH2 0x100 EXP SWAP1 DIV PUSH8 0xFFFFFFFFFFFFFFFF AND PUSH1 0x3 PUSH3 0x2625A0 DUP8 PUSH1 0x40 MLOAD DUP7 PUSH4 0xFFFFFFFF AND PUSH1 0xE0 SHL DUP2 MSTORE PUSH1 0x4 ADD PUSH2 0x1FD0 SWAP6 SWAP5 SWAP4 SWAP3 SWAP2 SWAP1 PUSH2 0x3277 JUMP JUMPDEST PUSH1 0x20 PUSH1 0x40 MLOAD DUP1 DUP4 SUB DUP2 PUSH1 0x0 DUP8 DUP1 EXTCODESIZE ISZERO DUP1 ISZERO PUSH2 0x1FEA JUMPI PUSH1 0x0 DUP1 REVERT JUMPDEST POP GAS CALL ISZERO DUP1 ISZERO PUSH2 0x1FFE JUMPI RETURNDATASIZE PUSH1 0x0 DUP1 RETURNDATACOPY RETURNDATASIZE PUSH1 0x0 REVERT JUMPDEST POP POP POP POP PUSH1 0x40 MLOAD RETURNDATASIZE PUSH1 0x1F NOT PUSH1 0x1F DUP3 ADD AND DUP3 ADD DUP1 PUSH1 0x40 MSTORE POP DUP2 ADD SWAP1 PUSH2 0x2022 SWAP2 SWAP1 PUSH2 0x2AFE JUMP JUMPDEST SWAP1 POP SWAP2 SWAP1 POP JUMP JUMPDEST PUSH1 0x0 PUSH20 0xFFFFFFFFFFFFFFFFFFFFFFFFFFFFFFFFFFFFFFFF AND DUP2 PUSH20 0xFFFFFFFFFFFFFFFFFFFFFFFFFFFFFFFFFFFFFFFF AND EQ ISZERO PUSH2 0x2107 JUMPI PUSH1 0x0 DUP4 PUSH20 0xFFFFFFFFFFFFFFFFFFFFFFFFFFFFFFFFFFFFFFFF AND DUP4 PUSH1 0x40 MLOAD PUSH2 0x2084 SWAP1 PUSH2 0x3143 JUMP JUMPDEST PUSH1 0x0 PUSH1 0x40 MLOAD DUP1 DUP4 SUB DUP2 DUP6 DUP8 GAS CALL SWAP3 POP POP POP RETURNDATASIZE DUP1 PUSH1 0x0 DUP2 EQ PUSH2 0x20C1 JUMPI PUSH1 0x40 MLOAD SWAP2 POP PUSH1 0x1F NOT PUSH1 0x3F RETURNDATASIZE ADD AND DUP3 ADD PUSH1 0x40 MSTORE RETURNDATASIZE DUP3 MSTORE RETURNDATASIZE PUSH1 0x0 PUSH1 0x20 DUP5 ADD RETURNDATACOPY PUSH2 0x20C6 JUMP JUMPDEST PUSH1 0x60 SWAP2 POP JUMPDEST POP POP SWAP1 POP DUP1 PUSH2 0x2101 JUMPI PUSH1 0x40 MLOAD PUSH32 0x90B8EC1800000000000000000000000000000000000000000000000000000000 DUP2 MSTORE PUSH1 0x4 ADD PUSH1 0x40 MLOAD DUP1 SWAP2 SUB SWAP1 REVERT JUMPDEST POP PUSH2 0x2133 JUMP JUMPDEST PUSH2 0x2132 DUP4 DUP4 DUP4 PUSH20 0xFFFFFFFFFFFFFFFFFFFFFFFFFFFFFFFFFFFFFFFF AND PUSH2 0x1B3C SWAP1 SWAP3 SWAP2 SWAP1 PUSH4 0xFFFFFFFF AND JUMP JUMPDEST JUMPDEST POP POP POP JUMP JUMPDEST DUP1 PUSH1 0x2 PUSH1 0x0 PUSH2 0x100 EXP DUP2 SLOAD DUP2 PUSH8 0xFFFFFFFFFFFFFFFF MUL NOT AND SWAP1 DUP4 PUSH8 0xFFFFFFFFFFFFFFFF AND MUL OR SWAP1 SSTORE POP POP JUMP JUMPDEST DUP1 PUSH1 0x2 PUSH1 0x8 PUSH2 0x100 EXP DUP2 SLOAD DUP2 PUSH20 0xFFFFFFFFFFFFFFFFFFFFFFFFFFFFFFFFFFFFFFFF MUL NOT AND SWAP1 DUP4 PUSH20 0xFFFFFFFFFFFFFFFFFFFFFFFFFFFFFFFFFFFFFFFF AND MUL OR SWAP1 SSTORE POP POP JUMP JUMPDEST PUSH1 0x0 PUSH20 0xFFFFFFFFFFFFFFFFFFFFFFFFFFFFFFFFFFFFFFFF AND DUP2 PUSH20 0xFFFFFFFFFFFFFFFFFFFFFFFFFFFFFFFFFFFFFFFF AND EQ ISZERO PUSH2 0x23EC JUMPI PUSH1 0x0 DUP4 PUSH20 0xFFFFFFFFFFFFFFFFFFFFFFFFFFFFFFFFFFFFFFFF AND DUP4 PUSH1 0x40 MLOAD PUSH2 0x2203 SWAP1 PUSH2 0x3143 JUMP JUMPDEST PUSH1 0x0 PUSH1 0x40 MLOAD DUP1 DUP4 SUB DUP2 DUP6 DUP8 GAS CALL SWAP3 POP POP POP RETURNDATASIZE DUP1 PUSH1 0x0 DUP2 EQ PUSH2 0x2240 JUMPI PUSH1 0x40 MLOAD SWAP2 POP PUSH1 0x1F NOT PUSH1 0x3F RETURNDATASIZE ADD AND DUP3 ADD PUSH1 0x40 MSTORE RETURNDATASIZE DUP3 MSTORE RETURNDATASIZE PUSH1 0x0 PUSH1 0x20 DUP5 ADD RETURNDATACOPY PUSH2 0x2245 JUMP JUMPDEST PUSH1 0x60 SWAP2 POP JUMPDEST POP POP SWAP1 POP DUP1 PUSH2 0x23E6 JUMPI PUSH1 0x0 PUSH1 0x3 PUSH1 0x0 SWAP1 SLOAD SWAP1 PUSH2 0x100 EXP SWAP1 DIV PUSH20 0xFFFFFFFFFFFFFFFFFFFFFFFFFFFFFFFFFFFFFFFF AND PUSH20 0xFFFFFFFFFFFFFFFFFFFFFFFFFFFFFFFFFFFFFFFF AND DUP5 PUSH1 0x40 MLOAD PUSH1 0x24 ADD PUSH1 0x40 MLOAD PUSH1 0x20 DUP2 DUP4 SUB SUB DUP2 MSTORE SWAP1 PUSH1 0x40 MSTORE PUSH32 0xD0E30DB000000000000000000000000000000000000000000000000000000000 PUSH28 0xFFFFFFFFFFFFFFFFFFFFFFFFFFFFFFFFFFFFFFFFFFFFFFFFFFFFFFFF NOT AND PUSH1 0x20 DUP3 ADD DUP1 MLOAD PUSH28 0xFFFFFFFFFFFFFFFFFFFFFFFFFFFFFFFFFFFFFFFFFFFFFFFFFFFFFFFF DUP4 DUP2 DUP4 AND OR DUP4 MSTORE POP POP POP POP PUSH1 0x40 MLOAD PUSH2 0x231A SWAP2 SWAP1 PUSH2 0x312C JUMP JUMPDEST PUSH1 0x0 PUSH1 0x40 MLOAD DUP1 DUP4 SUB DUP2 DUP6 DUP8 GAS CALL SWAP3 POP POP POP RETURNDATASIZE DUP1 PUSH1 0x0 DUP2 EQ PUSH2 0x2357 JUMPI PUSH1 0x40 MLOAD SWAP2 POP PUSH1 0x1F NOT PUSH1 0x3F RETURNDATASIZE ADD AND DUP3 ADD PUSH1 0x40 MSTORE RETURNDATASIZE DUP3 MSTORE RETURNDATASIZE PUSH1 0x0 PUSH1 0x20 DUP5 ADD RETURNDATACOPY PUSH2 0x235C JUMP JUMPDEST PUSH1 0x60 SWAP2 POP JUMPDEST POP POP SWAP1 POP DUP1 PUSH2 0x2397 JUMPI PUSH1 0x40 MLOAD PUSH32 0x90B8EC1800000000000000000000000000000000000000000000000000000000 DUP2 MSTORE PUSH1 0x4 ADD PUSH1 0x40 MLOAD DUP1 SWAP2 SUB SWAP1 REVERT JUMPDEST PUSH2 0x23E4 DUP6 DUP6 PUSH1 0x3 PUSH1 0x0 SWAP1 SLOAD SWAP1 PUSH2 0x100 EXP SWAP1 DIV PUSH20 0xFFFFFFFFFFFFFFFFFFFFFFFFFFFFFFFFFFFFFFFF AND PUSH20 0xFFFFFFFFFFFFFFFFFFFFFFFFFFFFFFFFFFFFFFFF AND PUSH2 0x1B3C SWAP1 SWAP3 SWAP2 SWAP1 PUSH4 0xFFFFFFFF AND JUMP JUMPDEST POP JUMPDEST POP PUSH2 0x2418 JUMP JUMPDEST PUSH2 0x2417 DUP4 DUP4 DUP4 PUSH20 0xFFFFFFFFFFFFFFFFFFFFFFFFFFFFFFFFFFFFFFFF AND PUSH2 0x1B3C SWAP1 SWAP3 SWAP2 SWAP1 PUSH4 0xFFFFFFFF AND JUMP JUMPDEST JUMPDEST POP POP POP JUMP JUMPDEST PUSH1 0x0 PUSH2 0x247F DUP3 PUSH1 0x40 MLOAD DUP1 PUSH1 0x40 ADD PUSH1 0x40 MSTORE DUP1 PUSH1 0x20 DUP2 MSTORE PUSH1 0x20 ADD PUSH32 0x5361666545524332303A206C6F772D6C6576656C2063616C6C206661696C6564 DUP2 MSTORE POP DUP6 PUSH20 0xFFFFFFFFFFFFFFFFFFFFFFFFFFFFFFFFFFFFFFFF AND PUSH2 0x2624 SWAP1 SWAP3 SWAP2 SWAP1 PUSH4 0xFFFFFFFF AND JUMP JUMPDEST SWAP1 POP PUSH1 0x0 DUP2 MLOAD EQ DUP1 PUSH2 0x24A1 JUMPI POP DUP1 DUP1 PUSH1 0x20 ADD SWAP1 MLOAD DUP2 ADD SWAP1 PUSH2 0x24A0 SWAP2 SWAP1 PUSH2 0x2AA4 JUMP JUMPDEST JUMPDEST PUSH2 0x24E0 JUMPI PUSH1 0x40 MLOAD PUSH32 0x8C379A000000000000000000000000000000000000000000000000000000000 DUP2 MSTORE PUSH1 0x4 ADD PUSH2 0x24D7 SWAP1 PUSH2 0x337D JUMP JUMPDEST PUSH1 0x40 MLOAD DUP1 SWAP2 SUB SWAP1 REVERT JUMPDEST POP POP POP JUMP JUMPDEST PUSH1 0x0 DUP2 EQ ISZERO PUSH2 0x24F3 JUMPI PUSH2 0x2598 JUMP JUMPDEST PUSH1 0x0 CALLER PUSH20 0xFFFFFFFFFFFFFFFFFFFFFFFFFFFFFFFFFFFFFFFF AND DUP3 PUSH1 0x40 MLOAD PUSH2 0x2519 SWAP1 PUSH2 0x3143 JUMP JUMPDEST PUSH1 0x0 PUSH1 0x40 MLOAD DUP1 DUP4 SUB DUP2 DUP6 DUP8 GAS CALL SWAP3 POP POP POP RETURNDATASIZE DUP1 PUSH1 0x0 DUP2 EQ PUSH2 0x2556 JUMPI PUSH1 0x40 MLOAD SWAP2 POP PUSH1 0x1F NOT PUSH1 0x3F RETURNDATASIZE ADD AND DUP3 ADD PUSH1 0x40 MSTORE RETURNDATASIZE DUP3 MSTORE RETURNDATASIZE PUSH1 0x0 PUSH1 0x20 DUP5 ADD RETURNDATACOPY PUSH2 0x255B JUMP JUMPDEST PUSH1 0x60 SWAP2 POP JUMPDEST POP POP SWAP1 POP DUP1 PUSH2 0x2596 JUMPI PUSH1 0x40 MLOAD PUSH32 0xF0C49D4400000000000000000000000000000000000000000000000000000000 DUP2 MSTORE PUSH1 0x4 ADD PUSH1 0x40 MLOAD DUP1 SWAP2 SUB SWAP1 REVERT JUMPDEST POP JUMPDEST POP JUMP JUMPDEST PUSH2 0x261E DUP5 PUSH4 0x23B872DD PUSH1 0xE0 SHL DUP6 DUP6 DUP6 PUSH1 0x40 MLOAD PUSH1 0x24 ADD PUSH2 0x25BC SWAP4 SWAP3 SWAP2 SWAP1 PUSH2 0x319C JUMP JUMPDEST PUSH1 0x40 MLOAD PUSH1 0x20 DUP2 DUP4 SUB SUB DUP2 MSTORE SWAP1 PUSH1 0x40 MSTORE SWAP1 PUSH28 0xFFFFFFFFFFFFFFFFFFFFFFFFFFFFFFFFFFFFFFFFFFFFFFFFFFFFFFFF NOT AND PUSH1 0x20 DUP3 ADD DUP1 MLOAD PUSH28 0xFFFFFFFFFFFFFFFFFFFFFFFFFFFFFFFFFFFFFFFFFFFFFFFFFFFFFFFF DUP4 DUP2 DUP4 AND OR DUP4 MSTORE POP POP POP POP PUSH2 0x241D JUMP JUMPDEST POP POP POP POP JUMP JUMPDEST PUSH1 0x60 PUSH2 0x2633 DUP5 DUP5 PUSH1 0x0 DUP6 PUSH2 0x263C JUMP JUMPDEST SWAP1 POP SWAP4 SWAP3 POP POP POP JUMP JUMPDEST PUSH1 0x60 DUP3 SELFBALANCE LT ISZERO PUSH2 0x2681 JUMPI PUSH1 0x40 MLOAD PUSH32 0x8C379A000000000000000000000000000000000000000000000000000000000 DUP2 MSTORE PUSH1 0x4 ADD PUSH2 0x2678 SWAP1 PUSH2 0x333D JUMP JUMPDEST PUSH1 0x40 MLOAD DUP1 SWAP2 SUB SWAP1 REVERT JUMPDEST PUSH1 0x0 DUP1 DUP7 PUSH20 0xFFFFFFFFFFFFFFFFFFFFFFFFFFFFFFFFFFFFFFFF AND DUP6 DUP8 PUSH1 0x40 MLOAD PUSH2 0x26AA SWAP2 SWAP1 PUSH2 0x312C JUMP JUMPDEST PUSH1 0x0 PUSH1 0x40 MLOAD DUP1 DUP4 SUB DUP2 DUP6 DUP8 GAS CALL SWAP3 POP POP POP RETURNDATASIZE DUP1 PUSH1 0x0 DUP2 EQ PUSH2 0x26E7 JUMPI PUSH1 0x40 MLOAD SWAP2 POP PUSH1 0x1F NOT PUSH1 0x3F RETURNDATASIZE ADD AND DUP3 ADD PUSH1 0x40 MSTORE RETURNDATASIZE DUP3 MSTORE RETURNDATASIZE PUSH1 0x0 PUSH1 0x20 DUP5 ADD RETURNDATACOPY PUSH2 0x26EC JUMP JUMPDEST PUSH1 0x60 SWAP2 POP JUMPDEST POP SWAP2 POP SWAP2 POP PUSH2 0x26FD DUP8 DUP4 DUP4 DUP8 PUSH2 0x2709 JUMP JUMPDEST SWAP3 POP POP POP SWAP5 SWAP4 POP POP POP POP JUMP JUMPDEST PUSH1 0x60 DUP4 ISZERO PUSH2 0x276C JUMPI PUSH1 0x0 DUP4 MLOAD EQ ISZERO PUSH2 0x2764 JUMPI PUSH2 0x2724 DUP6 PUSH2 0x277F JUMP JUMPDEST PUSH2 0x2763 JUMPI PUSH1 0x40 MLOAD PUSH32 0x8C379A000000000000000000000000000000000000000000000000000000000 DUP2 MSTORE PUSH1 0x4 ADD PUSH2 0x275A SWAP1 PUSH2 0x335D JUMP JUMPDEST PUSH1 0x40 MLOAD DUP1 SWAP2 SUB SWAP1 REVERT JUMPDEST JUMPDEST DUP3 SWAP1 POP PUSH2 0x2777 JUMP JUMPDEST PUSH2 0x2776 DUP4 DUP4 PUSH2 0x27A2 JUMP JUMPDEST JUMPDEST SWAP5 SWAP4 POP POP POP POP JUMP JUMPDEST PUSH1 0x0 DUP1 DUP3 PUSH20 0xFFFFFFFFFFFFFFFFFFFFFFFFFFFFFFFFFFFFFFFF AND EXTCODESIZE GT SWAP1 POP SWAP2 SWAP1 POP JUMP JUMPDEST PUSH1 0x0 DUP3 MLOAD GT ISZERO PUSH2 0x27B5 JUMPI DUP2 MLOAD DUP1 DUP4 PUSH1 0x20 ADD REVERT JUMPDEST DUP1 PUSH1 0x40 MLOAD PUSH32 0x8C379A000000000000000000000000000000000000000000000000000000000 DUP2 MSTORE PUSH1 0x4 ADD PUSH2 0x27E9 SWAP2 SWAP1 PUSH2 0x331B JUMP JUMPDEST PUSH1 0x40 MLOAD DUP1 SWAP2 SUB SWAP1 REVERT JUMPDEST PUSH1 0x40 MLOAD DUP1 PUSH2 0x100 ADD PUSH1 0x40 MSTORE DUP1 PUSH1 0x0 DUP2 MSTORE PUSH1 0x20 ADD PUSH1 0x0 DUP2 MSTORE PUSH1 0x20 ADD PUSH1 0x0 DUP2 MSTORE PUSH1 0x20 ADD PUSH1 0x0 DUP2 MSTORE PUSH1 0x20 ADD PUSH1 0x0 PUSH20 0xFFFFFFFFFFFFFFFFFFFFFFFFFFFFFFFFFFFFFFFF AND DUP2 MSTORE PUSH1 0x20 ADD PUSH1 0x0 PUSH8 0xFFFFFFFFFFFFFFFF AND DUP2 MSTORE PUSH1 0x20 ADD PUSH1 0x0 PUSH4 0xFFFFFFFF AND DUP2 MSTORE PUSH1 0x20 ADD PUSH1 0x0 ISZERO ISZERO DUP2 MSTORE POP SWAP1 JUMP JUMPDEST PUSH1 0x0 PUSH2 0x2872 PUSH2 0x286D DUP5 PUSH2 0x35B6 JUMP JUMPDEST PUSH2 0x3591 JUMP JUMPDEST SWAP1 POP DUP1 DUP4 DUP3 MSTORE PUSH1 0x20 DUP3 ADD SWAP1 POP DUP3 DUP6 PUSH1 0x20 DUP7 MUL DUP3 ADD GT ISZERO PUSH2 0x2895 JUMPI PUSH2 0x2894 PUSH2 0x3C2D JUMP JUMPDEST JUMPDEST PUSH1 0x0 JUMPDEST DUP6 DUP2 LT ISZERO PUSH2 0x28C5 JUMPI DUP2 PUSH2 0x28AB DUP9 DUP3 PUSH2 0x2966 JUMP JUMPDEST DUP5 MSTORE PUSH1 0x20 DUP5 ADD SWAP4 POP PUSH1 0x20 DUP4 ADD SWAP3 POP POP PUSH1 0x1 DUP2 ADD SWAP1 POP PUSH2 0x2898 JUMP JUMPDEST POP POP POP SWAP4 SWAP3 POP POP POP JUMP JUMPDEST PUSH1 0x0 DUP2 CALLDATALOAD SWAP1 POP PUSH2 0x28DE DUP2 PUSH2 0x3D40 JUMP JUMPDEST SWAP3 SWAP2 POP POP JUMP JUMPDEST PUSH1 0x0 DUP3 PUSH1 0x1F DUP4 ADD SLT PUSH2 0x28F9 JUMPI PUSH2 0x28F8 PUSH2 0x3C28 JUMP JUMPDEST JUMPDEST DUP2 CALLDATALOAD PUSH2 0x2909 DUP5 DUP3 PUSH1 0x20 DUP7 ADD PUSH2 0x285F JUMP JUMPDEST SWAP2 POP POP SWAP3 SWAP2 POP POP JUMP JUMPDEST PUSH1 0x0 DUP2 CALLDATALOAD SWAP1 POP PUSH2 0x2921 DUP2 PUSH2 0x3D57 JUMP JUMPDEST SWAP3 SWAP2 POP POP JUMP JUMPDEST PUSH1 0x0 DUP2 MLOAD SWAP1 POP PUSH2 0x2936 DUP2 PUSH2 0x3D57 JUMP JUMPDEST SWAP3 SWAP2 POP POP JUMP JUMPDEST PUSH1 0x0 DUP2 MLOAD SWAP1 POP PUSH2 0x294B DUP2 PUSH2 0x3D6E JUMP JUMPDEST SWAP3 SWAP2 POP POP JUMP JUMPDEST PUSH1 0x0 DUP2 MLOAD SWAP1 POP PUSH2 0x2960 DUP2 PUSH2 0x3D85 JUMP JUMPDEST SWAP3 SWAP2 POP POP JUMP JUMPDEST PUSH1 0x0 DUP2 CALLDATALOAD SWAP1 POP PUSH2 0x2975 DUP2 PUSH2 0x3D9C JUMP JUMPDEST SWAP3 SWAP2 POP POP JUMP JUMPDEST PUSH1 0x0 DUP2 MLOAD SWAP1 POP PUSH2 0x298A DUP2 PUSH2 0x3D9C JUMP JUMPDEST SWAP3 SWAP2 POP POP JUMP JUMPDEST PUSH1 0x0 DUP2 CALLDATALOAD SWAP1 POP PUSH2 0x299F DUP2 PUSH2 0x3DB3 JUMP JUMPDEST SWAP3 SWAP2 POP POP JUMP JUMPDEST PUSH1 0x0 DUP2 MLOAD SWAP1 POP PUSH2 0x29B4 DUP2 PUSH2 0x3DB3 JUMP JUMPDEST SWAP3 SWAP2 POP POP JUMP JUMPDEST PUSH1 0x0 DUP2 CALLDATALOAD SWAP1 POP PUSH2 0x29C9 DUP2 PUSH2 0x3DCA JUMP JUMPDEST SWAP3 SWAP2 POP POP JUMP JUMPDEST PUSH1 0x0 DUP2 MLOAD SWAP1 POP PUSH2 0x29DE DUP2 PUSH2 0x3DE1 JUMP JUMPDEST SWAP3 SWAP2 POP POP JUMP JUMPDEST PUSH1 0x0 PUSH1 0x20 DUP3 DUP5 SUB SLT ISZERO PUSH2 0x29FA JUMPI PUSH2 0x29F9 PUSH2 0x3C37 JUMP JUMPDEST JUMPDEST PUSH1 0x0 PUSH2 0x2A08 DUP5 DUP3 DUP6 ADD PUSH2 0x28CF JUMP JUMPDEST SWAP2 POP POP SWAP3 SWAP2 POP POP JUMP JUMPDEST PUSH1 0x0 DUP1 PUSH1 0x40 DUP4 DUP6 SUB SLT ISZERO PUSH2 0x2A28 JUMPI PUSH2 0x2A27 PUSH2 0x3C37 JUMP JUMPDEST JUMPDEST PUSH1 0x0 PUSH2 0x2A36 DUP6 DUP3 DUP7 ADD PUSH2 0x28CF JUMP JUMPDEST SWAP3 POP POP PUSH1 0x20 PUSH2 0x2A47 DUP6 DUP3 DUP7 ADD PUSH2 0x2912 JUMP JUMPDEST SWAP2 POP POP SWAP3 POP SWAP3 SWAP1 POP JUMP JUMPDEST PUSH1 0x0 DUP1 PUSH1 0x0 PUSH1 0x60 DUP5 DUP7 SUB SLT ISZERO PUSH2 0x2A6A JUMPI PUSH2 0x2A69 PUSH2 0x3C37 JUMP JUMPDEST JUMPDEST PUSH1 0x0 PUSH2 0x2A78 DUP7 DUP3 DUP8 ADD PUSH2 0x28CF JUMP JUMPDEST SWAP4 POP POP PUSH1 0x20 PUSH2 0x2A89 DUP7 DUP3 DUP8 ADD PUSH2 0x2966 JUMP JUMPDEST SWAP3 POP POP PUSH1 0x40 PUSH2 0x2A9A DUP7 DUP3 DUP8 ADD PUSH2 0x28CF JUMP JUMPDEST SWAP2 POP POP SWAP3 POP SWAP3 POP SWAP3 JUMP JUMPDEST PUSH1 0x0 PUSH1 0x20 DUP3 DUP5 SUB SLT ISZERO PUSH2 0x2ABA JUMPI PUSH2 0x2AB9 PUSH2 0x3C37 JUMP JUMPDEST JUMPDEST PUSH1 0x0 PUSH2 0x2AC8 DUP5 DUP3 DUP6 ADD PUSH2 0x2927 JUMP JUMPDEST SWAP2 POP POP SWAP3 SWAP2 POP POP JUMP JUMPDEST PUSH1 0x0 PUSH1 0x20 DUP3 DUP5 SUB SLT ISZERO PUSH2 0x2AE7 JUMPI PUSH2 0x2AE6 PUSH2 0x3C37 JUMP JUMPDEST JUMPDEST PUSH1 0x0 PUSH2 0x2AF5 DUP5 DUP3 DUP6 ADD PUSH2 0x2966 JUMP JUMPDEST SWAP2 POP POP SWAP3 SWAP2 POP POP JUMP JUMPDEST PUSH1 0x0 PUSH1 0x20 DUP3 DUP5 SUB SLT ISZERO PUSH2 0x2B14 JUMPI PUSH2 0x2B13 PUSH2 0x3C37 JUMP JUMPDEST JUMPDEST PUSH1 0x0 PUSH2 0x2B22 DUP5 DUP3 DUP6 ADD PUSH2 0x297B JUMP JUMPDEST SWAP2 POP POP SWAP3 SWAP2 POP POP JUMP JUMPDEST PUSH1 0x0 DUP1 PUSH1 0x0 DUP1 PUSH1 0x0 DUP1 PUSH1 0xC0 DUP8 DUP10 SUB SLT ISZERO PUSH2 0x2B48 JUMPI PUSH2 0x2B47 PUSH2 0x3C37 JUMP JUMPDEST JUMPDEST PUSH1 0x0 PUSH2 0x2B56 DUP10 DUP3 DUP11 ADD PUSH2 0x2966 JUMP JUMPDEST SWAP7 POP POP PUSH1 0x20 PUSH2 0x2B67 DUP10 DUP3 DUP11 ADD PUSH2 0x28CF JUMP JUMPDEST SWAP6 POP POP PUSH1 0x40 PUSH2 0x2B78 DUP10 DUP3 DUP11 ADD PUSH2 0x2912 JUMP JUMPDEST SWAP5 POP POP PUSH1 0x60 PUSH2 0x2B89 DUP10 DUP3 DUP11 ADD PUSH2 0x2990 JUMP JUMPDEST SWAP4 POP POP PUSH1 0x80 PUSH2 0x2B9A DUP10 DUP3 DUP11 ADD PUSH2 0x2966 JUMP JUMPDEST SWAP3 POP POP PUSH1 0xA0 PUSH2 0x2BAB DUP10 DUP3 DUP11 ADD PUSH2 0x2966 JUMP JUMPDEST SWAP2 POP POP SWAP3 SWAP6 POP SWAP3 SWAP6 POP SWAP3 SWAP6 JUMP JUMPDEST PUSH1 0x0 DUP1 PUSH1 0x40 DUP4 DUP6 SUB SLT ISZERO PUSH2 0x2BCF JUMPI PUSH2 0x2BCE PUSH2 0x3C37 JUMP JUMPDEST JUMPDEST PUSH1 0x0 PUSH2 0x2BDD DUP6 DUP3 DUP7 ADD PUSH2 0x2966 JUMP JUMPDEST SWAP3 POP POP PUSH1 0x20 DUP4 ADD CALLDATALOAD PUSH8 0xFFFFFFFFFFFFFFFF DUP2 GT ISZERO PUSH2 0x2BFE JUMPI PUSH2 0x2BFD PUSH2 0x3C32 JUMP JUMPDEST JUMPDEST PUSH2 0x2C0A DUP6 DUP3 DUP7 ADD PUSH2 0x28E4 JUMP JUMPDEST SWAP2 POP POP SWAP3 POP SWAP3 SWAP1 POP JUMP JUMPDEST PUSH1 0x0 DUP1 PUSH1 0x0 DUP1 PUSH1 0x0 DUP1 PUSH1 0x0 DUP1 PUSH1 0x0 PUSH2 0x120 DUP11 DUP13 SUB SLT ISZERO PUSH2 0x2C37 JUMPI PUSH2 0x2C36 PUSH2 0x3C37 JUMP JUMPDEST JUMPDEST PUSH1 0x0 PUSH2 0x2C45 DUP13 DUP3 DUP14 ADD PUSH2 0x29A5 JUMP JUMPDEST SWAP10 POP POP PUSH1 0x20 PUSH2 0x2C56 DUP13 DUP3 DUP14 ADD PUSH2 0x29A5 JUMP JUMPDEST SWAP9 POP POP PUSH1 0x40 PUSH2 0x2C67 DUP13 DUP3 DUP14 ADD PUSH2 0x29A5 JUMP JUMPDEST SWAP8 POP POP PUSH1 0x60 PUSH2 0x2C78 DUP13 DUP3 DUP14 ADD PUSH2 0x29A5 JUMP JUMPDEST SWAP7 POP POP PUSH1 0x80 PUSH2 0x2C89 DUP13 DUP3 DUP14 ADD PUSH2 0x29A5 JUMP JUMPDEST SWAP6 POP POP PUSH1 0xA0 PUSH2 0x2C9A DUP13 DUP3 DUP14 ADD PUSH2 0x2951 JUMP JUMPDEST SWAP5 POP POP PUSH1 0xC0 PUSH2 0x2CAB DUP13 DUP3 DUP14 ADD PUSH2 0x2951 JUMP JUMPDEST SWAP4 POP POP PUSH1 0xE0 PUSH2 0x2CBC DUP13 DUP3 DUP14 ADD PUSH2 0x2951 JUMP JUMPDEST SWAP3 POP POP PUSH2 0x100 PUSH2 0x2CCE DUP13 DUP3 DUP14 ADD PUSH2 0x2951 JUMP JUMPDEST SWAP2 POP POP SWAP3 SWAP6 SWAP9 POP SWAP3 SWAP6 SWAP9 POP SWAP3 SWAP6 SWAP9 JUMP JUMPDEST PUSH1 0x0 PUSH1 0x20 DUP3 DUP5 SUB SLT ISZERO PUSH2 0x2CF4 JUMPI PUSH2 0x2CF3 PUSH2 0x3C37 JUMP JUMPDEST JUMPDEST PUSH1 0x0 PUSH2 0x2D02 DUP5 DUP3 DUP6 ADD PUSH2 0x29BA JUMP JUMPDEST SWAP2 POP POP SWAP3 SWAP2 POP POP JUMP JUMPDEST PUSH1 0x0 DUP1 PUSH1 0x0 DUP1 PUSH1 0x0 PUSH1 0xA0 DUP7 DUP9 SUB SLT ISZERO PUSH2 0x2D27 JUMPI PUSH2 0x2D26 PUSH2 0x3C37 JUMP JUMPDEST JUMPDEST PUSH1 0x0 PUSH2 0x2D35 DUP9 DUP3 DUP10 ADD PUSH2 0x29CF JUMP JUMPDEST SWAP6 POP POP PUSH1 0x20 PUSH2 0x2D46 DUP9 DUP3 DUP10 ADD PUSH2 0x293C JUMP JUMPDEST SWAP5 POP POP PUSH1 0x40 PUSH2 0x2D57 DUP9 DUP3 DUP10 ADD PUSH2 0x297B JUMP JUMPDEST SWAP4 POP POP PUSH1 0x60 PUSH2 0x2D68 DUP9 DUP3 DUP10 ADD PUSH2 0x297B JUMP JUMPDEST SWAP3 POP POP PUSH1 0x80 PUSH2 0x2D79 DUP9 DUP3 DUP10 ADD PUSH2 0x29CF JUMP JUMPDEST SWAP2 POP POP SWAP3 SWAP6 POP SWAP3 SWAP6 SWAP1 SWAP4 POP JUMP JUMPDEST PUSH1 0x0 PUSH2 0x2D92 DUP4 DUP4 PUSH2 0x30B4 JUMP JUMPDEST PUSH1 0x20 DUP4 ADD SWAP1 POP SWAP3 SWAP2 POP POP JUMP JUMPDEST PUSH1 0x0 PUSH2 0x2DAA DUP4 DUP4 PUSH2 0x311D JUMP JUMPDEST PUSH1 0x20 DUP4 ADD SWAP1 POP SWAP3 SWAP2 POP POP JUMP JUMPDEST PUSH2 0x2DBF DUP2 PUSH2 0x3935 JUMP JUMPDEST DUP3 MSTORE POP POP JUMP JUMPDEST PUSH2 0x2DCE DUP2 PUSH2 0x3935 JUMP JUMPDEST DUP3 MSTORE POP POP JUMP JUMPDEST PUSH1 0x0 PUSH2 0x2DDF DUP3 PUSH2 0x3602 JUMP JUMPDEST PUSH2 0x2DE9 DUP2 DUP6 PUSH2 0x3648 JUMP JUMPDEST SWAP4 POP PUSH2 0x2DF4 DUP4 PUSH2 0x35E2 JUMP JUMPDEST DUP1 PUSH1 0x0 JUMPDEST DUP4 DUP2 LT ISZERO PUSH2 0x2E25 JUMPI DUP2 MLOAD PUSH2 0x2E0C DUP9 DUP3 PUSH2 0x2D86 JUMP JUMPDEST SWAP8 POP PUSH2 0x2E17 DUP4 PUSH2 0x362E JUMP JUMPDEST SWAP3 POP POP PUSH1 0x1 DUP2 ADD SWAP1 POP PUSH2 0x2DF8 JUMP JUMPDEST POP DUP6 SWAP4 POP POP POP POP SWAP3 SWAP2 POP POP JUMP JUMPDEST PUSH1 0x0 PUSH2 0x2E3D DUP3 PUSH2 0x360D JUMP JUMPDEST PUSH2 0x2E47 DUP2 DUP6 PUSH2 0x3659 JUMP JUMPDEST SWAP4 POP PUSH2 0x2E52 DUP4 PUSH2 0x35F2 JUMP JUMPDEST DUP1 PUSH1 0x0 JUMPDEST DUP4 DUP2 LT ISZERO PUSH2 0x2E83 JUMPI DUP2 MLOAD PUSH2 0x2E6A DUP9 DUP3 PUSH2 0x2D9E JUMP JUMPDEST SWAP8 POP PUSH2 0x2E75 DUP4 PUSH2 0x363B JUMP JUMPDEST SWAP3 POP POP PUSH1 0x1 DUP2 ADD SWAP1 POP PUSH2 0x2E56 JUMP JUMPDEST POP DUP6 SWAP4 POP POP POP POP SWAP3 SWAP2 POP POP JUMP JUMPDEST PUSH2 0x2E99 DUP2 PUSH2 0x3947 JUMP JUMPDEST DUP3 MSTORE POP POP JUMP JUMPDEST PUSH2 0x2EA8 DUP2 PUSH2 0x3947 JUMP JUMPDEST DUP3 MSTORE POP POP JUMP JUMPDEST PUSH2 0x2EB7 DUP2 PUSH2 0x3953 JUMP JUMPDEST DUP3 MSTORE POP POP JUMP JUMPDEST PUSH1 0x0 PUSH2 0x2EC8 DUP3 PUSH2 0x3618 JUMP JUMPDEST PUSH2 0x2ED2 DUP2 DUP6 PUSH2 0x366A JUMP JUMPDEST SWAP4 POP PUSH2 0x2EE2 DUP2 DUP6 PUSH1 0x20 DUP7 ADD PUSH2 0x3A61 JUMP JUMPDEST DUP1 DUP5 ADD SWAP2 POP POP SWAP3 SWAP2 POP POP JUMP JUMPDEST PUSH2 0x2EF7 DUP2 PUSH2 0x39F5 JUMP JUMPDEST DUP3 MSTORE POP POP JUMP JUMPDEST PUSH2 0x2F06 DUP2 PUSH2 0x3A07 JUMP JUMPDEST DUP3 MSTORE POP POP JUMP JUMPDEST PUSH2 0x2F15 DUP2 PUSH2 0x3A19 JUMP JUMPDEST DUP3 MSTORE POP POP JUMP JUMPDEST PUSH1 0x0 PUSH2 0x2F26 DUP3 PUSH2 0x3623 JUMP JUMPDEST PUSH2 0x2F30 DUP2 DUP6 PUSH2 0x3675 JUMP JUMPDEST SWAP4 POP PUSH2 0x2F40 DUP2 DUP6 PUSH1 0x20 DUP7 ADD PUSH2 0x3A61 JUMP JUMPDEST PUSH2 0x2F49 DUP2 PUSH2 0x3C3C JUMP JUMPDEST DUP5 ADD SWAP2 POP POP SWAP3 SWAP2 POP POP JUMP JUMPDEST PUSH1 0x0 PUSH2 0x2F61 PUSH1 0x26 DUP4 PUSH2 0x3675 JUMP JUMPDEST SWAP2 POP PUSH2 0x2F6C DUP3 PUSH2 0x3C4D JUMP JUMPDEST PUSH1 0x40 DUP3 ADD SWAP1 POP SWAP2 SWAP1 POP JUMP JUMPDEST PUSH1 0x0 PUSH2 0x2F84 PUSH1 0x0 DUP4 PUSH2 0x366A JUMP JUMPDEST SWAP2 POP PUSH2 0x2F8F DUP3 PUSH2 0x3C9C JUMP JUMPDEST PUSH1 0x0 DUP3 ADD SWAP1 POP SWAP2 SWAP1 POP JUMP JUMPDEST PUSH1 0x0 PUSH2 0x2FA7 PUSH1 0x1D DUP4 PUSH2 0x3675 JUMP JUMPDEST SWAP2 POP PUSH2 0x2FB2 DUP3 PUSH2 0x3C9F JUMP JUMPDEST PUSH1 0x20 DUP3 ADD SWAP1 POP SWAP2 SWAP1 POP JUMP JUMPDEST PUSH1 0x0 PUSH2 0x2FCA PUSH1 0x2A DUP4 PUSH2 0x3675 JUMP JUMPDEST SWAP2 POP PUSH2 0x2FD5 DUP3 PUSH2 0x3CC8 JUMP JUMPDEST PUSH1 0x40 DUP3 ADD SWAP1 POP SWAP2 SWAP1 POP JUMP JUMPDEST PUSH1 0x0 PUSH2 0x2FED PUSH1 0x1F DUP4 PUSH2 0x3675 JUMP JUMPDEST SWAP2 POP PUSH2 0x2FF8 DUP3 PUSH2 0x3D17 JUMP JUMPDEST PUSH1 0x20 DUP3 ADD SWAP1 POP SWAP2 SWAP1 POP JUMP JUMPDEST PUSH2 0x100 DUP3 ADD PUSH1 0x0 DUP3 ADD MLOAD PUSH2 0x301A PUSH1 0x0 DUP6 ADD DUP3 PUSH2 0x30B4 JUMP JUMPDEST POP PUSH1 0x20 DUP3 ADD MLOAD PUSH2 0x302D PUSH1 0x20 DUP6 ADD DUP3 PUSH2 0x30B4 JUMP JUMPDEST POP PUSH1 0x40 DUP3 ADD MLOAD PUSH2 0x3040 PUSH1 0x40 DUP6 ADD DUP3 PUSH2 0x30B4 JUMP JUMPDEST POP PUSH1 0x60 DUP3 ADD MLOAD PUSH2 0x3053 PUSH1 0x60 DUP6 ADD DUP3 PUSH2 0x30B4 JUMP JUMPDEST POP PUSH1 0x80 DUP3 ADD MLOAD PUSH2 0x3066 PUSH1 0x80 DUP6 ADD DUP3 PUSH2 0x2DB6 JUMP JUMPDEST POP PUSH1 0xA0 DUP3 ADD MLOAD PUSH2 0x3079 PUSH1 0xA0 DUP6 ADD DUP3 PUSH2 0x30FF JUMP JUMPDEST POP PUSH1 0xC0 DUP3 ADD MLOAD PUSH2 0x308C PUSH1 0xC0 DUP6 ADD DUP3 PUSH2 0x30D2 JUMP JUMPDEST POP PUSH1 0xE0 DUP3 ADD MLOAD PUSH2 0x309F PUSH1 0xE0 DUP6 ADD DUP3 PUSH2 0x2E90 JUMP JUMPDEST POP POP POP POP JUMP JUMPDEST PUSH2 0x30AE DUP2 PUSH2 0x3967 JUMP JUMPDEST DUP3 MSTORE POP POP JUMP JUMPDEST PUSH2 0x30BD DUP2 PUSH2 0x39A4 JUMP JUMPDEST DUP3 MSTORE POP POP JUMP JUMPDEST PUSH2 0x30CC DUP2 PUSH2 0x39A4 JUMP JUMPDEST DUP3 MSTORE POP POP JUMP JUMPDEST PUSH2 0x30DB DUP2 PUSH2 0x39AE JUMP JUMPDEST DUP3 MSTORE POP POP JUMP JUMPDEST PUSH2 0x30EA DUP2 PUSH2 0x39AE JUMP JUMPDEST DUP3 MSTORE POP POP JUMP JUMPDEST PUSH2 0x30F9 DUP2 PUSH2 0x3A4F JUMP JUMPDEST DUP3 MSTORE POP POP JUMP JUMPDEST PUSH2 0x3108 DUP2 PUSH2 0x39BE JUMP JUMPDEST DUP3 MSTORE POP POP JUMP JUMPDEST PUSH2 0x3117 DUP2 PUSH2 0x39BE JUMP JUMPDEST DUP3 MSTORE POP POP JUMP JUMPDEST PUSH2 0x3126 DUP2 PUSH2 0x39D2 JUMP JUMPDEST DUP3 MSTORE POP POP JUMP JUMPDEST PUSH1 0x0 PUSH2 0x3138 DUP3 DUP5 PUSH2 0x2EBD JUMP JUMPDEST SWAP2 POP DUP2 SWAP1 POP SWAP3 SWAP2 POP POP JUMP JUMPDEST PUSH1 0x0 PUSH2 0x314E DUP3 PUSH2 0x2F77 JUMP JUMPDEST SWAP2 POP DUP2 SWAP1 POP SWAP2 SWAP1 POP JUMP JUMPDEST PUSH1 0x0 PUSH1 0x20 DUP3 ADD SWAP1 POP PUSH2 0x316D PUSH1 0x0 DUP4 ADD DUP5 PUSH2 0x2DC5 JUMP JUMPDEST SWAP3 SWAP2 POP POP JUMP JUMPDEST PUSH1 0x0 PUSH1 0x40 DUP3 ADD SWAP1 POP PUSH2 0x3188 PUSH1 0x0 DUP4 ADD DUP6 PUSH2 0x2DC5 JUMP JUMPDEST PUSH2 0x3195 PUSH1 0x20 DUP4 ADD DUP5 PUSH2 0x2DC5 JUMP JUMPDEST SWAP4 SWAP3 POP POP POP JUMP JUMPDEST PUSH1 0x0 PUSH1 0x60 DUP3 ADD SWAP1 POP PUSH2 0x31B1 PUSH1 0x0 DUP4 ADD DUP7 PUSH2 0x2DC5 JUMP JUMPDEST PUSH2 0x31BE PUSH1 0x20 DUP4 ADD DUP6 PUSH2 0x2DC5 JUMP JUMPDEST PUSH2 0x31CB PUSH1 0x40 DUP4 ADD DUP5 PUSH2 0x30C3 JUMP JUMPDEST SWAP5 SWAP4 POP POP POP POP JUMP JUMPDEST PUSH1 0x0 PUSH1 0x40 DUP3 ADD SWAP1 POP PUSH2 0x31E8 PUSH1 0x0 DUP4 ADD DUP6 PUSH2 0x2DC5 JUMP JUMPDEST PUSH2 0x31F5 PUSH1 0x20 DUP4 ADD DUP5 PUSH2 0x2E9F JUMP JUMPDEST SWAP4 SWAP3 POP POP POP JUMP JUMPDEST PUSH1 0x0 PUSH1 0x40 DUP3 ADD SWAP1 POP PUSH2 0x3211 PUSH1 0x0 DUP4 ADD DUP6 PUSH2 0x2DC5 JUMP JUMPDEST PUSH2 0x321E PUSH1 0x20 DUP4 ADD DUP5 PUSH2 0x30C3 JUMP JUMPDEST SWAP4 SWAP3 POP POP POP JUMP JUMPDEST PUSH1 0x0 PUSH1 0x60 DUP3 ADD SWAP1 POP PUSH2 0x323A PUSH1 0x0 DUP4 ADD DUP7 PUSH2 0x2DC5 JUMP JUMPDEST PUSH2 0x3247 PUSH1 0x20 DUP4 ADD DUP6 PUSH2 0x30C3 JUMP JUMPDEST PUSH2 0x3254 PUSH1 0x40 DUP4 ADD DUP5 PUSH2 0x2DC5 JUMP JUMPDEST SWAP5 SWAP4 POP POP POP POP JUMP JUMPDEST PUSH1 0x0 PUSH1 0x20 DUP3 ADD SWAP1 POP PUSH2 0x3271 PUSH1 0x0 DUP4 ADD DUP5 PUSH2 0x2E9F JUMP JUMPDEST SWAP3 SWAP2 POP POP JUMP JUMPDEST PUSH1 0x0 PUSH1 0xA0 DUP3 ADD SWAP1 POP PUSH2 0x328C PUSH1 0x0 DUP4 ADD DUP9 PUSH2 0x2EAE JUMP JUMPDEST PUSH2 0x3299 PUSH1 0x20 DUP4 ADD DUP8 PUSH2 0x310E JUMP JUMPDEST PUSH2 0x32A6 PUSH1 0x40 DUP4 ADD DUP7 PUSH2 0x30A5 JUMP JUMPDEST PUSH2 0x32B3 PUSH1 0x60 DUP4 ADD DUP6 PUSH2 0x30E1 JUMP JUMPDEST PUSH2 0x32C0 PUSH1 0x80 DUP4 ADD DUP5 PUSH2 0x30E1 JUMP JUMPDEST SWAP7 SWAP6 POP POP POP POP POP POP JUMP JUMPDEST PUSH1 0x0 PUSH1 0x20 DUP3 ADD SWAP1 POP PUSH2 0x32DF PUSH1 0x0 DUP4 ADD DUP5 PUSH2 0x2EEE JUMP JUMPDEST SWAP3 SWAP2 POP POP JUMP JUMPDEST PUSH1 0x0 PUSH1 0x20 DUP3 ADD SWAP1 POP PUSH2 0x32FA PUSH1 0x0 DUP4 ADD DUP5 PUSH2 0x2EFD JUMP JUMPDEST SWAP3 SWAP2 POP POP JUMP JUMPDEST PUSH1 0x0 PUSH1 0x20 DUP3 ADD SWAP1 POP PUSH2 0x3315 PUSH1 0x0 DUP4 ADD DUP5 PUSH2 0x2F0C JUMP JUMPDEST SWAP3 SWAP2 POP POP JUMP JUMPDEST PUSH1 0x0 PUSH1 0x20 DUP3 ADD SWAP1 POP DUP2 DUP2 SUB PUSH1 0x0 DUP4 ADD MSTORE PUSH2 0x3335 DUP2 DUP5 PUSH2 0x2F1B JUMP JUMPDEST SWAP1 POP SWAP3 SWAP2 POP POP JUMP JUMPDEST PUSH1 0x0 PUSH1 0x20 DUP3 ADD SWAP1 POP DUP2 DUP2 SUB PUSH1 0x0 DUP4 ADD MSTORE PUSH2 0x3356 DUP2 PUSH2 0x2F54 JUMP JUMPDEST SWAP1 POP SWAP2 SWAP1 POP JUMP JUMPDEST PUSH1 0x0 PUSH1 0x20 DUP3 ADD SWAP1 POP DUP2 DUP2 SUB PUSH1 0x0 DUP4 ADD MSTORE PUSH2 0x3376 DUP2 PUSH2 0x2F9A JUMP JUMPDEST SWAP1 POP SWAP2 SWAP1 POP JUMP JUMPDEST PUSH1 0x0 PUSH1 0x20 DUP3 ADD SWAP1 POP DUP2 DUP2 SUB PUSH1 0x0 DUP4 ADD MSTORE PUSH2 0x3396 DUP2 PUSH2 0x2FBD JUMP JUMPDEST SWAP1 POP SWAP2 SWAP1 POP JUMP JUMPDEST PUSH1 0x0 PUSH1 0x20 DUP3 ADD SWAP1 POP DUP2 DUP2 SUB PUSH1 0x0 DUP4 ADD MSTORE PUSH2 0x33B6 DUP2 PUSH2 0x2FE0 JUMP JUMPDEST SWAP1 POP SWAP2 SWAP1 POP JUMP JUMPDEST PUSH1 0x0 PUSH2 0x100 DUP3 ADD SWAP1 POP PUSH2 0x33D3 PUSH1 0x0 DUP4 ADD DUP5 PUSH2 0x3003 JUMP JUMPDEST SWAP3 SWAP2 POP POP JUMP JUMPDEST PUSH1 0x0 PUSH1 0x20 DUP3 ADD SWAP1 POP PUSH2 0x33EE PUSH1 0x0 DUP4 ADD DUP5 PUSH2 0x30C3 JUMP JUMPDEST SWAP3 SWAP2 POP POP JUMP JUMPDEST PUSH1 0x0 PUSH1 0x40 DUP3 ADD SWAP1 POP PUSH2 0x3409 PUSH1 0x0 DUP4 ADD DUP6 PUSH2 0x30C3 JUMP JUMPDEST PUSH2 0x3416 PUSH1 0x20 DUP4 ADD DUP5 PUSH2 0x2DC5 JUMP JUMPDEST SWAP4 SWAP3 POP POP POP JUMP JUMPDEST PUSH1 0x0 PUSH1 0xE0 DUP3 ADD SWAP1 POP PUSH2 0x3432 PUSH1 0x0 DUP4 ADD DUP11 PUSH2 0x30C3 JUMP JUMPDEST PUSH2 0x343F PUSH1 0x20 DUP4 ADD DUP10 PUSH2 0x2DC5 JUMP JUMPDEST PUSH2 0x344C PUSH1 0x40 DUP4 ADD DUP9 PUSH2 0x2E9F JUMP JUMPDEST PUSH2 0x3459 PUSH1 0x60 DUP4 ADD DUP8 PUSH2 0x30E1 JUMP JUMPDEST PUSH2 0x3466 PUSH1 0x80 DUP4 ADD DUP7 PUSH2 0x30C3 JUMP JUMPDEST PUSH2 0x3473 PUSH1 0xA0 DUP4 ADD DUP6 PUSH2 0x30C3 JUMP JUMPDEST PUSH2 0x3480 PUSH1 0xC0 DUP4 ADD DUP5 PUSH2 0x30C3 JUMP JUMPDEST SWAP9 SWAP8 POP POP POP POP POP POP POP POP JUMP JUMPDEST PUSH1 0x0 PUSH1 0x40 DUP3 ADD SWAP1 POP PUSH2 0x34A1 PUSH1 0x0 DUP4 ADD DUP6 PUSH2 0x30C3 JUMP JUMPDEST PUSH2 0x34AE PUSH1 0x20 DUP4 ADD DUP5 PUSH2 0x30C3 JUMP JUMPDEST SWAP4 SWAP3 POP POP POP JUMP JUMPDEST PUSH1 0x0 PUSH1 0xC0 DUP3 ADD SWAP1 POP PUSH2 0x34CA PUSH1 0x0 DUP4 ADD DUP10 PUSH2 0x30C3 JUMP JUMPDEST PUSH2 0x34D7 PUSH1 0x20 DUP4 ADD DUP9 PUSH2 0x30C3 JUMP JUMPDEST PUSH2 0x34E4 PUSH1 0x40 DUP4 ADD DUP8 PUSH2 0x2DC5 JUMP JUMPDEST DUP2 DUP2 SUB PUSH1 0x60 DUP4 ADD MSTORE PUSH2 0x34F6 DUP2 DUP7 PUSH2 0x2E32 JUMP JUMPDEST SWAP1 POP DUP2 DUP2 SUB PUSH1 0x80 DUP4 ADD MSTORE PUSH2 0x350A DUP2 DUP6 PUSH2 0x2DD4 JUMP JUMPDEST SWAP1 POP PUSH2 0x3519 PUSH1 0xA0 DUP4 ADD DUP5 PUSH2 0x30E1 JUMP JUMPDEST SWAP8 SWAP7 POP POP POP POP POP POP POP JUMP JUMPDEST PUSH1 0x0 PUSH1 0x40 DUP3 ADD SWAP1 POP PUSH2 0x3539 PUSH1 0x0 DUP4 ADD DUP6 PUSH2 0x30C3 JUMP JUMPDEST PUSH2 0x3546 PUSH1 0x20 DUP4 ADD DUP5 PUSH2 0x30F0 JUMP JUMPDEST SWAP4 SWAP3 POP POP POP JUMP JUMPDEST PUSH1 0x0 PUSH1 0x20 DUP3 ADD SWAP1 POP PUSH2 0x3562 PUSH1 0x0 DUP4 ADD DUP5 PUSH2 0x310E JUMP JUMPDEST SWAP3 SWAP2 POP POP JUMP JUMPDEST PUSH1 0x0 PUSH1 0x40 DUP3 ADD SWAP1 POP PUSH2 0x357D PUSH1 0x0 DUP4 ADD DUP6 PUSH2 0x310E JUMP JUMPDEST PUSH2 0x358A PUSH1 0x20 DUP4 ADD DUP5 PUSH2 0x310E JUMP JUMPDEST SWAP4 SWAP3 POP POP POP JUMP JUMPDEST PUSH1 0x0 PUSH2 0x359B PUSH2 0x35AC JUMP JUMPDEST SWAP1 POP PUSH2 0x35A7 DUP3 DUP3 PUSH2 0x3A94 JUMP JUMPDEST SWAP2 SWAP1 POP JUMP JUMPDEST PUSH1 0x0 PUSH1 0x40 MLOAD SWAP1 POP SWAP1 JUMP JUMPDEST PUSH1 0x0 PUSH8 0xFFFFFFFFFFFFFFFF DUP3 GT ISZERO PUSH2 0x35D1 JUMPI PUSH2 0x35D0 PUSH2 0x3BF9 JUMP JUMPDEST JUMPDEST PUSH1 0x20 DUP3 MUL SWAP1 POP PUSH1 0x20 DUP2 ADD SWAP1 POP SWAP2 SWAP1 POP JUMP JUMPDEST PUSH1 0x0 DUP2 SWAP1 POP PUSH1 0x20 DUP3 ADD SWAP1 POP SWAP2 SWAP1 POP JUMP JUMPDEST PUSH1 0x0 DUP2 SWAP1 POP PUSH1 0x20 DUP3 ADD SWAP1 POP SWAP2 SWAP1 POP JUMP JUMPDEST PUSH1 0x0 DUP2 MLOAD SWAP1 POP SWAP2 SWAP1 POP JUMP JUMPDEST PUSH1 0x0 DUP2 MLOAD SWAP1 POP SWAP2 SWAP1 POP JUMP JUMPDEST PUSH1 0x0 DUP2 MLOAD SWAP1 POP SWAP2 SWAP1 POP JUMP JUMPDEST PUSH1 0x0 DUP2 MLOAD SWAP1 POP SWAP2 SWAP1 POP JUMP JUMPDEST PUSH1 0x0 PUSH1 0x20 DUP3 ADD SWAP1 POP SWAP2 SWAP1 POP JUMP JUMPDEST PUSH1 0x0 PUSH1 0x20 DUP3 ADD SWAP1 POP SWAP2 SWAP1 POP JUMP JUMPDEST PUSH1 0x0 DUP3 DUP3 MSTORE PUSH1 0x20 DUP3 ADD SWAP1 POP SWAP3 SWAP2 POP POP JUMP JUMPDEST PUSH1 0x0 DUP3 DUP3 MSTORE PUSH1 0x20 DUP3 ADD SWAP1 POP SWAP3 SWAP2 POP POP JUMP JUMPDEST PUSH1 0x0 DUP2 SWAP1 POP SWAP3 SWAP2 POP POP JUMP JUMPDEST PUSH1 0x0 DUP3 DUP3 MSTORE PUSH1 0x20 DUP3 ADD SWAP1 POP SWAP3 SWAP2 POP POP JUMP JUMPDEST PUSH1 0x0 PUSH2 0x3691 DUP3 PUSH2 0x395D JUMP JUMPDEST SWAP2 POP PUSH2 0x369C DUP4 PUSH2 0x395D JUMP JUMPDEST SWAP3 POP DUP2 PUSH32 0x7FFFFFFFFFFFFFFFFFFFFFFFFFFFFFFFFFFFFFFFFFFFFFFFFFFFFFFFFFFFFFFF SUB DUP4 SGT PUSH1 0x0 DUP4 SLT ISZERO AND ISZERO PUSH2 0x36D7 JUMPI PUSH2 0x36D6 PUSH2 0x3B6C JUMP JUMPDEST JUMPDEST DUP2 PUSH32 0x8000000000000000000000000000000000000000000000000000000000000000 SUB DUP4 SLT PUSH1 0x0 DUP4 SLT AND ISZERO PUSH2 0x370F JUMPI PUSH2 0x370E PUSH2 0x3B6C JUMP JUMPDEST JUMPDEST DUP3 DUP3 ADD SWAP1 POP SWAP3 SWAP2 POP POP JUMP JUMPDEST PUSH1 0x0 PUSH2 0x3725 DUP3 PUSH2 0x39A4 JUMP JUMPDEST SWAP2 POP PUSH2 0x3730 DUP4 PUSH2 0x39A4 JUMP JUMPDEST SWAP3 POP DUP3 PUSH32 0xFFFFFFFFFFFFFFFFFFFFFFFFFFFFFFFFFFFFFFFFFFFFFFFFFFFFFFFFFFFFFFFF SUB DUP3 GT ISZERO PUSH2 0x3765 JUMPI PUSH2 0x3764 PUSH2 0x3B6C JUMP JUMPDEST JUMPDEST DUP3 DUP3 ADD SWAP1 POP SWAP3 SWAP2 POP POP JUMP JUMPDEST PUSH1 0x0 PUSH2 0x377B DUP3 PUSH2 0x39BE JUMP JUMPDEST SWAP2 POP PUSH2 0x3786 DUP4 PUSH2 0x39BE JUMP JUMPDEST SWAP3 POP DUP3 PUSH8 0xFFFFFFFFFFFFFFFF SUB DUP3 GT ISZERO PUSH2 0x37A3 JUMPI PUSH2 0x37A2 PUSH2 0x3B6C JUMP JUMPDEST JUMPDEST DUP3 DUP3 ADD SWAP1 POP SWAP3 SWAP2 POP POP JUMP JUMPDEST PUSH1 0x0 PUSH2 0x37B9 DUP3 PUSH2 0x39A4 JUMP JUMPDEST SWAP2 POP PUSH2 0x37C4 DUP4 PUSH2 0x39A4 JUMP JUMPDEST SWAP3 POP DUP3 PUSH2 0x37D4 JUMPI PUSH2 0x37D3 PUSH2 0x3B9B JUMP JUMPDEST JUMPDEST DUP3 DUP3 DIV SWAP1 POP SWAP3 SWAP2 POP POP JUMP JUMPDEST PUSH1 0x0 PUSH2 0x37EA DUP3 PUSH2 0x39A4 JUMP JUMPDEST SWAP2 POP PUSH2 0x37F5 DUP4 PUSH2 0x39A4 JUMP JUMPDEST SWAP3 POP DUP2 PUSH32 0xFFFFFFFFFFFFFFFFFFFFFFFFFFFFFFFFFFFFFFFFFFFFFFFFFFFFFFFFFFFFFFFF DIV DUP4 GT DUP3 ISZERO ISZERO AND ISZERO PUSH2 0x382E JUMPI PUSH2 0x382D PUSH2 0x3B6C JUMP JUMPDEST JUMPDEST DUP3 DUP3 MUL SWAP1 POP SWAP3 SWAP2 POP POP JUMP JUMPDEST PUSH1 0x0 PUSH2 0x3844 DUP3 PUSH2 0x395D JUMP JUMPDEST SWAP2 POP PUSH2 0x384F DUP4 PUSH2 0x395D JUMP JUMPDEST SWAP3 POP DUP3 PUSH32 0x8000000000000000000000000000000000000000000000000000000000000000 ADD DUP3 SLT PUSH1 0x0 DUP5 SLT ISZERO AND ISZERO PUSH2 0x388A JUMPI PUSH2 0x3889 PUSH2 0x3B6C JUMP JUMPDEST JUMPDEST DUP3 PUSH32 0x7FFFFFFFFFFFFFFFFFFFFFFFFFFFFFFFFFFFFFFFFFFFFFFFFFFFFFFFFFFFFFFF ADD DUP3 SGT PUSH1 0x0 DUP5 SLT AND ISZERO PUSH2 0x38C2 JUMPI PUSH2 0x38C1 PUSH2 0x3B6C JUMP JUMPDEST JUMPDEST DUP3 DUP3 SUB SWAP1 POP SWAP3 SWAP2 POP POP JUMP JUMPDEST PUSH1 0x0 PUSH2 0x38D8 DUP3 PUSH2 0x39A4 JUMP JUMPDEST SWAP2 POP PUSH2 0x38E3 DUP4 PUSH2 0x39A4 JUMP JUMPDEST SWAP3 POP DUP3 DUP3 LT ISZERO PUSH2 0x38F6 JUMPI PUSH2 0x38F5 PUSH2 0x3B6C JUMP JUMPDEST JUMPDEST DUP3 DUP3 SUB SWAP1 POP SWAP3 SWAP2 POP POP JUMP JUMPDEST PUSH1 0x0 PUSH2 0x390C DUP3 PUSH2 0x39AE JUMP JUMPDEST SWAP2 POP PUSH2 0x3917 DUP4 PUSH2 0x39AE JUMP JUMPDEST SWAP3 POP DUP3 DUP3 LT ISZERO PUSH2 0x392A JUMPI PUSH2 0x3929 PUSH2 0x3B6C JUMP JUMPDEST JUMPDEST DUP3 DUP3 SUB SWAP1 POP SWAP3 SWAP2 POP POP JUMP JUMPDEST PUSH1 0x0 PUSH2 0x3940 DUP3 PUSH2 0x3975 JUMP JUMPDEST SWAP1 POP SWAP2 SWAP1 POP JUMP JUMPDEST PUSH1 0x0 DUP2 ISZERO ISZERO SWAP1 POP SWAP2 SWAP1 POP JUMP JUMPDEST PUSH1 0x0 DUP2 SWAP1 POP SWAP2 SWAP1 POP JUMP JUMPDEST PUSH1 0x0 DUP2 SWAP1 POP SWAP2 SWAP1 POP JUMP JUMPDEST PUSH1 0x0 PUSH2 0xFFFF DUP3 AND SWAP1 POP SWAP2 SWAP1 POP JUMP JUMPDEST PUSH1 0x0 PUSH20 0xFFFFFFFFFFFFFFFFFFFFFFFFFFFFFFFFFFFFFFFF DUP3 AND SWAP1 POP SWAP2 SWAP1 POP JUMP JUMPDEST PUSH1 0x0 PUSH3 0xFFFFFF DUP3 AND SWAP1 POP SWAP2 SWAP1 POP JUMP JUMPDEST PUSH1 0x0 DUP2 SWAP1 POP SWAP2 SWAP1 POP JUMP JUMPDEST PUSH1 0x0 PUSH4 0xFFFFFFFF DUP3 AND SWAP1 POP SWAP2 SWAP1 POP JUMP JUMPDEST PUSH1 0x0 PUSH8 0xFFFFFFFFFFFFFFFF DUP3 AND SWAP1 POP SWAP2 SWAP1 POP JUMP JUMPDEST PUSH1 0x0 PUSH1 0xFF DUP3 AND SWAP1 POP SWAP2 SWAP1 POP JUMP JUMPDEST PUSH1 0x0 PUSH10 0xFFFFFFFFFFFFFFFFFFFF DUP3 AND SWAP1 POP SWAP2 SWAP1 POP JUMP JUMPDEST PUSH1 0x0 PUSH2 0x3A00 DUP3 PUSH2 0x3A2B JUMP JUMPDEST SWAP1 POP SWAP2 SWAP1 POP JUMP JUMPDEST PUSH1 0x0 PUSH2 0x3A12 DUP3 PUSH2 0x3A2B JUMP JUMPDEST SWAP1 POP SWAP2 SWAP1 POP JUMP JUMPDEST PUSH1 0x0 PUSH2 0x3A24 DUP3 PUSH2 0x39A4 JUMP JUMPDEST SWAP1 POP SWAP2 SWAP1 POP JUMP JUMPDEST PUSH1 0x0 PUSH2 0x3A36 DUP3 PUSH2 0x3A3D JUMP JUMPDEST SWAP1 POP SWAP2 SWAP1 POP JUMP JUMPDEST PUSH1 0x0 PUSH2 0x3A48 DUP3 PUSH2 0x3975 JUMP JUMPDEST SWAP1 POP SWAP2 SWAP1 POP JUMP JUMPDEST PUSH1 0x0 PUSH2 0x3A5A DUP3 PUSH2 0x39BE JUMP JUMPDEST SWAP1 POP SWAP2 SWAP1 POP JUMP JUMPDEST PUSH1 0x0 JUMPDEST DUP4 DUP2 LT ISZERO PUSH2 0x3A7F JUMPI DUP1 DUP3 ADD MLOAD DUP2 DUP5 ADD MSTORE PUSH1 0x20 DUP2 ADD SWAP1 POP PUSH2 0x3A64 JUMP JUMPDEST DUP4 DUP2 GT ISZERO PUSH2 0x3A8E JUMPI PUSH1 0x0 DUP5 DUP5 ADD MSTORE JUMPDEST POP POP POP POP JUMP JUMPDEST PUSH2 0x3A9D DUP3 PUSH2 0x3C3C JUMP JUMPDEST DUP2 ADD DUP2 DUP2 LT PUSH8 0xFFFFFFFFFFFFFFFF DUP3 GT OR ISZERO PUSH2 0x3ABC JUMPI PUSH2 0x3ABB PUSH2 0x3BF9 JUMP JUMPDEST JUMPDEST DUP1 PUSH1 0x40 MSTORE POP POP POP JUMP JUMPDEST PUSH1 0x0 PUSH2 0x3AD0 DUP3 PUSH2 0x39AE JUMP JUMPDEST SWAP2 POP PUSH4 0xFFFFFFFF DUP3 EQ ISZERO PUSH2 0x3AE7 JUMPI PUSH2 0x3AE6 PUSH2 0x3B6C JUMP JUMPDEST JUMPDEST PUSH1 0x1 DUP3 ADD SWAP1 POP SWAP2 SWAP1 POP JUMP JUMPDEST PUSH1 0x0 PUSH2 0x3AFD DUP3 PUSH2 0x39A4 JUMP JUMPDEST SWAP2 POP PUSH2 0x3B08 DUP4 PUSH2 0x39A4 JUMP JUMPDEST SWAP3 POP DUP3 PUSH2 0x3B18 JUMPI PUSH2 0x3B17 PUSH2 0x3B9B JUMP JUMPDEST JUMPDEST DUP3 DUP3 MOD SWAP1 POP SWAP3 SWAP2 POP POP JUMP JUMPDEST PUSH1 0x0 PUSH2 0x3B2E DUP3 PUSH2 0x395D JUMP JUMPDEST SWAP2 POP PUSH32 0x8000000000000000000000000000000000000000000000000000000000000000 DUP3 EQ ISZERO PUSH2 0x3B61 JUMPI PUSH2 0x3B60 PUSH2 0x3B6C JUMP JUMPDEST JUMPDEST DUP2 PUSH1 0x0 SUB SWAP1 POP SWAP2 SWAP1 POP JUMP JUMPDEST PUSH32 0x4E487B7100000000000000000000000000000000000000000000000000000000 PUSH1 0x0 MSTORE PUSH1 0x11 PUSH1 0x4 MSTORE PUSH1 0x24 PUSH1 0x0 REVERT JUMPDEST PUSH32 0x4E487B7100000000000000000000000000000000000000000000000000000000 PUSH1 0x0 MSTORE PUSH1 0x12 PUSH1 0x4 MSTORE PUSH1 0x24 PUSH1 0x0 REVERT JUMPDEST PUSH32 0x4E487B7100000000000000000000000000000000000000000000000000000000 PUSH1 0x0 MSTORE PUSH1 0x32 PUSH1 0x4 MSTORE PUSH1 0x24 PUSH1 0x0 REVERT JUMPDEST PUSH32 0x4E487B7100000000000000000000000000000000000000000000000000000000 PUSH1 0x0 MSTORE PUSH1 0x41 PUSH1 0x4 MSTORE PUSH1 0x24 PUSH1 0x0 REVERT JUMPDEST PUSH1 0x0 DUP1 REVERT JUMPDEST PUSH1 0x0 DUP1 REVERT JUMPDEST PUSH1 0x0 DUP1 REVERT JUMPDEST PUSH1 0x0 DUP1 REVERT JUMPDEST PUSH1 0x0 PUSH1 0x1F NOT PUSH1 0x1F DUP4 ADD AND SWAP1 POP SWAP2 SWAP1 POP JUMP JUMPDEST PUSH32 0x416464726573733A20696E73756666696369656E742062616C616E636520666F PUSH1 0x0 DUP3 ADD MSTORE PUSH32 0x722063616C6C0000000000000000000000000000000000000000000000000000 PUSH1 0x20 DUP3 ADD MSTORE POP JUMP JUMPDEST POP JUMP JUMPDEST PUSH32 0x416464726573733A2063616C6C20746F206E6F6E2D636F6E7472616374000000 PUSH1 0x0 DUP3 ADD MSTORE POP JUMP JUMPDEST PUSH32 0x5361666545524332303A204552433230206F7065726174696F6E20646964206E PUSH1 0x0 DUP3 ADD MSTORE PUSH32 0x6F74207375636365656400000000000000000000000000000000000000000000 PUSH1 0x20 DUP3 ADD MSTORE POP JUMP JUMPDEST PUSH32 0x5265656E7472616E637947756172643A207265656E7472616E742063616C6C00 PUSH1 0x0 DUP3 ADD MSTORE POP JUMP JUMPDEST PUSH2 0x3D49 DUP2 PUSH2 0x3935 JUMP JUMPDEST DUP2 EQ PUSH2 0x3D54 JUMPI PUSH1 0x0 DUP1 REVERT JUMPDEST POP JUMP JUMPDEST PUSH2 0x3D60 DUP2 PUSH2 0x3947 JUMP JUMPDEST DUP2 EQ PUSH2 0x3D6B JUMPI PUSH1 0x0 DUP1 REVERT JUMPDEST POP JUMP JUMPDEST PUSH2 0x3D77 DUP2 PUSH2 0x395D JUMP JUMPDEST DUP2 EQ PUSH2 0x3D82 JUMPI PUSH1 0x0 DUP1 REVERT JUMPDEST POP JUMP JUMPDEST PUSH2 0x3D8E DUP2 PUSH2 0x3995 JUMP JUMPDEST DUP2 EQ PUSH2 0x3D99 JUMPI PUSH1 0x0 DUP1 REVERT JUMPDEST POP JUMP JUMPDEST PUSH2 0x3DA5 DUP2 PUSH2 0x39A4 JUMP JUMPDEST DUP2 EQ PUSH2 0x3DB0 JUMPI PUSH1 0x0 DUP1 REVERT JUMPDEST POP JUMP JUMPDEST PUSH2 0x3DBC DUP2 PUSH2 0x39AE JUMP JUMPDEST DUP2 EQ PUSH2 0x3DC7 JUMPI PUSH1 0x0 DUP1 REVERT JUMPDEST POP JUMP JUMPDEST PUSH2 0x3DD3 DUP2 PUSH2 0x39BE JUMP JUMPDEST DUP2 EQ PUSH2 0x3DDE JUMPI PUSH1 0x0 DUP1 REVERT JUMPDEST POP JUMP JUMPDEST PUSH2 0x3DEA DUP2 PUSH2 0x39DF JUMP JUMPDEST DUP2 EQ PUSH2 0x3DF5 JUMPI PUSH1 0x0 DUP1 REVERT JUMPDEST POP JUMP INVALID LOG2 PUSH5 0x6970667358 0x22 SLT KECCAK256 0xEA 0xBD 0xD6 LOG2 LOG2 0x4F PUSH11 0xAB29F32EF0C3F992FB81C4 POP PUSH16 0x291E732CDE3DFC3520D78BB964736F6C PUSH4 0x43000807 STOP CALLER "},"methodIdentifiers":{"COORDINATOR()":"3b2bcbf1","CoinFlip_GetState(address)":"7df31284","CoinFlip_Play(uint256,address,bool,uint32,uint256,uint256)":"6d974773","CoinFlip_Refund()":"522d2c24","LINK_ETH_FEED()":"ad178361","VRFFees()":"8d7c16d2","changeSubscription(uint64)":"b400c231","getVRFFee(uint256)":"8bd16114","isTokenAllowed(address)":"f9eaee0d","owner()":"8da5cb5b","rawFulfillRandomWords(uint256,uint256[])":"1fe543e3","s_subscriptionId()":"8ac00021","setToken(address,bool)":"3816a292","transferFees(address)":"63dc4ef5","transferOwnership(address)":"f2fde38b","withdrawHouseEdge(address,uint256,address)":"7ab77648","wrappedToken()":"996c6cc3"}}}}}